:400000000010002011000000250200002502000010B500F051FA00F00DF9C04610B51222124B1A60302000F00BFF114A114B1A60F8225201104B1A60104A114B1A608022D6
:400040001206104B1A608022D2020F4B1A6040220E4B1A600E49072000F01EFE072000F0EBFD00220B4B1A6010BDC046300010400600008004010B400003014040FF00806D
:400080000000014008010B4000010B4008010140B11000000C020B4010B572B600240FE01A486200131959000B00411889881A5AC31858880004104300F0AEF80134E4B256
:4000C000012CEDD99922124B1A600023114A1360114A136099221204104B1A60104A117806230B43DBB2137002230E4A136031210D4A11600D4A1360C022D2010C4B1A6052
:40010000FFF78CFF00F078F810BDC046C416000000010240000302400803044010500F4000700F400001044008010440180104400806044010B5064C2378002B07D1054BA6
:40014000002B02D0044800E000BF0123237010BD5801002000000000C0160000084B10B5002B03D00749084800E000BF07480368002B00D110BD064B002BFBD09847F9E7E6
:40018000000000005C010020C0160000C80000200000000010B5084B1A68501C1860642101F046FA002905D100F0E0FFC043C0B200F0D0FF10BDC0467401002010B500F0B1
:4001C000F9FE00240AE0200000F00CFF002804D10449200000F0FEFE02E00134042CF2D910BDC0469501000010B562B6FFF7E6FF00F0C6FBFEE7C0460323044A1360044A85
:4002000013600022034B1A607047C0463000304030003140000E3F4010B50A00002101F042FA10BD10B501F009FA03680C2B00D1FEE7FEE770B50F4E0F4D13E029686B68C1
:40024000AC68002202E001C901C30432A242FAD1E868002202E0002102C304328242FAD11035013E002EE9D101F0EEF9FFF7BCFFFEE7C04601000000A817000010B5114A34
:40028000136801218B43136000230AE0032B03D89A000D49505800E00C4899000C4A885001332F2BF2D9FFF7F7FE0A4B1B68002B02D10022074B1A60024A116801230B4378
:4002C000136010BD00001040000000002502000000000020C0000020002306E04218013A12789B189BB2013989B20029F6D1584280B270470047C04610B58022024B1A60BC
:4003000000F002FD10BDC046C0000020F0B583B00D006B469E1DDA8001230B7048701400AA70130ACB70171DB9B22800FFF7D4FFE855631D000AE854A31D1722EA5407348E
:40034000A1B296233200280000F094FB03B0F0BD70B505000E001400002802D0002000F089FC002004E0013CAB19E35CC018C0B2002CF8D170BDC04610B50C2863D88000F3
:40038000404B1B589F464B06591ACB013E4A9446634401225CE04B06591ACB013B4A94466344042254E04B06591ACB01384A9446634402224CE04B06591ACB01354A9446A6
:4003C0006344042244E04B06591ACB01324A9446634401223CE04B06591ACB012F4A94466344012234E04B06591ACB012C4A9446634402222CE04B06591ACB01294A9446EB
:400400006344022224E04B06591ACB01264A9446634402221CE04B06591ACB01234A94466344042214E04B06591ACB01204A9446634401220CE04B06591ACB011D4A944659
:400440006344042204E0002000F014FC02220023012A02D11878C0B200E00020022A03D11978587800020843042A09D11A785878000210439A7812041043DB781B061843AD
:4004800010BDC046D0160000C07F0000C17F0000C57F0000C97F0000D07F0000D17F0000D67F0000D27F0000D47F0000D87F0000DC7F0000E07F000010B50D4B1B68DB064E
:4004C00002D400220B4B1A600A4B1B68802B0ED10022084B1A6000210220FFF74DFF002805D000210220FFF747FFFFF703FF10BD00030B40C000002070B5050001000320A1
:40050000FFF73AFF441CE40129000420FFF734FF241829000320FFF72FFF421CD2010023002608E01078411EC9B2FD2900D801261B18DBB20132A242F4D35B42DCB229004A
:400540000120FFF719FF844203D1002E03D1062002E0062000E0002070BDC046F0B55F4656464D464446F0B4CD4CA544050000F03BFA62B600239A4600270A249946002D00
:4005800001D1FF2300E02B00C64A02A98C4662449621490052A800F02FFA002D01D0013CE4B2002C01D00028E9D1002800D0D7E1BC4B02AA944663441B88062B24D952AA95
:4005C0001278012A22D152A9CA78120289780A439146110007329A421AD896235B009A4218D84A1D52AB9E5C3202081D1E5C164306315B5C172B0FD181B252A8FFF76CFEBE
:4006000086420BD100260AE0042608E0042606E0032604E0032602E0042600E00826002E00D04BE152AB1A7993465A781300313BD9B20A2900D901E18B009B49CB589F46C0
:40064000012F00D03CE14B46002B00D03BE10020FFF752FF4342434152AA1371012278E1012F00D032E14B46012B00D031E15B46002B00D030E18D4B1B681B68DA0BD2B2A3
:40068000934503D1DB09FF22134005E0934501D9002301E080235B0052AA13711B0A5371FF2393710023D371042252E1342A0DD1012F00D013E14B46032B00D012E14C321E
:4006C000002107A800F0EFFF80239A46012F00D00BE14B46022B00D80AE107A85044DA1E4821FF3102AB9C46614400F0D3FF4B4653449BB2832B00D0FDE052AA93791B029D
:40070000527913439A46FF2B00D90A26002E00D0F8E05B461802504480B2644B1B681A68D3099BB2520601D001339BB2834200D9ECE007A900F0B2F9002800D1EDE0002309
:400740009A46803399460A26002202E1012F00D104E104260022FCE0012F00D0E3E04B46534496225200934200D9DFE007A850444A4653A900F08EFF53464B449BB29A46C1
:400780000022E6E04B46002B00D0D2E004AA484B03CB03C253AA04AB03CB03C200239A4601270822D5E0012F00D0C5E04B46032B00D0C4E052AA93791B02527913439846FA
:4007C0005B4619024144C9014346FF2B00D90A26002E00D0B6E080220020FFF7B9FD030001905A461202424492B25946002911D1FF2A0FD10520FFF7BFFDC0B2019B1B1A51
:40080000DBB2984600210620FFF7B6FDC3B24246D31ADBB25B4252AA1371012299E00020FFF76AFE002802D18022224B1A6000F0DFF800F069FA042600228AE01E4B1E686C
:40084000002E00D180E0012F00D080E002AB1A704A465A8053AB03930C22002104A800F022FF04AB9B4653AA0692190002A8B0475B469A882623FF339A4203D953AB069906
:40088000994207D0069B002B01D1002A05D1049BDEB25EE00E2600225BE00E26002258E084FDFFFF6E02000004170000CC00002030170000C000002078010020002248E05C
:4008C0000426002245E00426002242E0042600223FE0042600223CE00426002239E00426002236E00426002233E00426002230E0042600222DE000239A46803399460326AD
:40090000002226E080239946002222E000239A46803399460A2600221BE000239A4680339946002215E00426002212E0032600220FE0042600220CE00426002209E004264C
:40094000002206E0002204E00526002201E00526002252A93000FFF7D9FC01E000239A46002D00D10BE6012F00D108E69F239B009D443CBC90469946A246AB46F0BDC046BF
:4009800070B50020FFF7B8FD002801D0062400E00024134D2B681A68C03AC0210020FFF7D7FC6B681B78C01AC0B24042C0B2834204D10B4B1B681B68002B02D1002000F03D
:4009C00059F9084B1B68402B01D0002C05D00022044B1A600020FFF7C1FDFFF78DFC70BDCC000020C000002010B500F0F9FB10BD10B500F005FC10BDF0B583B007000E0075
:400A0000019200282DD000292ED09A00D3185C0000F026FC002811D000F022FC0500AE2000F04EFA00F01CFC8542F5D1B54200D93500019B1D800023019308E0012000F03F
:400A40006FF9013C002CE3D1002510230193002404E03E1900F0EAFB30700134A542F8D804E00123019301E001230193019803B0F0BDC04670B50C001500002806D00029A4
:400A800006D000F039FC2C80002002E0012000E0012070BD002070470020704730B5A5B00400002323932293FF2871D800296FD0802202A800F0EEFD384B9C4201D9384B07
:400AC00000E0384B00937F230193374B6A461A603649374A1160C0461B681B0F1B07F0221206934204D1304B1B68FF2213400DE02D4B1B681B0F1B07A0221206934204D0DB
:400B0000294B1B68FF22134000E000232393239B002B3FD100F03DFB0500FFF7BBFF2290239B002B25D1234A0092009A2404144300941D4A694611601F481D490860C046BC
:400B40001268120F1207F02109068A4204D1164B1B68FF2213400BE0134A1268120F1207A02109068A4203D00F4B1B68FF2213402393229B002B07D1FFF78EFF2290229B84
:400B8000002B01D0229B2393280000F006FB01E004232393239825B030BDC046FF010000B6D70001B6D70000080010400400008004001040B6D800000500008070B50400E5
:400BC00000F0E7FA0500102C05D8104A136803218B43136016E0202C07D80C490B6803229343023A13430B600CE0302C07D807490B6803229343013A13430B6002E0002008
:400C000000F038F8280000F0C8FA70BD30001040024A1168024B0B401360704700002240FFFFFFBF034B18688023DB05184000D001207047000022401F2318401E3B8340FF
:400C4000014A13607047C04600E100E01F2318401E3B8340014A13607047C04680E100E01F2318401E3B8340014A13607047C04680E200E001BE704770B504000D000F2870
:400C800002D90020FFF7F6FFA40080239B059C4664442068256070BD70B504000D001F2802D90020FFF7E6FF1034A40080239B059C4664442068256070BDC04670B5040032
:400CC0000E00032902D90020FFF7D4FF1F2C02D90020FFF7CFFF03252540ED00063500F058FAA408A400074B9C46644421680323AB4099430B003100A9401943216000F061
:400D00004CFA70BD00E400E0034A13681B041B0C02490B43136070470CED00E00400FA0510B5040006E0084B586800F029FA074B9C46644480231B029C42F4D8024B986867
:400D4000604300F01DFA10BDD40000200080FFFF30B583B000F056F900285AD000F019FA040000230AE02C4A12683F210A402B49C95C8A4201D1033303E001332D2BF2D98C
:400D80000323274A1268D20606D1254802681F218A4313390A430260224A1168224A0A40224959438020C00184466144C90B01394905490D0A43A021490311430800192B76
:400DC00002D81B4B1A430EE01A4A9A1812781A3B1249C9183023CB5CD318FF2B00D9FF239B0502001A430F4B1A60134D2B6801933020FFF7E3FE114A13688021C9050B4399
:400E000013601420FFF78CFF019B2B60200000F0C4F903B030BDC0462CFF0B403817000034FF0B400800224000F800C040420F000000D43FCDF1FF0F300010400000224039
:400E400030B587B0040000F0A4F90500FFF7EAFE002803D0FFF7DCFE012100E00021104B1B6800930F4B1B680193033C0E4B1B5D02930E4B1B68039304AA0D4B04936B46AD
:400E800005930C4B1A600C480C4A10601B68012901D1FFF75DFF280000F07FF907B030BD08010B4000010B403817000030001040B6EA000008001040170000800400104058
:400EC00010B5034B1B7B584300F05AF910BDC046D4000020024A116802230B431360704710E000E010B5FFF7F5FF034A116801230B43136010BDC04610E000E00002000A69
:400F0000014B18607047C04614E000E0012805D1054A116804230B43136004E0024A136804218B431360704710E000E0024B1868000C01231840704710E000E010B5FFF77E
:400F4000F5FF01280BD107E0A300054A9B58002B00D09847013400E00024042CF4D910BD7C0100200022014B1A60704718E000E010B5002304E0990000200B4A88500133D5
:400F8000042BF8D909490F20FFF776FE0120FFF7BDFF074B1869FA21890000F0C3FAFFF7ADFFFFF7DFFF10BD7C0100203D0F0000D400002010B5064B5B69002B04D1FFF75F
:400FC000D7FF0122024B5A61FFF78CFF10BDC0467C010020024A8300985899507047C0467C0100208000014BC05870477C010020034B1868C0231B02184000D001207047F7
:4010000000010B40034B1B68002B01DA012000E0002070470000224010B500F0BAF8044A1368C02109020B43136000F0B6F810BD00010B4010B500F0ACF808490A68084B50
:401040001A408024E40122430A600A6813408022120213430B6000F0A0F810BD00010B40FF3FFFFF70B5050000F093F80400FFF7BFFF002803D0FFF7DDFF012100E0002158
:4010800008482840084A1568084B2B40184310601368012901D1FFF7BFFF200000F07DF870BDC0460404040010020B40FBFBFBFF10B5244B1B685B0715D5234B5B685B074E
:4010C0000ED5224B596A042001401F4C62688A4362605A6A82435A629B69002B00D098470420FFF7BFFF174B1B685B0518D5164B5B685B0510D5154B596A8022D200114036
:40110000114842688A434260596A114A0A405A62DB69002B00D098478020C000FFF7A2FF084B1B685B030CD5074B5B685B0304D5064B1B6A002B00D098478020C002FFF79B
:4011400091FF10BD10020B40E800002094010020FFFBFFFF04490A68D2B210239A430001184010430860704700060440024B18680009012318407047040604400000000041
:401180000230800803D00138FDD1C046C046C0467047EFF3108072B6704780F31088704710B50820FFF748FD10BDC04610B500F021F910BD10B500F02FF910BD10B500F0C9
:4011C000A7F810BD10B5054A1368802109060B431360FFF7E5FFFFF7E9FF10BD0000244010B5064B1B78002B04D1FFF7E7FF0122024B1A70FFF7E6FF10BDC046BC01002090
:4012000010B50820FFF722FDFFF7D4FF054A13685B005B0813600022034B1A600820FFF71FFD10BD00002440880F2440094B1A68094B1B689A420BD0074B1B680133412BBF
:4012400000D10023054AD05CC0B2034A136000E00020704758020020D001002014020020074B1B68074A1268934203D3054A1068181A04E0034A10681B1A41331800704710
:4012800058020020D0010020144B1A68144B1B689A4208D1134B1B681F221340082B02D0114B186019E00D4B1A680132402A00D100220B4B1B689A42FBD002230B490B6036
:4012C000C0B20B49885405490A600A4A1268134203D1084A11680B4313607047CC010020C80100200802244040022440800F2440D4010020880F244070B506000D00002431
:4013000003E0305DFFF7C0FF0134AC42F9D370BD70B51F4A1F4B1A6000241F4B1C6001221E4B1A601E4B1F490B6007201E4908601E490C601E490A601E4A13601E4B1C6054
:4013400004251E4B1D600130FFF780FC03210820FFF7B4FC1A490820FFF79EFC194B1C60194B1C60194B1C60194B1C60194B1D60194B1C601A68194B1A80194B1C60194BA9
:401380001C60194B1C70194B1C60194B1C6070BD0C000002000024404000244048002440070000800003244004032440100324404400244000022440040224405000244016
:4013C00041140000880E2440C80E2440480F2440080F2440C80F2440880F2440C401002058020020D001002055020020CC010020C801002005490B68F0229343603A1343C2
:401400000B60034B1A88034B1A60704700010240C4010020880F2440064A1368F0218B431360054B1A68E423DB001340034A13807047C04600010240880F2440C4010020CB
:4014400010B5274B1B68002B00D09847254B1B685B071DD5244B1B680133412B00D10023224A1268934205D1214B1B682022214B1A7006E01E4A1268D2B21F49CA541A4A1D
:4014800013601E4B1B68DB06E4D104221C4B1A601C4B1B689B0721D51B4B1A681B4B1B689A4213D0194B1B680133402B00D10023174AD25CD2B217490A60144A1360164B95
:4014C0001B681F221340082BE6D104E0134A136802218B4313600222114B1A6010BDC046C0010020CC0F244058020020D001002040032440550200201402002008032440B0
:40150000C00F24408C0F2440CC010020C8010020D40100204002244008022440880F2440800F2440002243088B4274D303098B425FD3030A8B4244D3030B8B4228D3030C4A
:401540008B420DD3FF22090212BA030C8B4202D31212090265D0030B8B4219D300E0090AC30B8B4201D3CB03C01A5241830B8B4201D38B03C01A5241430B8B4201D34B03E6
:40158000C01A5241030B8B4201D30B03C01A5241C30A8B4201D3CB02C01A5241830A8B4201D38B02C01A5241430A8B4201D34B02C01A5241030A8B4201D30B02C01A5241F4
:4015C000CDD2C3098B4201D3CB01C01A524183098B4201D38B01C01A524143098B4201D34B01C01A524103098B4201D30B01C01A5241C3088B4201D3CB00C01A5241830885
:401600008B4201D38B00C01A524143088B4201D34B00C01A5241411A00D20146524110467047FFE701B5002000F006F802BDC0460029F7D076E770477047C046014B18685D
:401640007047C046500100200E4B70B500251E000D4CE41AA410A54204D0AB00F35898470135F8E700F08EF8084B00251E00084CE41AA410A54204D0AB00F35898470135F3
:40168000F8E770BD90170000901700009017000098170000002310B59A4203D0CC5CC4540133F9E710BD03008218934202D019700133FAE77047000080180000D3000000BE
:4016C0000000000000300F40000400400F400004460400008603000096030000A6030000B6030000C6030000D6030000F6030000E603000006040000160400002604000034
:401700003604000040060000600600003C080000AC0600004C0700003C0800005807000084070000AC060000A60700001E080000A111221100320101030405060708090A7A
:401740000B0C0E0F101112131415161718191B1C1D1E1F2021222325262728292A2B2E2F3031323334350000EEDBC9B9AA9B8E82766B60564D443B332C241D17100A044392
:4017800000000000F8B5C046F8BC08BC9E4670475D0100007D020000F8B5C046F8BC08BC9E46704735010000B8170000C8000020900000000801000000000000B81600006C
:4017C000BC160000010000000000C05D80BB000030000000006CDC02F000000004040400000000000000000000000000000000000000000000000000000000000000000048
:401800007F17000000000000000000000000000000000000000000000000000000000000000000000000000000000000000000000000000000000000000000000000000012
:40184000F000002000000000000000000000000000000000000000000000000000000000000000000000000000000000000000000000000000000000000000000000000058
:401880000010002091180000FD1D0000FD1D000010B5024B83F3088800F0D0FA0010002010B51222194B1A60302000F077FC184A184B1A60D0225202174B1A60174B18496B
:4018C000196018490A601849196018490A60184A1A6080221206174B1A608022D202164B1A604022154B1A600132154B1A600132144B1A601449072000F07CFB072000F0E5
:4019000053FB0022114B1A6010BDC046300010400600008004010B40000301400000014040FF00800403014041FF00800803014042FF008008010B4000010B4014010140E9
:401940001001014008010140F92300000C020B4010B572B600240FE033486200131959000B00411889881A5AC31858880004104300F03EFA0134E4B2012CEDD92A480100A0
:401980000C313C3000F00AFA9923284A13602849284A1160EE210902274A1160274A1360274A136099231B04264A1360264A13602649274A1160274A136027490B783C22AA
:4019C000934314221343DBB20B70244A117816230B43DBB213700A22214B1A60214A224B1A600223214A1360BE21214A11602149214A1160D8210901204A1160204A1360CC
:401A0000312220490A6020490B60C020C0011F4908601F490B601F490A601F4A1360FFF73FFF00F0D5F910BD843500000001024030330300000202400003024000050240C9
:401A40000007024010500F4020500F400000D20228500F4030500F4001700F4000700F40000104403104000008010440180104400002044090ED4000080204400803044002
:401A80000005044008050440180504400806044000070440080704401807044010B5064C2378002B07D1054B002B02D0044800E000BF0123237010BD5801002000000000EE
:401AC00028340000084B10B5002B03D00749084800E000BF07480368002B00D110BD064B002BFBD09847F9E7000000005C01002028340000C80000200000000010B513E033
:401B000000F07AFDC0B20B4B1B78002B02D10021094A1160084A1168064A5160FF2B03D0591C1170054AD05400F0EAFC0028E7D110BDC0467401002084010020E402002005
:401B400010B535E000F0C0FEC0B21C4B9B68002B02D100211A4A1160194A1168174A5160FE2B03D8591C9160164AD054134B9B68122B1DD113480022C254134900F0DCFFEB
:401B8000002806D008E0114B185D00F0C1FC013400E00024022CF6DD0D490A4800F0CCFF002802D10B4800F0A5FE0022034B9A6000F000FE0028C5D110BDC04674010020C5
:401BC00084010020E40100202C340000CC0000204034000054340000F0B5C1B062B600F0B5F800F05BFC050000E0250000F056FC04000300854206D0002804D10022334956
:401C00000A6033494A609D420DD0012B0BD12F4B1B682F4A52689B1AC93B2E4A934202D82D4800F089FD294B1B68294A52689B1A322B40D9264B00229A601B78002B3AD0B1
:401C40002648C254264D290000F080FF06002900002000F07BFF07002900002000F076FF0500002E07D032001E49684600F042FF684600F03FFE002D09D02B78002B06D060
:401C80002B003A001849684600F034FF0DE0002F08D03B78002B05D03A001449684600F029FF02E000236A461370684600F044FD0022074B1A70FFF721FFFFF741FF00F038
:401CC0002DF9002891D100F04BF88EE78401002074010020A20600007C340000E40200209C340000A0340000BC340000E834000010B50A4B1A6801321A605A68501C586015
:401D0000FA21890000F0B2FE002905D100F0F4F8C043C0B200F0E4F810BDC0468001002010B500F0EBFA00240AE0200000F0FEFA002804D10449200000F0F0FA02E00134C4
:401D4000042CF2D910BDC046F11C000010B5FFF7E7FF00F019FD00F079FC00F0BBFB10BD10B5094800F0C6FD084800F0C3FD084800F0C0FD074800F0BDFD074800F0BAFD54
:401D800000F0C2F810BDC046103500001C3500003C3500005835000074350000F0B50025002711E0BB00C658F3B2FF22964308E06A008A181478A419527822700135013B04
:401DC000DBB2002BF4D10137052FEBD9F0BDC0460323044A1360044A13600022034B1A607047C0463000304030003140000E3F4010B50A00002100F074FE10BD10B500F092
:401E00003BFE03680C2B00D1FEE7FEE710B50300084A1068C318084A9A1A802A02DC054A136005E000F028FE0C2303600120404210BDC046D0000020E803002070B50F4EEF
:401E40000F4D13E029686B68AC68002202E001C901C30432A242FAD1E868002202E0002102C304328242FAD11035013E002EE9D100F008FEFFF7B0FEFEE7C0460100000033
:401E80007836000010B5114A136801218B43136000230AE0032B03D89A000D49505800E00C4899000C4A885001332F2BF2D9FFF74FFD0A4B1B68002B02D10022074B1A606E
:401EC000024A116801230B43136010BD0000104080180000FD1D000000000020C000002004490A68D2B210239A430001184010430860704700060440024B18680009012307
:401F0000184070470406044010B54022024B1A6000F0A8F810BDC046C0000020024B1868C0090123184070470402044070B5040000F0F7FC0500102C05D8104A13680321DD
:401F40008B43136016E0202C07D80C490B6803229343023A13430B600CE0302C07D807490B6803229343013A13430B6002E0002000F02EF8280000F0D8FC70BD30001040AD
:401F8000024A1168024B0B401360704700002240FFFFFFBF034B18688023DB05184000D001207047000022401F2318401E3B8340014A13607047C04600E100E01F2318403D
:401FC0001E3B8340014A13607047C04680E100E001BE704770B504000D000F2802D90020FFF7F6FFA40080239B059C4664442068256070BD70B504000D001F2802D900201D
:40200000FFF7E6FF1034A40080239B059C4664442068256070BDC04670B504000E00032902D90020FFF7D4FF1F2C02D90020FFF7CFFF03252540ED00063500F072FCA408E0
:40204000A400074B9C46644421680323AB4099430B003100A9401943216000F066FC70BD00E400E0034A13681B041B0C02490B43136070470CED00E00400FA0510B50400AF
:4020800006E0084B586800F043FC074B9C46644480231B029C42F4D8024B9868604300F037FC10BDD40000200080FFFF30B583B000F04CF900285AD000F033FC040000237B
:4020C0000AE02C4A12683F210A402B49C95C8A4201D1033303E001332D2BF2D90323274A1268D20606D1254802681F218A4313390A430260224A1168224A0A402249594374
:402100008020C00184466144C90B01394905490D0A43A021490311430800192B02D81B4B1A430EE01A4A9A1812781A3B1249C9183023CB5CD318FF2B00D9FF239B0502003B
:402140001A430F4B1A60134D2B6801933020FFF7EDFE114A13688021C9050B4313601420FFF78CFF019B2B60200000F0DEFB03B030BDC0462CFF0B40D835000034FF0B4004
:402180000800224000F800C040420F000000D43FCDF1FF0F300010400000224030B587B0040000F0BEFB0500FFF7F4FE002803D0FFF7E6FE012100E00021104B1B6800938C
:4021C0000F4B1B680193033C0E4B1B5D02930E4B1B68039304AA0D4B04936B4605930C4B1A600C480C4A10601B68012901D1FFF75DFF280000F099FB07B030BD08010B4011
:4022000000010B40D835000030001040B6EA0000080010401700008004001040024A116802230B431360704710E000E010B5FFF7F5FF034A116801230B43136010BDC04683
:4022400010E000E00002000A014B18607047C04614E000E0012805D1054A116804230B43136004E0024A136804218B431360704710E000E0024B1868000C012318407047DA
:4022800010E000E010B5FFF7F5FF01280BD107E0A300054A9B58002B00D09847013400E00024042CF4D910BD880100200022014B1A60704718E000E010B5002304E099006C
:4022C00000200B4A88500133042BF8D909490F20FFF780FE0120FFF7BDFF074B1869FA21890000F03DFBFFF7ADFFFFF7DFFF10BD8801002085220000D400002010B5064B59
:402300005B69002B04D1FFF7D7FF0122024B5A61FFF78CFF10BDC04688010020024A8300985899507047C046880100208000014BC058704788010020034B1868C0231B02C5
:40234000184000D00120704700010B40034B1B68002B01DA012000E0002070470000224010B500F0DEFA044A1368C02109020B43136000F0DAFA10BD00010B4010B500F06B
:40238000D0FA08490A68084B1A408024E40122430A600A6813408022120213430B6000F0C4FA10BD00010B40FF3FFFFF70B5050000F0B7FA0400FFF7BFFF002803D0FFF7D8
:4023C000DDFF012100E0002108482840084A1568084B2B40184310601368012901D1FFF7BFFF200000F0A1FA70BDC0460404040010020B40FBFBFBFF10B5244B1B685B0753
:4024000015D5234B5B685B070ED5224B596A042001401F4C62688A4362605A6A82435A629B69002B00D098470420FFF7BFFF174B1B685B0518D5164B5B685B0510D5154BED
:40244000596A8022D2001140114842688A434260596A114A0A405A62DB69002B00D098478020C000FFF7A2FF084B1B685B030CD5074B5B685B0304D5064B1B6A002B00D0F7
:4024800098478020C002FFF791FF10BD10020B40E8000020A0010020FFFBFFFF024B1868C0080123184070470401044010B500F091F810BD10B500F039F810BD10B5044A88
:4024C0001368802109060B431360FFF7EFFF10BD0000274010B5064B1B78002B04D1FFF7E9FF0122024B1A70FFF7E8FF10BDC046C8010020014B18687047C046400327408B
:40250000024B1B681F2018407047C04608032740044B1B681F221340082BF9D0024B18607047C0460802274040022740154A164B1A600023154A13601549164A1160164A49
:4025400016490A6007201649086016490B6006381549086015490A60154A13600421154A1160154A1360154A1360154A1360154A1360154A1360154A13601268144B1A80E8
:402580007047C0460B000002000027404000274001000A00480027400700008000032740040327401003274044002740000227400402274050002740880E2740C80E27403E
:4025C000480F2740080F2740C80F2740880F2740CA01002005490B68F0229343603A13430B60034B1A88034B1A60704700070240CA010020880F274010B5FFF781FF002870
:4026000002D0FFF777FF00E00020054B1A68D8239B001A4203D01A00014B1A60002010BDC00F274010B500F075F810BD10B500F01DF810BD10B5044A1368802109060B43B0
:402640001360FFF7EFFF10BD0000264010B5064B1B78002B04D1FFF7E9FF0122024B1A70FFF7E8FF10BDC046CC010020154A164B1A600023154A13601549164A1160164AF4
:4026800016490A6007201649086016490B6006381549086015490A60154A13600421154A1160154A1360154A1360154A1360154A1360154A1360154A13601268144B1A80A7
:4026C0007047C0460B000002000026404000264001000A00480026400700008000032640040326401003264044002640000226400402264050002640880E2640C80E264009
:40270000480F2640080F2640C80F2640880F2640CE01002005490B68F0229343603A13430B60034B1A88034B1A60704700050240CE010020880F264070B50500002402E060
:4027400000F0F6F80134285D0028F9D170BDC04610B50820FFF728FC10BDC04610B500F0A1F810BD10B500F03BF810BD10B5054A1368802109060B431360FFF7E9FFFFF71E
:40278000EDFF10BD0000244010B5064B1B78002B04D1FFF7E7FF0122024B1A70FFF7E6FF10BDC046D0010020014B18687047C04640032440024B1B681F2018407047C0468A
:4027C00008032440044B1B681F221340082BF9D0024B18607047C046080224404002244010B51B4A1B4B1A6000241B4B1C601B4A1B4B1A601B4B1C4A136007211B4A1160E0
:402800001B4A146006391B4A11601B4A13601B4B1C6004221A4B1A600820FFF7CFFB03210820FFF7F9FB17490820FFF7E3FB164B1C60164B1C60164B1C60164B1C60164B9C
:402840001C60164B1C601A68154B1A8010BDC0460B000002000024404000244001000A0048002440070000800003244004032440100324404400244000022440040224409C
:40288000500024404D290000880E2440C80E2440480F2440080F2440C80F2440880F2440D801002005490B68F0229343603A13430B60034B1A88034B1A607047000102409F
:4028C000D8010020880F244010B5FFF773FF002802D0FFF769FF00E00020054B1A68D8239B001A4203D01A00014B1A60002010BDC00F244070B50500002402E0FFF762FF41
:402900000134285D0028F9D170BDC046000000000230800803D00138FDD1C046C046C0467047EFF3108072B6704780F310887047044B1B681F221340082BF9D0024B186021
:402940007047C046080226404002264010B5034B1B68002B00D0984710BDC046D4010020002243088B4274D303098B425FD3030A8B4244D3030B8B4228D3030C8B420DD33B
:40298000FF22090212BA030C8B4202D31212090265D0030B8B4219D300E0090AC30B8B4201D3CB03C01A5241830B8B4201D38B03C01A5241430B8B4201D34B03C01A5241D2
:4029C000030B8B4201D30B03C01A5241C30A8B4201D3CB02C01A5241830A8B4201D38B02C01A5241430A8B4201D34B02C01A5241030A8B4201D30B02C01A5241CDD2C309A2
:402A00008B4201D3CB01C01A524183098B4201D38B01C01A524143098B4201D34B01C01A524103098B4201D30B01C01A5241C3088B4201D3CB00C01A524183088B4201D3FA
:402A40008B00C01A524143088B4201D34B00C01A5241411A00D20146524110467047FFE701B5002000F006F802BDC0460029F7D076E770477047C046014B18687047C046ED
:402A8000500100200E4B70B500251E000D4CE41AA410A54204D0AB00F35898470135F8E700F0D8FD084B00251E00084CE41AA410A54204D0AB00F35898470135F8E770BD01
:402AC00060360000603600006036000068360000002310B59A4203D0CC5CC4540133F9E710BD03008218934202D019700133FAE7704700000EB410B59DB002A902900861AB
:402B00000B48822488604861012040421FABC881084804CBA400006801938C8100F090F90023029A13701DB010BC08BC03B01847FFFFFF7F5001002002780B78002A03D078
:402B4000013001319A42F7D0D01A7047F8B5174B06001D680F00AC6D002C1FD1502000F057F8A8658460AB6D046044601C61DC60AB6D9C615C61AB6DDC629C62AB6D5C635A
:402B80001C63AB6DDC639C63AB6D5C641C64AB6DDC649C64AB6D1C77AB6D5C62AA6D39003000012300F004F8F8BDC04650010020F0B5041E0CD11468201E09D126E0377866
:402BC000002F0CD00136B842F9D1002B04D02C00651C20780E00F2E71560237015E0002808D1106012E00778BE4207D00130002FF9D11D006B1C2E780800F4E7002E02D097
:402C00000021297000E0330013602000F0BD000010B5034B0100186800F050F810BDC0465001002070B50500002944D00C1F2368002B00DAE418280000F0C2FB1E4A1368A1
:402C40001100002B02D16360146031E0A3420DD92268A018834203D118685B688218226063600C6024E0A24203D813005A68002AF9D11E689819A0420BD1216871185818C6
:402C80001960824214D110685268411819605A600EE0A04202D90C232B6009E021686018824203D1106852684118216062605C60280000F086FB70BDE0010020032370B5B1
:402CC000CD1C9D43083506000C2D01D20C2501E0002D01DBA94202D90C23336048E0300000F06EFB234B1C681A002100002913D00B685B1B0DD40B2B02D90B60CC181EE007
:402D00008C4202D1636813601AE04B6863600C0016E00C004968E9E7174C2368002B03D1300000F01BFB20602900300000F016FB431C18D00323C41C9C43A0420DD1256047
:402D4000300000F03EFB200007220B30231D9043C31A0ED05A42E2500BE0211A300000F0FDFA431CEBD10C233000336000F029FB002070BDE0010020DC010020F0B58E6896
:402D800085B007000C00039201939E4243D890238A89DB001A423ED003250969236801985B1A029363695D43EB0F5D19029B6D1001331B18AB4200D91D00530510D529002E
:402DC0003800FFF77BFF061E14D0029A2169FFF77FFEA289194B134080221343A38112E02A00380000F0EEFA061E0CD121693800FFF718FF0C23402201203B60A389404295
:402E00001343A38117E0029B2661F61826606561019EED1AA560019BB34200D21E0032000399206800F0B7FA0020A3689B1BA36023689E19266005B0F0BDC0467FFBFFFFF4
:402E4000F0B59FB0029005938B890F0016001B0610D50B69002B0DD14021FFF72FFF38603861002804D10C23029A01381360D8E040237B61002306AD6B6120336B7610333E
:402E8000AB7634002378002B03D1A31B049312D003E0252BF9D00134F4E7A31B320039000298FFF76BFF431C00D1B4E06A69049B944663446B612378002B00D1ABE00122F5
:402EC000002352426A6002A95432521801342B60EB60AB601370AB65534E21780522300000F04EFA002807D00123801B83402A68013413432B60EFE72B68DA0604D5532284
:402F0000202102A8121811701A0704D553222B2102A81218117022782A2A03D0099B00200A210EE0059A111D12680591002A01DB099204E05242EA60022213432B600134D3
:402F40000BE02278303A092A04D84B4301349B180120F6E7002800D0099323782E2B1ED163782A2B0AD1059B02341A1D1B680592002B01DA01235B42079310E000230A2098
:402F80001A0001346B6021783039092904D84243013452180123F6E7002B00D00792234E21780322300000F0EBF9002806D04023801B83402A68013413432B6021780622D3
:402FC0001B48661C297600F0DBF9002812D0194B002B06D10722059B073393430833059314E005AB00933A00134B2900029800E000BF07E005AB00933A000F4B29000298BB
:4030000000F08AF80390039B013304D06B69039A9B186B6135E7BB890B985B0601D5012040421FB0F0BDC04621360000273600002B360000000000007D2D0000F7B5170014
:4030400001938A680B6900900C00934200DA130022003B6043321278002A01D001333B6023689B0602D53B6802333B60062523681D401ED0230043331B785A1E93412268F9
:4030800092061CD53020E1184331087021005A1C45310978A2184332023311700FE022000123193201990098089EB047431C0ED00135E3683A689B1A9D42F0DBDAE72200EE
:4030C000019943320098089DA847431C02D10120404220E006232068E1683A6803400025042B03D18D1AEB43DB171D40A3682269934201DD9B1AED180027BD420AD0220070
:4031000001231A3201990098089EB047431CDED00137F2E70020FEBDF0B58BB006920A0043320793059004920A7E0C00109B6E2A00D1ABE011D8632A22D009D8002A00D124
:40314000B5E0582A00D0C5E045310A70814A4FE0642A1DD0692A1BD0BCE0732A00D1AAE009D86F2A29D0702A00D0B3E0202209680A43226037E0752A1FD0782A33D0A9E087
:403180000E001A684236111D196013683370A4E021681A68080606D4490604D5111D19600023D55E02E0111D19601568002D3BDA2D23049A6D42137036E021681A6808060F
:4031C00006D4490604D51568111D1960ADB202E0111D196015685F4B227E039308276F2A1DD00A271BE022007821453211705A4A19680392081D226818600D68100602D48E
:40320000500600D5ADB2D30702D520231A4322601027002D03D1202322689A4322602300002243331A7002E00A274A4B03936368A360002B09DB0422216891432160002D3C
:4032400005D1049E002B11D07BE0002D79D0049E28003900FFF70AFC039B013E5B5C280033703900FFF77CFB051EF1D1082F09D12368DB0706D563682269934202DC30235B
:40328000013E3370049B9B1B23612BE009681A68080607D4490605D5111D19601368A28A1A8004E0111D1960136862691A600023049E236116E01A68111D19601668002109
:4032C0006268300000F05CF8002801D0801B6060636803E0260042363270012323610023049A1370079B09AA00932100069B0598FFF7A4FE431C02D10120404227E023691B
:40330000320006990598079DA847431CF4D0236800259B070FD4099BE068984217DA180015E022000123193206990598079EB047431CE1D00135E368099A9B1A9D42F0DB74
:40334000E9E72600039B42361B7833708EE70BB0F0BDC0463236000043360000002370B5064C050008002360FEF750FD431C03D12368002B00D02B6070BDC046E40300205D
:40338000C9B28218904204D003788B4202D00130F8E70020704710B5884202D98B18984201D3002305E09B1A013A08D3995C8154FAE7934203D0CC5CC4540133F9E710BD4F
:4033C00070477047F8B506000C001500002904D11100FFF773FC040018E0002A03D1FFF721FC2C0012E000F013F885420ED929003000FFF763FC071E07D021002A00FFF758
:4034000067FB21003000FFF70DFC3C002000F8BD0B1F1A68101F002A04DA891804390B68D01804387047000000000000242424242339393930303033353B25252525000095
:40344000242424242339393930303330343B252525250000404040402139393930303330343B267B464D3130302D4D2D527C44443033414239357D5E5E5E5E007B22636DB2
:403480006422203A2022636F756E74222C202276616C756522203A20317D00002F0D0A00404040402139393930303033353B5E5E5E5E2A5025732A0D0A0000007B22636D4D
:4034C0006422203A2022626172636F6465222C202276616C756522203A205B222573222C222573225D7D00007B22636D6422203A2022626172636F6465222C202276616C46
:40350000756522203A205B222573225D7D0000004D61722020342032303236000D0A43757272656E74206669726D776172652056657273696F6E2069732000005343414EC8
:403540004E45525F534D414C4C5F424F4152445F323032365F5631000D0A4669726D7761726520557067726164652052656164790000000028313135323030627073292E7A
:403580000000000000300F40000400400F400004701E5B045F016898720288108E02AC08B480E80252105482600888808C08D406D604D802E002E401AE10B402EC02000047
:4035C00001000F4002300F4004310F4003330F400A420F4003430F40030405060708090A0B0C0E0F101112131415161718191B1C1D1E1F2021222325262728292A2B2E2F00
:403600003031323334350000EEDBC9B9AA9B8E82766B60564D443B332C241D17100A044300232D302B2000686C4C006566674546470030313233343536373839414243443A
:403640004546003031323334353637383961626364656600F8B5C046F8BC08BC9E467047C51A0000851E0000F8B5C046F8BC08BC9E4670479D1A000088360000C8000020F2
:4036800090000000900200000000000002F40300E8030020010000000000C05D80BB000030000000006CDC02F0000000040404000000000000000000000000000000000015
:4036C000000000000000000000000000000000001F360000000000000000000000000000000000000000000000000000000000000000000000000000000000000000000075
:4037000000000000000000000000000000000000F0000020000000000000000000000000000000000000000000000000000000000000000000000000000000000000000079
:403740000000000000000000000000000000000000000000000000000000000000000000000000000000000000000000000000000000000000000000000000000000000049
:403780000000000000000000000000000000000000000000000000000000000000000000000000000000000000000000000000000000000000000000000000000000000009
:4037C00000000000000000000000000000000000000000000000000000000000000000000000000000000000000000000000000000000000000000000000000000000000C9
:403800000000000000000000000000000000000000000000000000000000000000000000000000000000000000000000000000000000000000000000000000000000000088
:407FC000C69118000030000000001F0000000000000000000000000000000000000000000000000000000000000000000000000000000000000000000000000000000000C3
:0200000490303A
:02000000EBDF34
:0200000490402A
:200000000000000000000000000000000000000000000000000000000000000000000000E0
:0200000490501A
:0C0000000002112211A100001132FD804D
:0200000490600A
:0100000001FE
:00000001FF