:400000000080002011000000390300003903000010B500F0DBFA00F097F9C04670B51222164B1A6001F0D4F9154801F03DFB302001F052F800F0C4FF124A134B1A60134C3E
:400040008025ED05256080229200114B1A60114A114B1A6080221206104B1A608022D2020F4B1A6040220F4B1A600F49082000F04BFF082000F022FF256070BD30001040F5
:40008000001BB7000600008004010B400C020B400003014040FF00800000014008010B4000010B404C010140BD14000070B572B601223C4B1A7000240FE03B486200131957
:4000C00059000B00411889881A5AC31858880004104300F027F90134E4B2022CEDD9002411E0314EA2001319590071188D8AC88A000428430A8B498B09041143802200F065
:4001000017F90134E4B2002CEBD0274920312748043000F0DDF880225200254B1A800123244A13702449254A1160002224490A6024490A609922120423490A602348244925
:400140000860802000032349086023482349086023490A60234A136023490B783C22934314221343DBB20B70204A117816230B43DBB2137030221E4B1A602D3A1D4B1A60EC
:40018000013A1D4B1A60C02252031C4B1A6077221B4B1A601B4A1C4B1A60FFF73FFF00F0B1F870BD1C700F405C2E00005C30000000600F4002600F40030333000002024083
:4001C000000302400803044010500F400400990020500F4024500F400000470728500F4040500F402000104001700F4000700F4008000440000D04400C0D04400801044073
:40020000000204408E611B000802044010B5064C2378002B07D1054B002B02D0044800E000BF0123237010BD5801002000000000582E0000084B10B5002B03D007490848FA
:4002400000E000BF07480368002B00D110BD064B002BFBD09847F9E7000000005C010020582E0000C80000200000000010B5084B1A68501C1860642102F0A6FD002905D1D4
:4002800001F07AF9C043C0B201F06AF910BDC0467401002010B501F071F800240AE0200001F084F8002804D10449200001F076F802E00134042CF2D910BDC0466D020000D2
:4002C00010B562B6FFF7E6FF00F0F4FBFEE7C046F0B50025002711E0BB00C658F3B2FF22964308E06A008A181478A419527822700135013BDBB2002BF4D101370A2FEBD965
:40030000F0BDC0460323044A1360044A13600022034B1A607047C0463000304030003140000E3F4010B50A00002102F088FD10BD10B502F07BFD10BD10B502F04BFD036853
:400340000C2B00D1FEE7FEE770B50F4E0F4D13E029686B68AC68002202E001C901C30432A242FAD1E868002202E0002102C304328242FAD11035013E002EE9D102F030FD61
:40038000FFF79EFFFEE7C04601000000CC33000010B5114A136801218B43136000230AE0032B03D89A000D49505800E00C4899000C4A885001332F2BF2D9FFF777FE0A4BFF
:4003C0001B68002B02D10022074B1A60024A116801230B43136010BD00001040000000003903000000000020C0000020002306E04218013A12789B189BB2013989B20029C5
:40040000F6D1584280B270470047C04610B58022024B1A6000F0B0FD10BDC046C0000020F0B583B00D006B469E1DDA8001230B7048701400AA70130ACB70171DB9B2280058
:40044000FFF7D4FFE855631D000AE854A31D1722EA540734A1B296233200280001F0AAF803B0F0BD70B505000E001400002802D0002000F037FD002005E0013CAB19E3185A
:400480001B781818C0B2002CF7D170BD10B50C2863D88000404B1B589F460B06591A0B023E4A9446634401225CE00B06591A0B023B4A94466344042254E00B06591A0B02D4
:4004C000384A9446634402224CE00B06591A0B02354A94466344042244E00B06591A0B02324A9446634401223CE00B06591A0B022F4A94466344012234E00B06591A0B02AE
:400500002C4A9446634402222CE00B06591A0B02294A94466344022224E00B06591A0B02264A9446634402221CE00B06591A0B02234A94466344042214E00B06591A0B021B
:40054000204A9446634401220CE00B06591A0B021D4A94466344042204E0002000F0C2FC02220023012A02D11878C0B200E00020022A03D11978587800020843042A09D133
:400580001A785878000210439A7812041043DB781B06184310BDC0460C310000C0FF0300C1FF0300C5FF0300C9FF0300D0FF0300D1FF0300D6FF0300D2FF0300D4FF0300EC
:4005C000D8FF0300DCFF0300E0FF030010B50D4B1B68DB0602D400220B4B1A600A4B1B68802B0ED10022084B1A6000210220FFF74DFF002805D000210220FFF747FFFFF7D0
:4006000003FF10BD00030B40C000002070B5050001000320FFF73AFF441C240229000420FFF734FF241829000320FFF72FFF421C12020023002608E01078411EC9B2FD296D
:4006400000D801261B18DBB20132A242F4D35B42DCB229000120FFF719FF844203D1002E03D1062002E0062000E0002070BDC046F0B55F4656464D464446F0B4BA4CA544C7
:40068000050000F081FF62B600239A4600270A249946002D01D1FF2300E02B00B34A02A98C4662449621490052A800F0A7FF002D01D0013CE4B2002C01D00028E9D10028C2
:4006C00000D0E5E1A94B02AA944663441B88062B24D952AA1278012A22D152A9CA78120289780A439146110007329A421AD896235B009A4218D84A1D52AB9E5C3202081DA9
:400700001E5C164306315B5C172B0FD181B252A8FFF76CFE86420BD100260AE0042608E0042606E0032604E0032602E0042600E00826002E00D055E152AB1A7993465A78B4
:400740001300313BD9B20A2900D91BE18B008849CB589F46012F00D046E14B46002B00D045E10020FFF752FF4342434152AA1371012286E1012F00D03CE14B46012B00D006
:400780003BE15B46002B00D03AE17A4B1B681B689A0CD2B2934503D11B0A9B059B0D05E0934501D9002301E08023DB0052AA13711B0A5371FF239371FC3BD371042260E1CE
:4007C000342A0ED1012F00D01DE14B46032B00D01CE1CC32002107A802F031FB80235B009A46012F00D014E14B46022B00D813E107A85044DA1E4821FF3102AB9C466144E1
:4008000002F014FB4B4653449BB20422FF32934200D004E152AA93791B02527913439A46554B9A4500D90A26002E00D0FFE05B46980280B2504480B24E4B1B681A68130AE8
:400840009BB2FF21114201D001339BB2834200D9F2E007A900F06AF9002800D1F4E000239A460133FF3399460A26002209E1012F00D10BE10426002203E1012F00D0EAE0BB
:400880004B46534496225200934200D9E6E007A850444A4653A902F0C9FA53464B449BB29A460022EDE04B46002B00D0D9E004AA324B03CB03C253AA04AB03CB03C2002365
:4008C0009A4601270822DCE0012F00D0CCE04B46032B00D0CBE052AA93791B025279134398465B46990241440902234B984500D90A26002E00D0BDE0802252000020FFF73B
:40090000B1FD030001905A46920292B2424492B25946002913D118498A4210D100210520FFF7B4FDC0B2019B1B1ADBB2984600210620FFF7ABFDC3B24246D31ADBB25B42E5
:4009400052AA137101229CE00020FFF75FFE002802D180220A4B1A6000F022FE00F00CFB042600228DE0C04684FDFFFF6E02000040310000CC000020FF0300006C310000C8
:40098000C00000204A4B1E68002E75D0012F76D102AB1A704A465A8053AB03930C22002104A802F04CFA04AB9B4653AA0692190002A8B0475B469A882623FF339A4203D915
:4009C00053AB0699994207D0069B002B01D1002A05D1049BDEB254E00E26002251E00E2600224EE000224CE00426002249E00426002246E00426002243E00426002240E08C
:400A0000042600223DE0042600223AE00426002237E00426002234E00426002231E000239A460133FF3399460326002229E080235B009946002224E000239A460133FF33BF
:400A400099460A2600221CE000239A460133FF339946002215E00426002212E0032600220FE0042600220CE00426002209E00426002206E0002204E00526002201E0052674
:400A8000002252A93000FFF7CBFC01E000239A46002D00D1FDE5012F00D1FAE59F239B009D443CBC90469946A246AB46F0BDC0467801002070B50020FFF7A8FD002801D09F
:400AC000062400E00024154D2B681A68C03AC0210020FFF7C7FC6B681B78C01AC0B24042C0B2834204D10D4B1B681B68002B02D1002000F0F7F90A4B1B68402B01D0002CC1
:400B000005D00022064B1A600020FFF7B1FD0A20FFF7AEFDFFF77AFC70BDC046CC000020C0000020002070470020704730B5C5B004000023439342933D4B984272D800294A
:400B400070D08022520002A802F070F9394B9C4201D9394B00E0394B0093FF230193384B6A461A603749384A1160C0461B681B0F1B07F0221206934204D1314B1B68FF22E6
:400B800013400DE02E4B1B681B0F1B07A0221206934204D02A4B1B68FF22134000E000234393439B002B3FD100F087FD0500FFF7B9FF4290439B002B25D1244A0092009A3A
:400BC0002404144300941E4A6946116020481E490860C0461268120F1207F02109068A4204D1174B1B68FF2213400BE0144A1268120F1207A02109068A4203D0104B1B6805
:400C0000FF2213404393429B002B07D1FFF78CFF4290429B002B01D0429B4393280000F050FD01E004234393439845B030BDC046FF030000FF010000B6D70001B6D7000088
:400C4000080010400400008004001040B6D800000500008070B5040000F02FFD0500102C05D8104A136803218B43136016E0202C07D80C490B6803229343023A13430B60B3
:400C80000CE0302C07D807490B6803229343013A13430B6002E0002000F024F9280000F010FD70BD30001040074B1B78272B05D8064B1B78DBB2064A136004E0054B1B7863
:400CC000DBB2034A1360704702F3FF0F42F3FF0F20FF0B40C1F1FF0F00230AE0204A12683F210A401F49C95C8A4201D1033303E001332D2BF2D903231B4A12781B2A16D802
:400D0000302B05D1194B1B78DBB2194A136006E0182B04D1174B1B78DBB2154A136016490B681F229343173A13430B6016E0302B05D1124B1B78DBB20D4A136006E0182B44
:400D400004D10F4B1B78DBB2094A13600A4A13681F218B430B4909780B4313607047C0462CFF0B407431000002F3FF0F3FF3FF0F28FF0B403EF3FF0F34FF0B40C3F1FF0FDF
:400D8000C2F1FF0FC0F1FF0F00230AE00D4A12683F210A400C49C95C8A4201D1033303E001332D2BF2D9032308490868084A02400A60084A944663441B78DBB2064A136008
:400DC0007047C0462CFF0B407431000000002240FFFFFFBF4DF3FF0F28FF0B40034B18688023DB05184000D0012070470000224010B50B4A136801218B431360094B1A68BC
:400E0000094B1A60094A12685A60FFF765FFFFF74BFF074A116802230B43136010BDC04650000C4034FF0B407C01002020FF0B4024002C4030B500230AE0134A12683F2166
:400E40000A401249C95C8A4201D1033303E001332D2BF2D903230E490A68022082430A600C4C21681F2291430B4805682A400A4322604168094A1160094A944663441B7897
:400E8000DBB2084A136030BD2CFF0B407431000024002C4034FF0B407C01002020FF0B404DF3FF0F28FF0B40034B1B680220184000D001207047C04624002C401F231840E0
:400EC0001E3B8340014A13607047C04600E100E01F2318401E3B8340014A13607047C04680E100E001BE704770B504000D000F2802D90020FFF7F6FFA40080239B059C4696
:400F000064442068256070BD70B504000D001F2802D90020FFF7E6FF1034A40080239B059C4664442068256070BDC04670B504000E00032902D90020FFF7D4FF1F2C02D93A
:400F40000020FFF7CFFF03252540ED00063500F0B4FBA408A400074B9C46644421680323AB4099430B003100A9401943216000F0A8FB70BD00E400E0034A13681B041B0C03
:400F800002490B43136070470CED00E00400FA0510B5040006E0084B586800F085FB074B9C46644480231B029C42F4D8024B9868604300F079FB10BDD40000200080FFFF87
:400FC00070B582B000F024FA002862D000F075FB0500314A116801230B43136000230AE02E4A12683F210A402D49C95C8A4201D1033303E001332D2BF2D903230021294AE8
:401000001160294A1268D20606D1274802681F318A4313390A430260244C2168244A1140244A5A438023DB019C466244D20B013A5205520D0B001343A022520313432360C9
:401040001D4B1B6801933020FFF704FE1B4A13688021C9050B4313602668194B1E40002407E00120FFF794FF1034A30533430F4A1360EE2CF5D90120FFF78AFFFF239B051C
:401080001E430A4B1E60019A0B4B1A60280000F018FB02B070BDC04650000C402CFF0B407431000028FF0B4034FF0B400800224000F800C040420F00300010400000224045
:4010C000FFFF3FC010B5034B1B7B584300F0ECFA10BDC046D4000020F0B55F4656464D464446F0B483B0040000F0E7FA0190FFF775FE002804D0FFF747FE01239A4601E04D
:4011000000239A46FFF7D0FE002808D0182C01D0302C07D1FFF78EFE01239B4604E000239B4601E000239B46E61E2D2E74D8464B1B78DBB29C4208D8444B1B78DBB29946A3
:40114000434B1B78DBB2984631E0424B1B78DBB29C4208D8404B1B78DBB299463F4B1B78DBB2984623E03E4B1B78DBB29C4208D83C4B1B78DBB299463B4B1B78DBB29846E1
:4011800015E03A4B1B78DBB29C4208D8384B1B78DBB29946374B1B78DBB2984607E0364B1B78DBB29946354B1B78DBB29846344B9F5D2F2F09D92A2C07D91922314B1A60CE
:4011C000052000F071FA192503E02E4B1D683F231D40BD4206D92A4B9A5D2A4B1A60052000F062FA254B9C4664442378DBB2264A1360264B4A461A60254B42461A600520D0
:40120000FFF760FFBD420AD21D4B9A5D1D4B1A60052000F049FA02E00020FFF763FE5346012B01D1FFF7CCFE5B46012B01D1FFF7DFFD019800F045FA03B03CBC904699469C
:40124000A246AB46F0BDC04640F3FF0F41F3FF0F42F3FF0F43F3FF0F44F3FF0F45F3FF0F46F3FF0F47F3FF0F48F3FF0F49F3FF0F4AF3FF0F4BF3FF0F4CF3FF0F4DF3FF0FF9
:40128000743100002CFF0B4028FF0B401CFF0B4020FF0B40024A116802230B431360704710E000E010B5FFF7F5FF034A116801230B43136010BDC04610E000E00002000A96
:4012C000014B18607047C04614E000E0012805D1054A116804230B43136004E0024A136804218B431360704710E000E0024B1868000C01231840704710E000E010B5FFF7BB
:40130000F5FF01280CD108E0A300064AD3189B68002B00D09847013400E00024042CF3D910BDC0467C0100200022014B1A60704718E000E010B5002305E09A000C498A1896
:40134000002191600133042BF7D90A490F20FFF7CBFD0120FFF7BAFF074B1869FA21890001F0ACFCFFF7AAFFFFF7DEFF10BDC0467C010020FD120000D400002010B5064B0D
:40138000DB69002B04D1FFF7D5FF0122024BDA61FFF788FF10BDC0467C0100208000024B1B189868996070477C0100208000024B181880687047C0467C010020034B18682D
:4013C000C0231B02184000D00120704700010B4010B50D4B1A6801218A431A601A68022082431A60094A10683024A043203C204310601068093CA043014311601A6880210D
:4014000009060A431A6010BD00002240000F2240034B1B68002B01DA012000E0002070470000224010B500F048F9044A1368C02109020B43136000F044F910BD00010B4073
:4014400010B500F03AF908490A68084B1A408024E40122430A600A6813408022120213430B6000F02EF910BD00010B40FF3FFFFF70B5050000F021F90400FFF79FFF002820
:4014800003D0FFF7DDFF012100E0002108482840084A1568084B2B40184310601368012901D1FFF7BFFF200000F00BF970BDC0460404040010020B40FBFBFBFF10B5244B55
:4014C0001B685B0715D5234B5B685B070ED5224B596A042001401F4C62688A4362605A6A82435A629B69002B00D098470420FFF7BFFF174B1B685B0518D5164B5B685B059D
:4015000010D5154B596A8022D2001140114842688A434260596A114A0A405A62DB69002B00D098478020C000FFF7A2FF084B1B685B030CD5074B5B685B0304D5064B1B6AFC
:40154000002B00D098478020C002FFF791FF10BD10020B40E80000209C010020FFFBFFFF04490A68D2B202239A434000184010430860704700000440024B186840080123F6
:40158000184070470400044010B562B60221002000F06AF90122014B1A7010BDC401002010B500F0A9F910BD10B5012000F068FA10BDC04670B50E0015009A009B185C0096
:4015C000A4B240220100022000F00CFA04E00120FFF7DEFC013CA4B2022000F0DFF9002801D1002CF3D1022000F0D8F9002802D02E80002000E0102070BDC046F0B583B018
:4016000001900F0016009A009B185C00A4B2402900D94027224B1B78002B06D118E00120FFF7B6FC013DADB200E0250000F0A2F9002801D1002DF2D100F09CF9002817D0DE
:4016400000F09EF9FFF7B0FF0022154B1A700FE000F096F900280BD000F08CF9002807D0FFF7A2FF04E00120FFF792FC013CA4B2012000F093F9012801D0002CF3D10120F2
:4016800000F08CF9012806D13A00019900F010FA3080002002E000233380102003B0F0BDC4010020000000000230800803D00138FDD1C046C046C0467047EFF3108072B6F3
:4016C000704780F31088704710B50122244B1A60244A136820218B4313600A22224B1A60224C234B23602368224A1343236023680422934323600220FFF7E4FC236808223C
:4017000093432360FFF7D0FB002800D002201A4B18601A4A1A4B1A6007221A4B1A6003211E20FFF703FC18491E20FFF7EDFB03211F20FFF7FBFB15491F20FFF7E5FB032193
:401740000020FFF7F3FB12490020FFF7DDFB03210520FFF7EBFB0F490520FFF7D5FB10BD74022C4048002C4030032C4000202C40010000040C0000B824002C401A000500AE
:4017800030202C4028202C4025200000A5200000652000008D23000010B50C00002304E00121234AD1540133DBB2002BF8D0214B18700023204A1370204A1370204A13705C
:4017C000204A1370204A1370204A1370204A13701E20FFF773FB0020FFF770FB1F20FFF76DFB002C02D0012C06D00BE0194A136801218B4313600AE0164A116801230B4313
:40180000136004E0134A116801230B43136011490B68042293430B6000210F4B196001310E4B19607F310E4B19600E4B1A6010BD6C020020E0010020E6010020E4010020AD
:40184000E5010020E1010020CC010020E30100205C02002024002C40A4002C40A0002C4020002C4048002C4070B504000D00074B1B78002B04D1FFF727FF0122034B1A70D3
:4018800029002000FFF788FF70BDC046C5010020002304E001210E4AD1540133DBB2002BF8D000230B4A13700B4A13700B4A13700B4A13700B4A13700B4A13700B4A1370E4
:4018C00001220B4B1A607F320A4B1A607047C0466C020020E6010020E4010020E5010020E1010020CC010020E30100205C020020A0002C4020002C4010B5FFF7DEFE144A1A
:40190000136880218B431360124A13687C398B431360114A13685B005B081360FFF7D1FE1E20FFF7D5FA1F20FFF7D2FA0020FFF7CFFA0023094A1370094A1370094A137029
:40194000094A1370094A1370094A137010BDC04620002C4048002C4000202C40E4010020E5010020E1010020CC010020E3010020C5010020014B1878C0B27047E501002057
:40198000054B1B78002B05D0034B1878C0B200221A7000E000207047E4010020430018188300024AD3185878C0B27047F0010020431EDBB2072B10D88301094A985880B254
:4019C0000002F02212011040054A944663445B68184380B2023880B200E000207047C046F0FF2B40F0B5431EDBB2072B41D8060044002418A3001F4CE318DC8880239B00BE
:401A00001B1B9A4209D9420012189300194AD318DA8880239B009A1A92B2130A45002D18AC00144D2C19E4781C438301124D5C51D4B2AC4663445C60002909D10BE0CD5C97
:401A4000B4010E4FBC466444256201339BB200E000239A42F3D8420012189300054AD31800225A705B79DBB28001034A944660448360F0BDF0010020F0FF2B40C0012C40FE
:401A8000431EDBB2072B0DD8420012189300064AD31800225A705B79DBB28001034A9446604483607047C046F0010020F0FF2B4070B505000E00140000291BD000281BD0D0
:401AC00008281BD8FFF774FFA04203D22800FFF76FFF0400002307E0AA010A498C466244126AF25401339BB2A342F5D32800FFF7C7FF04E0002402E0002400E0002420008D
:401B000070BDC046C0012C4010B51F4B1B781F4A1188CB189BB2138000210EE01C4B5A681278D2B28C001B4822505A6801325A6001311A88013A92B21A80154B1B889BB22B
:401B4000002B01D00729E9D90F4B1B78082B01D000290DD0104A107880235B424340DBB213700F220D4B1A700D3A0D4B1A7004E002230A4A13700A4A1370C9B2094B197080
:401B8000014B197010BDC0465C02002062020020D401002000002C40E2010020CD010020E60100205D0200200222074B1A707E32064B1A70713A064B1A700023054A13709D
:401BC000054A137001207047E6010020E2010020CD0100205C0200205D02002010B5FFF793FF10BD30B5194B1B680F2119400239174A1088FF230B40C3189BB2138000205B
:401C00000FE0144B5C688500134AAA58D2B222705A6801325A60013001391A88013A92B21A800C4B1B889BB2002B01D00029E8D1C9B20A4B19700A4A117880235B424B409D
:401C4000DBB213700B22074B1A7030BDA4002C4062020020D401002000002C405D020020E2010020CD0100200623064A1370064A13708022054B1A700022054B1A70012091
:401C80007047C046E6010020CD010020E20100205D020020064B9B68002B08D0044B9A6810709A6803490988518000229A607047D40100206202002010B5144B1A68FF2106
:401CC0000A401A601B68DAB21B0602D5104B1A701BE00220FFF7DEFF0E4B1B6860221340202B06D0402B07D0002B08D100F008FE06E000F0B3FF03E000F08CFF00E0002050
:401D0000002802D10322024B1A7010BDA0002C40CD01002000002C4010B5084B1B78084A1188CB189BB213800022064B1A700120FFF7B0FF0322044B1A7010BD5C02002014
:401D400062020020E6010020CD01002010B50B4B1B78DBB2042B06D0062B07D0022B0BD1FFF7DAFF08E0FFF73DFF05E00320FFF791FF0322024B1A7010BDC046E60100204C
:401D8000CD01002010B50022044B1A700120FFF781FF0322024B1A7010BDC046E6010020CD01002010B50C4B1B78002B09D00A4A117880235B420B43DBB208490B60002390
:401DC00013700022064B1A700120FFF763FF0322044B1A7010BDC046CC01002020002C40E6010020CD01002010B5094B1B78DBB2042B06D0062B07D0022B07D1FFF7EEFE7E
:401E000004E0FFF7BFFF01E0FFF7CCFF10BDC046E601002010B5264B1B68DA0643D51A060CD50F221340012B14D1FFF745FF214B1B785BB2002B0FDB012310E05A0603D5A0
:401E4000FFF7D2FF01230AE09B0607D5FFF77EFF012304E0002302E0002300E00023002B21D0134B1B681B061DD4134B1B78134A12781343124A13601268934213D10D4BD3
:401E80001B78DBB20A4A1268120607D4094B1B78DBB2074A136013680F221340054A1278D2B29342EBD10422064B1A6010BDC046A0002C40CD010020E20100205D020020DC
:401EC000A4002C4020202C400022064B1A80064B9B68002B05D0044A916800230B7092685380704762020020D401002010B5114B1B889BB2002B02D1FFF756FE17E002226F
:401F00000D4B1A7000220D4B1A70FFF7DDFF0C4AD3691B029BB2926913439BB2054A128892B2934201D2034A1380FFF7EDFD012010BDC046D4010020E6010020E2010020C7
:401F400000002C4010B504220C4B1A707C320C4B1A70FFF7B9FF0B4AD3691B029BB2926913439BB2084A128892B2934201D2064A13800B22054B1A70012010BDE60100209C
:401F8000E201002000002C40D4010020CD01002001220A4B1A600A4B9B6C0A4B1A7B03231340012B06D0074AD17B80235B424B40DBB2D3730122034B5A7370472C002C4054
:401FC000F0FF2B40F001002002220B4B1A6088230A4AD3580A4B1A7E03231340012B06D0074AD17E80235B424B40DBB2D3760122034B5A767047C0462C002C40F0FF2B40BF
:40200000F00100200122014B1A60704720202C4010B50222024B1A60FFF73AFC10BDC04620202C4070B50D4B1D682B0601D5002398470F2422002A40EC08FF235B011C4050
:402040001443002507E0E30703D5AB00044A9B58984764080135002CF5D170BD34202C40A431000070B50D4B1D682B0601D5002398470F2422002A40EC08FF235B011C4082
:402080001443002507E0E30703D5AB00044A9B58984764080135002CF5D170BD38202C40A431000070B50D4B1D682B0601D5002398470F2422002A40EC08FF235B011C403E
:4020C0001443002507E0E30703D5AB00044A9B58984764080135002CF5D170BD3C202C40A431000010B50C4B18780138C0B200F09DF90A4B1B69FF221A40931CDB00C018FF
:402100004168074B9B5CDB00CB185B68596A0B78044A1380516010BDE501002000002C40D0010020D401002010B50E4B18780138C0B200F07BF90C4B1B69FF221A40931C6D
:40214000DB00C0184168094B9B5CDB00CB185B68DB695A78120219780A4305490A8002334B6010BDE501002000002C40D0010020D401002070B500221C4B1A801C4B187813
:402180000138C0B200F052F91A4BD968CCB21B69DDB2FF221A40931CDB00C0184068002D23D1154B9B5CDB00C3185B68013CE4B2022C1AD8FF221140104A94466144C90085
:4021C00059180C4B9B68D8B20A7890420DD84968FF2213405A00D3189A008B18034A59685160198811809B68936070BDD4010020E501002000002C40D0010020FFFFFF1F22
:4022000010B55D4B1A69D1B21B681B0651D55A4B5B68022B2FD002D8012B22D090E0032B3AD0062B00D08BE0534BDB68212B0AD1FFF758FF514B1B889BB2002B00D181E083
:40224000FFF754FE97E04C4BDB68222B7CD1FFF76BFF4A4B1B889BB2002B77D0FFF746FE89E0FFF787FF454B1B889BB2002B6FD0FFF73CFE7FE000296CD13F4B9B68002B1E
:402280006AD13E4901330B80FE331A403C4BD2184A60FFF72BFE6EE000295FD1374901230B80FE331A40374BD2184A60FFF71EFE61E0314B5B680A2B0DD00B2B30D0092B53
:4022C0004ED1FFF757FF2D4B1B889BB2002B49D0FFF738FE4FE0002946D1274B9B68002B44D1FF331A40244BDB68DBB224498B54895CC9B2244B9B5CDBB2994203D200213C
:40230000214B995409E0204B9B5CDBB2012B04D91B4B9B5CDBB21C498B54FFF7A5FC2AE0002925D1144B9B68012B23D8FF231A40114B9B68DBB213498B54FFF795FC1AE0C8
:40234000002018E0002016E0002014E0002012E0002010E000200EE000200CE000200AE0002008E0002006E0002004E0002002E0002000E0002010BD00002C40D401002073
:40238000640200206C0200206802002010B500F05DFC10BD10B5012338E09A010C201E4950505900C9188A001C498A185279002A16D05900C9188A0018498A18127952B2D9
:4023C000002A06DA9A0116498C4662440C2191600CE09A0112498C4662440821916005E09A010F498C466244802191605900C9188A000A498A18D18889B29801094C041995
:40240000A160D28892B2074942500133082BC4D9FF22054B1A6010BDC0012C40F0010020F0FF2B40D0112C4028002C40074B1B78DB00074AD3185B681A7C824204D9C00030
:4024400010301818406800E000207047E001002044320000F0B557464E464546E0B43F4B1B78002B75D03D4B18780138C0B2FFF7DDFF047AC3683A4A1078C0B2002266E070
:402480001978884261D13749095CC9B25D78A9425BD199787F252940DD7803262E40B446314DA8464E007718BD004544AA460027EF709F782F71DF78B9467618B70046465C
:4024C0004D46BD559E8855462E8102255D57002D0EDA6546012D01D1072700E00D274E007618B500204E75196F7101266E700DE06546012D01D1052700E009274E007618C8
:40250000B500194E75196F7100266E708D01174EB146A94401264F46BE604E0071188E00114989190E89360AB046104E4746AF510E89F6B24F467E60CE88B6B20C4FEF1970
:40254000BE60C98889B20A4EA95108330132A24296D31CBC90469946A246F0BDE5010020E1010020D0010020F0010020F0FF2B40D0112C40034B1B78DB00034AD31858681D
:402580007047C046E00100204432000010B5084B18780138C0B2FFF749FF002806D043681B790233DB00C018406800E0002010BDE5010020F0B557464E464546E0B400239E
:4025C00012E06E4E5900CC18A20000249455B2189470D4700025148195725570C9188A00B21855710133DBB2082BEAD9002808D10AE000226249CA546249CA540133DBB297
:4026000000E00023002BF4D05F4B1B78002B00D1AFE05D4B18780138C0B2FFF707FF82464368DB795B0606D5584A117801230B43DBB2137004E0554A137801218B431370D0
:4026400053461E7A012465E05346D96800235DE08A787F252A40944255D1270065002D19AA00464DAA18128992B28D88AA4208D262009446A4446246920040488446624498
:4026800015810A783E4DAA5CD2B24D78AA423AD18A789146394A94467A00D0198500654448462871C878D21995006246A854CA7803252A4002254D57002D12DA012A02D129
:4026C0000632914601E00D2291462C4A94467A00D01985006544484668712A000125557011E0012A02D10432914601E009229146224A94467A00D01985006544484668716A
:402700002A000025557008310133DBB2B3429FD30134E4B2082C97D95346D86800220CE083787F210B4004785900CB189900134B59188C7208300132D2B2B242F0D3FFF72E
:4027400025FF134B1860002201230EE00B4D5900C81884002C19E28021898A1891B201220A4089188AB20133DBB2082BEED9FFF711FE1CBC90469946A246F0BDF0010020A3
:40278000D001002060020020E5010020E3010020EC01002010B5174B1B697F2213405A1E072A24D85900C9188A0013498A18907801210143C9B291700021D1705078022152
:4027C0000143C9B25170127952B2002A06DA9B010A4A944663448D229A6005E09B01074A9446634489229A60FFF73EFA00E0002010BDC04600002C40F0010020F0FF2B40D6
:4028000070B5284B1B697F2213405A1E072A46D85900C9188A0024498A1891780120814391700021D17021489C0121588025A94321505178022081435170127952B2002AF3
:4028400015DA5900C9188A0017498A185278012A06D12300154A944663440C229A601BE09B01124A944663440D229A6014E05900C9188A000C498A185278012A06D19B01F8
:402880000A4A9446634408229A6005E09B01074A9446634409229A60FFF7E6F900E0002070BDC04600002C40F0010020F0FF2B4070B50F4B1C69E5B20E4B18780138C0B299
:4028C000FFF7B4FD43681B799D4201D9012D0CD8FF2323400849CA5CD2B20848C254044A9268D2B2CA54012000E0002070BDC04600002C40E5010020D0010020600200201E
:4029000010B5B34B1B680021B24A11801A0600D4A2E0AF4A5268062A0AD002D8002A5FD038E1082A00D184E00A2A00D189E031E1A74BDB68012B09D1FFF71CFE4268A54B58
:402940005A6012221A80FFF7D1FA40E1A04BDB68022B14D19E4B9868C0B2FFF767FD002800D119E143689B4A53605368DB781B02516889780B431380FFF7B8FA27E1944B6D
:40298000DB68032B05D028E0117852180133DBB201E00023904A8E498968994202D911780029F1D18A4B9B68EE2B00D18B4A884B9B68002B06D0864B9968894B1B7C9942BF
:4029C00000D1884A1378002B00D1E7E0137881490B804A60FFF78AFAF9E000F03FF9F6E00322134017D0022B00D0D9E079490B80774B1B697C3213405A00D3189A007A4BBE
:402A00009A189278D2B2794B1A7000225A704B60FFF76CFADBE06F4902230B80744B1A78D2B2724B1A7000225A704B60FFF75EFACDE0684B01221A806E4A5A60FFF756FA1C
:402A4000C5E0644A01231380614B19696A4BCB185360FFF74BFABAE05D4A52680B2A00D9A0E0920065498A589746594B9B68DBB2634A1370FFF7F8F8A9E0554B9C68002C6D
:402A800003D0601EC0B2FFF7D1FC002C01D0002802D1002C00D087E0564B1B78DBB29C4208D0E4B2534B1C700122564B1A700120FFF780FDFFF7D8F889E0FFF7F9FE0028D8
:402AC00074D0434B19691B69DBB24F4A13704F4B5A5CD2B2484B5B5CDBB29A4204D00122484B1A70FFF7B6FCFFF7BEF86FE003221340012B16D0002B08D0022B58D1344BB5
:402B00009B68002B56D1FFF77BFE60E0304B9B68012B51D1364A137802218B431370FFF7A3F854E02A4B1B69002B47D1284B98681A6937498B5C83438B54FFF795F846E09A
:402B400003221340012B17D0002B08D0022B37D11F4B9B68002B35D1FFF71CFE37E01C4B9B68012B30D1224A117802230B43DBB21370FFF779F82AE0154B1B69002B25D148
:402B8000134B98681A6922498B5C83438B54FFF76BF81CE000201AE0002018E0002016E0002014E0002012E0002010E000200EE000200CE000200AE0002008E0002006E038
:402BC000002004E0002002E0002000E0002010BD00002C40D401002014330000303200009433000008330000F0010020C8010020E3010020E5010020D0010020D8310000D8
:402C0000CC010020E4010020E101002060020020E801002010B50A4B1B681B060BD5084B5B68012B09D1074B074A5A6012781A80FFF75CF902E0002000E0002010BDC046BA
:402C400000002C40D401002008320000024A10680123184010607047100D044010B5144B1B6803221340012B02D0022B04D00FE00F4B1B69DBB20CE00D4B1B697F221340BD
:402C80005A00D3189A000B4B9A18937ADBB200E00023012B07D8084A1268D35C032B04D1FFF7AEFA02E0002000E0002010BDC04600002C40F0010020EC010020002243081D
:402CC0008B4274D303098B425FD3030A8B4244D3030B8B4228D3030C8B420DD3FF22090212BA030C8B4202D31212090265D0030B8B4219D300E0090AC30B8B4201D3CB032E
:402D0000C01A5241830B8B4201D38B03C01A5241430B8B4201D34B03C01A5241030B8B4201D30B03C01A5241C30A8B4201D3CB02C01A5241830A8B4201D38B02C01A524158
:402D4000430A8B4201D34B02C01A5241030A8B4201D30B02C01A5241CDD2C3098B4201D3CB01C01A524183098B4201D38B01C01A524143098B4201D34B01C01A5241030966
:402D80008B4201D30B01C01A5241C3088B4201D3CB00C01A524183088B4201D38B00C01A524143088B4201D34B00C01A5241411A00D20146524110467047FFE701B50020BD
:402DC00000F006F802BDC0460029F7D076E770477047C046014B18687047C046500100200E4B70B500251E000D4CE41AA410A54204D0AB00F35898470135F8E700F0D4FA36
:402E0000084B00251E00084CE41AA410A54204D0AB00F35898470135F8E770BDB4330000B4330000B4330000BC330000002310B59A4203D0CC5CC4540133F9E710BD0300C5
:402E40008218934202D019700133FAE77047000000350000A90000000000000000300F40800400350F40000300400F400008000080340F408C30000080000000850F0402E4
:402E8000060808020A0D0C0D10021204140D200D240D280D2C012E02320F3A0858045F010014020104060510070209060C220E201028110113401511160118101D101E203B
:402EC0001F0827082CA02D903610374A3D083E803F20450A47224C014D884F605501569A65106C2A6D116F407480760186808C028D04C0F7C27CC4DFCAF0CCF0CE70D0E037
:402F0000D230D820001A0418060209080A100B330C010D250E080F081008121214121608180C191C1A031C031E041F02201A24082C022D282F17300F3410353C3703392076
:402F40003A023E105440580459045B045F018104840486088D17900E91029201930C950C9702990A9B049D0EA004A10EA512A705A902AC01AD11AE0AAF02B008B107B30892
:402F8000B407B710BA20BE01BF44D409D804D904DB04DF010004044005100608075009020C0A0D400E04110213401480162218041A841B101C401D021F122108234126A046
:402FC00028802A212B1A2F02302A335036A039803A023B403F60582159085A806301661067226C01800184208602880189088D108E208F019404974099089A1B9B40A02A16
:40300000A101A308A50AA680A710AB08AF20C0F4C2F8C4B9CA1FCC3FCE39D60FD878E2906801DA40A401078053045702660867028704A401C020D420D6A0D880E610830126
:4030400088018E0897029E08A401AB02AF80E620E840EA202D088908CA01E2011201130101000F4011340F4032350F4048360F4046370F4002400F4001410F400C420F40AC
:403080000B430F4004470F4002600F4003003C007904060002560D0915606A00400A001010016000400400000004000040040000000400000000400440070038000070008B
:4030C0000F7F0000002028000000000046053000020EFBCD3DFFFFFF2200F008040000000000022404040404000000010000C00040011011C00100114001400100000000A2
:403100000000000000000000000000005A0500009A040000AA040000BA040000CA040000DA040000EA0400000A050000FA0400001A0500002A0500003A0500004A050000A3
:40314000540700007407000084090000C00700006E080000840900007A080000A6080000C0070000C808000048090000A0111110003C0101030405060708090A0B0C0E0F92
:40318000101112131415161718191B1C1D1E1F2021222325262728292A2B2E2F30313233343500000520000011200000151E00000000000000000000911F0000C91F000066
:4031C000000000000000000000000000000000000000000000000000A42B0000EE2A0000A42B0000402B0000A42B00006A2A0000A42B0000A42B0000A42B00007A2A00003A
:40320000A42B0000BA2A00002800000000010400010000000000000000014359555342000000303030303100000000000000000012034D0053004600540031003000300055
:4032400001000000010000004C320000010000009433000000000000000000000100000064320000010000006833000002000000883200000100000098320000000000004C
:4032800084320000030000000000010340000300000082034000030001000000A032000000000000D432000000000000C8320000000000000000000001000000E032000060
:4032C000010000007A33000041000000B8020020FC020020410000007402002070020020240005010900A1000900A1000900150025FF7508954091020900150025FF75081A
:4033000095408102C0C000000A0330003000300031000000040309042C0343007900700072006500730073002000530065006D00690063006F006E0064007500630074001D
:403340006F0072002203500053006F0043003300200042006F006F0074006C006F006100640065007200000009022900010100801909040000020300000209211101000174
:4033800022240007050103400001070582034000010000001201000200000008B4041DB70130010280014300F8B5C046F8BC08BC9E4670473502000091030000F8B5C046BF
:4033C000F8BC08BC9E4670470D020000E0330000C800002090000000A80100000000000000000000502E0000542E0000010000000000C05D80BB000030000000006CDC02A4
:40340000F0000000040404000000000000000000000000000000000000000000000000000000000000000000A63300000000000000000000000000000000000000000000B7
:4034400000000000000000000000000000000000000000000000000000000000000000000000000000000000F000002000000000000000000000000000000000000000003C
:40348000000000000000000000000000000000000000000000000000000000000000000000000000000000000000000000000000000000000000000000000000000000000C
:4034C00000000000000000000000000000000000000000000000000000000000000000000000000000000000000000000000000000000000000000000000000000000000CC
:40350000000000000000000000000000000000000000000000000000000000000000000000000000000000000000000000000000000000000000000000000000000000008B
:40354000000000000000000000000000000000000000000000000000000000000000000000000000000000000000000000000000000000000000000000000000000000004B
:404000000080002011400000C5C50000C5C5000010B5024B83F3088808F0F6FA0080002070B51222304B1A600BF098FA2F480CF0BBF930200BF0CEF80BF040F82C4A2D4BA7
:404040001A602D4C8025ED052560A022D2002B4B1A602B4B2B4A1A602B492C4A11602C4A1A60802189002B4A11602B4A1A602B492B4A11602B4A1A60F82149012A4A11606D
:404080002A4A1A6088218901294A1160294A1A60E8214901284A1160284A1A6080221206274B1A608022D202264B1A604122264B1A607F32254B1A60803A254B1A60053221
:4040C000244B1A60023A244B1A600132234B1A60023A234B1A60234908200AF093FF08200AF06AFF256070BD30001040001BB7000600008004010B400C020B40040301404D
:404100000000014041FF008000FF9E2400050140C0FF00800003014040FF008000DF01001403014045FF00800C03014043FF00801003014044FF00800803014042FF008003
:4041400008010B4000010B405801014054010140500101402C010140140101400C0101400801014049F6000070B572B601225B4B1A7000240FE05A486200131959000B00FB
:40418000411889881A5AC31858880004104308F00FFA0134E4B2022CEDD9002411E0504EA2001319590071188D8AC88A000428430A8B498B09041143802208F0FFF9013483
:4041C000E4B2002CEBD0464920314648503008F0C5F9E0221201444B1A800122434B1A70434A444B1A60444A444B1A60444A454B1A60454A454B1A60EE221204444B1A6098
:404200009922444B1A60444B444A136080218904434A1160B1210904424A1160424A136080221203414B1A60414A424B1A6099231B04414A13604149414A1160414A136077
:40424000414A13600722414B1A60013A404B1A6040490B783632934314221343DBB20B703D4A117816230B43DBB21370CF223B4B1A603B4A3B4B1A6003223B4B1A6002238C
:404280003A4A13601D213A4A11603A493A4A116077213A4A11603A493A4A11603A4A13603A493B4A11603B4A136020213A4A11603A493B4A116032213A4A11603A493B4AF0
:4042C00011603B4A136031213A4A11603A4A1360FFF7A6FE08F05CF970BDC0461C700F4060D1010060D6010000600F4002600F403333003300000240033300000001024005
:40430000030333000002024099EE00000003024000060240000702400400990010500F4014500F4018500F4020500F4024500F400000895C28500F4040500F4000001B3590
:4043400048500F4050500F4070500F402000104000800F4001700F4000700F4000000440B60DD80008000440000D04400C0D044000010440041918000801044000020440B4
:404380008E611B000802044000030440B16D0300080304401803044000040440B61303000804044000060440884102000806044000070440080704401807044010B5064CAC
:4043C0002378002B07D1054B002B02D0044800E000BF0123237010BD680200200000000088620100084B10B5002B03D00749084800E000BF07480368002B00D110BD064BC5
:40440000002BFBD09847F9E7000000006C02002088620100C800002000000000F8B504000F00160032220021382008F0C5FDC5B2002D04D13221200008F04CFEC5B2002D37
:4044400005D132220121382008F0C6FEC5B2002408E0002D04D139193222002008F05EFE0134E4B2731E9C42F3DB002D05D1611E79183222012008F051FE322008F0FEFD21
:4044800008F08AFE64200AF09BFE2800F8BDC04610B5002008F056FC0A200AF0F7FD012008F050FCFA2040000AF0F0FD10BDC04630B503785AB2002A1BDA82780F24A24325
:4044C0000C01A24215D11B02F0221201134044781B19084D4C002C19638083781B021A40C378D2180431490069188A800122024B1A7030BDC83600208402002010B584B053
:40450000092201A90020FFF789FF002821D101AB1B78002B1DD101AB9B780F4A5370013BDBB2042B10D914E06300E31858000330C0B2062201A9FFF771FF210001A8FFF793
:40454000B7FF0134E4B200E00024034B5B789C42EAD304B010BDC0468402002010B50BF059FE10BD10B50BF0A7FE0C4C20780BF0B3FEA0780BF0B6FE03F06EFA03F06CFA6D
:404580004388632B03D903F067FA3223438003F063FA4088FFF7E2FF10BDC0468A02002010B5174A137959424B41DBB213715279002A0AD0002B04D0114B18780BF08CFEC3
:4045C00007E000200BF088FE03E00D4B18780BF083FE0B4B9B79002B0CD0094B1B79002B04D0074B98780BF07DFE07E000200BF079FE03E0024B98780BF074FE10BDC046C3
:404600008A02002010B504F017FC002309E0DA0006495258002A03D0D900013A03480A500133034A12789342F1DB10BDE836002091020020024BC0001A185268C250704741
:40464000E836002010B5C200044BD358002B03D1FFF7F0FF012000E0002010BDE836002010B5094B1B78082B08D8084AD9005418606088505A1C04490A7003E004480FF092
:404680005DFCFF23180010BD91020020E83600209862010010B50BF06BFD03480BF09CFD08F092F910BDC04605460000F0B585B00190029103921F000AAB1E880BAB1D889E
:4046C0000A2138000CF0FEF904050A2138000CF07FFA09040C4327000A2130000CF0F2F9000307430A2130000CF072FA09023E000E430A2128000CF0E5F9000106430A2172
:4047000028000CF065FA0E43FA218900019C20000CF0D8F90503FA21890020000CF058FA0F00642138000CF0CDF900022C000443642138000CF04CFA0F000A2138000CF0ED
:40474000C1F9000104430A2138000CF041FA0C43134B1C400A21029D28000CF0B3F9000704430A2128000CF033FA09060C430D4B1C4025000A21039F38000CF0A3F9040553
:404780002C430A2138000CF023FA09042143300008F09CF80122044B5A7005B0F0BDC046FFFFFFE0FFFFC0FF91020020F0B54F464646C0B483B004000EF0CEFD85B2601D02
:4047C0000EF0CAFD86B2200008300EF0C5FD87B220000B300EF0C0FD83B2984620000E300EF0BAFD83B29946200011300EF0B4FD80B201904B46009343463A003100280008
:40480000FFF754FF03B00CBC90469946F0BDC04601E0C0461800431E0028FAD17047C04610B50400002008F03FFE200008F07AFE01200AF0C5FC10BD10B50400012008F003
:4048400033FE200008F06EFE0520FFF7E1FF10BDF8B507000D0016001C002A20FFF7E0FF380AFFF7E9FFF8B2FFF7E6FF300AFFF7E3FFF0B2FFF7E0FF2B20FFF7D1FF280A38
:40488000FFF7DAFFE8B2FFF7D7FFA008C0B2FFF7D3FFE0B2FFF7D0FF2C20FFF7C1FFF8BD10B5012008F08EFE14200AF0EFFB002008F088FE14200AF0E9FB012008F082FE08
:4048C00014200AF0E3FB10BD10B50400000AFFF7B3FFE0B2FFF7B0FF10BDC046F8B516001F0006AB1D884023FF33984228D8EF2926D88318013B4022FF32934203DDA026B8
:404900007600361AB6B2CB19013BEF2B02DDF0277F1ABFB27B18013B9BB23218013A92B2FFF796FF0AE02800FFF7CEFF013CA4B200E03400002CF6D1013FBFB2002FF8D187
:40494000F8BDC04600B583B0FFF7AAFF78200AF09DFB1120FFF764FF78200AF097FB3620FFF75EFF0020FFF75BFF3A20FFF758FF5520FFF761FFB220FFF752FF0C20FFF757
:404980005BFF0C20FFF758FF0020FFF755FF3320FFF752FF3320FFF74FFFB720FFF740FF3520FFF749FFBB20FFF73AFF3920FFF743FFC020FFF734FF2C20FFF73DFFC220E6
:4049C000FFF72EFF0120FFF737FFC320FFF728FF1020FFF731FFC420FFF722FF2020FFF72BFFC620FFF71CFF0F20FFF725FFD020FFF716FFA420FFF71FFFA120FFF71CFFB1
:404A0000D620FFF70DFFA120FFF716FFE020FFF707FF0D20FFF710FF0F20FFF70DFF1120FFF70AFF0720FFF707FF0520FFF704FF0220FFF701FF2820FFF7FEFE3320FFF747
:404A4000FBFE3F20FFF7F8FE2620FFF7F5FE1420FFF7F2FE1520FFF7EFFE2420FFF7ECFE2820FFF7E9FEE120FFF7DAFE0D20FFF7E3FE0E20FFF7E0FE1120FFF7DDFE07204A
:404A8000FFF7DAFE0520FFF7D7FE0220FFF7D4FE2820FFF7D1FE2220FFF7CEFE3F20FFF7CBFE2A20FFF7C8FE1820FFF7C5FE1920FFF7C2FE2620FFF7BFFE2820FFF7BCFE48
:404AC0000A4B1B880093F023A022520000210020FFF704FF0A200AF0D9FA2920FFF7A0FE0A200AF0D3FA03B000BDC0463A37002070B51600002405E04D1C087808F0FCFBE2
:404B000001342900B442F7DB300070BD10B504F07FF900230FE0DA000A495258002A05D10A00D90050184068885003E0D900013A04480A500133782202498A5C9342EADBD7
:404B400010BDC04694020020C000044BC358002B01D1012000E000207047C04694020020024BC0001A185268C250704794020020034BC0000022C250181841607047C046A9
:404B80009402002010B57823084AD35C0D2B07D8D900541860608850591C7820115403E003480FF0CBF9FF23180010BD94020020E062010010B50AF06FFC00240AE02000AF
:404BC0000AF082FC002804D1044920000AF074FC02E00134042CF2D910BDC0460D4B000030B583B00422164901A80EF0F7FB00200BF09CFB042101A80AF028F809F0F2FF72
:404C0000C307FBD50A200AF0DBFA01200BF08EFB002506E06C1CE4B209F0FCFF01AB5855250009F0FDFF0028F4D101AA5078000493781B021843D378184303B030BDC04679
:404C40004463010030B583B00822002168460EF0CEFB4B236A4613705A3353709370D370137100200BF062FB0521684609F0EEFF09F0B8FFC307FBD509F0DCFF08216846D2
:404C800009F0E4FF09F0AEFFC307FBD50A200AF097FA01200BF04AFB002407E0651CEDB209F0B8FF044B1C1960702C0009F0B8FF0028F3D103B030BD3C37002010B50120B2
:404CC0000AF0E4F900200BF031FB062009F096FF09F088FFC307FBD50A200AF071FA01200BF024FB09F0A6FF01200AF0CFF910BD10B501200AF0CAF900200BF017FB0420BC
:404D000009F07CFF09F06EFFC307FBD50A200AF057FA01200BF00AFB09F08CFF01200AF0B5F910BD30B583B00400002201AB1A8000200BF0FBFA012C1FD1052009F05EFF23
:404D4000A52009F05BFF09F04DFFC307FBD50A200AF036FA002506E06C1CE4B209F05AFF01AB5855250009F05BFF0028F4D101AB59782423264AD15440E0022C1FD13520C3
:404D800009F03CFFA52009F039FF09F02BFFC307FBD50A200AF014FA002506E06C1CE4B209F038FF01AB5855250009F039FF0028F4D101AB59782523154AD1541EE0152069
:404DC00009F01CFFA52009F019FF09F00BFFC307FBD50A200AF0F4F9002506E06C1CE4B209F018FF01AB5855250009F019FF0028F4D101AB59782623054AD15401200BF010
:404E000095FA0A200AF0DCF901AB587803B030BD3C37002010B500200BF088FA052009F0EDFE09F0DFFEC307FBD50A200AF0C8F909F000FFA52009F0E1FE09F0D3FEC30752
:404E4000FBD509F0E7FE2423064AD054C307F1D40A200AF0B5F901200BF068FA01200AF015F910BD3C37002010B5012127233B4AD15464200AF00AF9FFF7B2FEFF231840E5
:404E800011380F2841D88000354B1B589F46334B0A221A708022D200DA613CE02F4B09221A70F832FF32DA6135E02C4B08221A70F832DA612FE0294B07221A707932DA617C
:404EC00029E0264B06221A703A32DA6123E0234B05221A701B32DA611DE0204B04221A700C32DA6117E01D4B03221A700532DA6111E01A4B02221A700232DA610BE0174B64
:404F000001221A700132DA6105E000212723134AD154002020E0114C80235B00638180235B012361E3691A0162611B041A0AE26080225202A2619B0A2362FFF783FE012038
:404F4000FFF7F0FE0220FFF7EDFE0320FFF7EAFE00222723E254012010BDC0463C3700200463010010B5040002E001200AF08EF827231A4AD35C012BF7D01300012127221E
:404F8000995418694443FFF799FE00200BF0CEF9202009F033FE200CC0B209F02FFE200AC0B209F02BFEE0B209F028FE09F01AFEC307FBD50A200AF003F901200BF0B6F95A
:404FC000C8200AF063F8FFF725FF01200AF05EF800212723014AD15410BDC0463C37002070B504000D0002E001200AF04FF827231B4AD35C012BF7D0160001222723F25494
:40500000FFF708FFFFF75AFE00200BF08FF9022009F0F4FD3378082B02D9280E09F0EEFD280CC0B209F0EAFD280AC0B209F0E6FDE8B209F0E3FD200009F0E0FD09F0D2FD6C
:40504000C307FBD50A200AF0BBF801200BF06EF9FFF7E0FE00212723014AD15470BDC0463C370020F8B505000C00160002E001200AF00CF82723234AD35C012BF7D0170002
:4050800001222723FA5400200BF050F90B2009F0B5FD3B78082B02D9200E09F0AFFD200CC0B209F0ABFD200AC0B209F0A7FDE0B209F0A4FD002009F0A1FD09F093FDC307B9
:4050C000FBD50A200AF07CF809F0B4FD00240CE0A52009F093FD09F085FDC307FBD56F1C09F098FD287001343D00B442F0D30A200AF066F801200BF019F900212723014AE9
:40510000D154F8BD3C37002010B505F09BFD024B1860024B186010BDEC3A0020E83A00204268002A02D1416004E01A009368002BFBD1916008607047F8B506009446134B9E
:405140001B88182B05D9190011480EF07BFE00201BE0581C0D4A1080DF00F818840020000C4D641946516246E26000226260A260103040190EF06AFF002E05D021003000E8
:40518000FFF7CEFF200000E02000F8BD0E03002048630100643700204368002001E001309B68002BFBD170474068002303E08B4203D0013380680028F9D1704710B5044B0A
:4051C0001868002802D0C3680121984710BDC046EC3A002010B5174B1868C368164C2178984701002378002B02D00022124B1A70124B994203D101220F4B1A701049104BDB
:40520000994216D001220C4B1A7080231B06994207D1084B1B681B68002B0AD0054A136007E0044B1868FFF7BFFF002801D0014B186010BDEC3A0020CC000020020000806A
:405240000100008070B50D00446807E02000103029000EF0F1FE002804D0A468002CF5D1002000E0200070BD044B1B68044A1068181A43425841C0B27047C046EC3A0020CE
:40528000E83A002010B50121002008F079FA10BD00487047383B0020F8B506000C000C4B1D886A18FA235B009A4203DD09480EF045FE0BE0084F78190A0031000EF08EF846
:4052C0002C19A4B2024B1C8000233B55F8BDC046100300206C630100383B002010B508F091FA002805D008F087FA002801D008F0BFFB08F081FA00280ED008F057FC0028D1
:405300000AD0064808F06EFC054B1880002803D001000248FFF7C0FF10BDC046F43A0020F03A002070B5002828D00AF04DF806000AF052F804000AF0AFF8002512E0134BAD
:405340001B78002B14D00AF047F8201A01D501356DB233006B43C018730098420ADC0AF03BF8040008F030FC0028E8D0012002E0002000E00020054B187006E008F024FCD3
:40538000002801D0012000E0002070BDCD0000200FB400B593B014AA02CA119268460EF05BFF68460EF05AFE80B2402802D907480EF0C4FD0120FFF7B5FF0028FAD06846D9
:4053C00008F0A0FB13B008BC04B0184794630100436893420BD25A1C42601B01C91801235B428B604B600023CB60080000E000207047C0460170426083600023C3607047B9
:4054000070B5050006681DE0202821D006D809280ED30A281CD90D280AD119E03A2817D002D82C2804D113E05D2811D07D280FD02038C0B25E2803D92E600220404220E0F7
:4054400001342C602C68944202D2085D0028DBD1002B03D1013C2C60002012E0049A19002800FFF7B5FF002802D12E60013808E02B6832000421FFF7BDFF2B68013B2B60F1
:40548000002070BDF0B583B0050001930668701C286050E0222C13D1019B002B55D0089A19002800FFF794FF002802D12E6001384CE02B68721C0321FFF79CFF002045E0E9
:4054C0005C2C35D10130824232D928600C5C223CE7B2532F28D8BC001D4F3C59A74601302860002314E02700303FFFB2092F0CD92700413FFFB2052F07D9613CE4B2052C07
:4055000003D92E600220404220E0013028600133032B05DC2868824202D90C5C002CE2D12B68581E286003E02E60022040420DE02B68581C28602868904202D20C5C002CFF
:40554000A8D12E600320404200E0002003B0F0BDB4630100F0B54F464646C0B483B00600884617001C0043689946CBE02C2D00D18DE010D80D2D00D1C1E006D82B00093BE6
:40558000DBB2012B00D8BAE0A2E0202D00D1B6E0222D60D09CE05D2D2CD004D83A2D72D05B2D05D094E07B2D02D07D2D22D08FE001239C46E144002C00D1A0E00A9A2100C1
:4055C0003000FFF705FF002800D1B5E0B3685A1C04D01B01E318DA680132DA607B2D01D1012300E002230370336843607368013BB36084E0002C00D181E07D2D01D10120EB
:4056000000E002207368013B12E01A01A218556801350CD09568013509D11578A84200D08DE001204042B0600131916002E0013B002BEADA5A1C0BD184E01A01A2185168D3
:40564000013104D09268013201D1B36057E0013B002BF2DA53E00A9B009323003A0041463000FFF70FFF002873DB01239C46E144B3685A1C43D0002C41D01B01E318DA684A
:405680000132DA603BE07368013BB36037E0002C35D0B3685A1C32D01B01E35C022B2ED0012B2CD07368591E0FE00A01A2181378013BDBB2012B07D85368013304D093688C
:4056C000013301D1B1601AE001390029EDDA16E00A9B009323003A0041463000FFF790FE002836DB01239C46E144B3685A1C06D0002C04D01B01E318DA680132DA6033687D
:40570000013333603168B94204D243465D5C002D00D02BE7002C18D07268013A08E01301E3185968013102D09B6801330FD0013A002AF4DA48460CE00120404209E0022091
:40574000404206E00220404203E0484601E00320404203B00CBC90469946F0BD002303604360013B8360704770B506000D0014000B78032B10D110000EF070FCAA686B680D
:40578000D21A90420BD1F01821000EF06EFC002807D00120404204E00120404201E00120404270BD10B5040002F056F90480002C08D10A4BF0221A8050325A80133AFF3A6E
:4057C0009A8007E0054BA02252001A80503A5A80C83A9A8000F0A4FB10BDC046CE00002030B583B004000D0002F036F90388002B03D1094B1C805D8004E0074BEF21491B8F
:4058000019805C80044B1B68180C00041B041B0C184303B030BDC0461403002030B583B004000D0002F018F90388002B03D1094B9C80DD8004E0074B9D80EF20001BD88023
:40584000044B5B68180C00041B041B0C184303B030BDC04614030020F0B583B0050008001C0008AB1E881100FFF7BAFF019031002000FFF7B5FF009083B201AA1288191C8B
:40588000934200D9111C88B2124C2181191C934200D2111C8AB20F4B59816B465B8801A94C881E1CA34200D9261CB1B2094FBE811E1CA34200D2261CB3B2064CE681FEF7CE
:4058C000C7FF21000831082228000DF087FD280003B0F0BD14030020F0B54F4680B486B00400039191461D000CAB1E88009513000A00010004A8FFF7AFFF270008E0039CB8
:4059000003E03000FEF7E0FF0134AC42F9DD01374F45F4DD06B004BC9146F0BD00B583B0064A5388013B9BB21288013A92B2009000210020FFF7D0FF03B000BDCE00002047
:4059400010B582B00C00C3884288818800880094FFF7C2FF02B010BD70B584B01D000C1C814200D9041CA4B20E1C814200D2061CB6B200920B00010002A8FFF76DFF04E02D
:405980002800FEF7A1FF0134A4B2B442F8D904B070BDC04670B584B01D00141C8A4200D90C1CA4B2161C8A4200D20E1CB6B2009603002200010002A8FFF74EFF04E0280011
:4059C000FEF782FF0134A4B2B442F8D904B070BDF0B583B0040000911700019308AB1E883300019AFFF7D6FF0134A4B27D1EADB23300009A29002000FFF7AEFF3300019AE8
:405A000000993800FFF7C6FF3300019A29002000FFF7A2FF03B0F0BD10B584B00B0C040C89B280B200922200FFF7D2FF04B010BDF0B55F4656464D464446F0B489B00590CE
:405A40008A4617009B4612AB04CB90461B880393C319013B9BB204930A000091010006A8FFF7FAFE0024002399461BE0661C64004346185B002800D10398FEF725FF0135A9
:405A8000340000E00025BD42F0D352464A44013292B20092049B059906A8FFF7DDFE01239C46E144D945EDD309B03CBC90469946A246AB46F0BDC046F0B55F4656464D468C
:405AC0004446F0B48BB0069007910292039314AB04CB92461D78107883B2059353780493967807000DF0BCF90022FF239B050CF0B3FB0DF02FFA041C0BF0E0F983B29946B0
:405B000018000BF029FD011C201C0BF05DF9002803D14846013083B29946049B4A4653439BB2AD1B5D432B1D984600239B462FE0079B5B449AB2059B06998C466344013B7F
:405B40009BB2009208A8FFF787FE00251AE0534642469E5C00240FE0EB00E3189F420DDD80232341334203D10398FEF7ADFE02E00298FEF7A9FE0134072CEDDD01239C4642
:405B8000E04401354D45E2DB5B4601339BB29B46049B9B45CCD30BB03CBC90469946A246AB46F0BDF0B55F4680B4A8B083460391049205932E9F30AA27922F9907A80EF0F7
:405BC0004BFB3E7807A80EF049FA85B200240EE030006043584480B207AB1B5D01930097059B049A0399FFF767FF0134A4B2AC42EED328B004BC9346F0BDC04670B584B08D
:405C0000009001911D0008AB188809AB1E880AAB19880BAB1B780CAC2478012B04D0002B10D0022B06D01DE06B461988091802AB198017E06B465B885143591A091A02AB5F
:405C400019800FE06B4658881B88C0185143401A0DF006F90022184B0CF0FEFA0BF046F902AB1880052C10D0062C07D0042C1BD16B469D88AE1902AB5E8015E06B46D8884A
:405C8000451BAE1B02AB5E800EE06B46D8889B88C018401B0DF0E4F80022074B0CF0DCFA0BF024F902AB5880029B180C00041B041B0C184304B070BD0000E03F10B50400F0
:405CC000002303804380838007F048F80123584001231840194B18745B7C002B1FD101281DD1174B1878FEF73BFF164B9B79002B1ED0FEF703FC144B1B78002B18D0134BCA
:405D000058889989FFF78AFD6080000CA0800123238000230B4A93710B4A137008E0084B1878FEF711FF002802D00122054B9A71024B1A7C5A74200010BDC046140300209A
:405D40002D3D0020CE00002084020020C836002082B0019189B2038899420CD3438899420BD801AB5B888288934208D3C288934207D9002006E0002004E0002002E00020A6
:405D800000E0012002B0704710B580B2194B588306282DD88000184B1B589F46154B00229A82DA821A83002007F018FC20E03222104B9A821CE00F4B0022DA82198317E0E1
:405DC0000C4B0022DA82013A1A8303325A830FE0084B0022DA8219830AE0064B0022DA82013A1A8305325A8302E0012007F0F6FB10BDC046140300200465010010B5314B43
:405E00005B8B022B08D002D8002B5AD04AE0042B20D0062B55D045E02A4B1B8B002B03D10022284B5A833DE02649CA8A501CC882002A04D0FA2189008A4205D032E0FA22F1
:405E40005200204B9A822DE01E4A0021D182013B138327E01B4B1A8B002A01D15A8321E01849CB8A581CC882642B0ED002D8002B07D017E0C82B0CD0FA2189008B420CD0D2
:405E800010E032220F4B9A820CE032220D4B9A8208E032220B4B9A8204E00A4B0021D982013A1A83074B9B8A002B07D0012007F095FB044A938A013B938202E0002007F063
:405EC0008DFB10BD140300202923838000230380044A13884380538892889B1A013BC3807047C046CE00002030B503AC0025645F05886918018041888A1842808288D31874
:405F00008380C3881B19C38030BDC04610B53220FEF738FE014B187010BDC0462D3D002070B5134C0025258126266681114B1B88013B9BB2E3801E3BA380200001F0A8F99B
:405F40000421200001F03CFBA3880B4CE380A580258166810521200001F032FB074B1A6870320749200001F0CDFB04F057FA70BD783D0020CE000020B83D0020FC50002064
:405F8000DCAD0100F0B587B003900491150005931F4C200001F07CF92900200001F010FB1C4D2A88002601961427009702230021200001F0D5F94034200001F069F905991C
:405FC000200001F0FDFA2A880196009703230021200001F0C5F9039B002B04D019000C4801F090FB02E00A4801F07CF9049B002B04D01900084801F085FB02E0064801F0EA
:4060000071F90221024801F00DFC07B0F0BDC046F83D0020D2000020383E002070B592B005000E0000281ED002AC200001F030F90E4B1A88013A92B201960D2300930C3BB5
:406040000021200001F08CF90E21200001F0B8FA2900200001F056FB200001F0B5FB6089013080B200E0002012B070BDD200002010B501F0F1FC0388002B01D1052000E0CE
:40608000042010BDA0239B00C25A044BC35A9A4201D2012000E000207047C04682020000C1239B00C35A002B01D1012000E000207047C04610B50200C1239B00C45A074BCB
:4060C000C35A581EA0239B00D15A0AF085FD844201D1012000E0002010BDC04682020000F0B583B005000F000800FFF7D9FF00903800FFF7DFFF0190002613E0C1239B0071
:40610000F85A44433419194BFB5A9C420FDA711D89017918280001F093FB012801D1A0B222E00136A0239B00FC5AA642E6DB009B002B07D1A1239B00F918280001F080FBE4
:4061400001280CD0019B002B0BD1B1239B00F918280001F075FB012805D1103004E0102002E0FF2000E0FF2003B0F0BD8202000010B50A0080300400034901F0C3FA20009A
:4061800001F022FB10BDC046BCB7010070B504001500002901D1154A00E0154AB8235B00E252012901D1114A00E0114AD8235B00E252022901D10D4A00E00D4AF8235B002C
:4061C000E25220004130FF3001F0FEFA20008130FF3001F0F9FA2000C130FF3001F0F4FA29002000FFF7C4FF70BDC04620FD0000EF7B0000F0B587B0040004A8FFF764FE1F
:40620000284D2B8819002839A2229200A152013B254AA35204AB9888A3239B00E05204ABDE8880190CF01CFE0022204B0CF014F8029003910AF05AFE1D4BE0520A3B9C46DF
:40624000A44463460193604601F022F8194FA1239B00E7502B8819002839B2229200A152013B154AA3520022144B029803990BF0B1F90AF03BFEB3239B00E052731F104A16
:40628000A3520A3AA618300001F002F80837B1229200A750019801F097FA300001F094FA07B0F0BDCE0000208A0200000000E03F8E020000D8000020CA0200000000F03FE7
:4062C000CE02000010B584B00E4B1B88012901D1283B9BB2002269460A80013B4B80888002AC2000FFF7F0FDE3886A46D38092889B1A012B03DD00216846FFF721FB04B034
:4063000010BDC046CE000020F0B557464E464546E0B486B004000D0091461F000EAB1B789A4604AE3000FFF7CFFDB688FFF7A0FEA0239B00E052002D01D00138E052384B4C
:40634000E752290020000DF081FE2000FFF79AFE010080462800FFF761FE071E00D137004B46002B45D14BE0751DAD016519280000F08EFF5346152B06D053466A46D38154
:40638000D189280001F01CF9264B1A88434601930B2300930A3B3900280000F0E1FFB301E3187B33FF3301221A70A0239B00E25A8433E35A53439B199BB2194AA25A934259
:4063C00022D29D00EB1898001030201804304D4429680DF03BFEB0014930FF302018043029680DF033FE0F4B1888381887B2013600E00026A0239B00E35A9E42B4DB03E03C
:4064000000213800FFF75EFF4346002B02D02000FFF7F0FE06B01CBC90469946A246F0BD82020000D2000020F0B5474680B486B0050002900C0004AE3000FFF745FDB68841
:40644000FFF716FE0138A0239B00E0522800FEF7A3FE3E4BE0522900103120000DF0F6FD2000FFF70FFE010080462000FFF7D6FD071E00D13700029B5B680393002B11D153
:4064800056E0AB005B19980010302018061D29000298FEF789FE0100103130000DF0D6FD013500E00025294BE35A9D42E9DB002638E0751DAD016519280000F0E9FE002128
:4064C000280001F07DF8224B1A88434601930B2300930A3B3900280000F042FFB301E3187B33FF3301221A70A0239B00E25A8433E35A53439B199BB2144AA25A93421BD2CD
:40650000B0014930FF30201804309A00D31899001031611804310DF099FD0D4B18883F18BFB20136A0239B00E35A9E42C1DB03E000213800FFF7C6FE4346002B02D020004C
:40654000FFF758FE06B004BC9046F0BD82020000D2000020F0B58BB004000F0008AD2800FFF7B2FCAE8800253EE0C1229200A25A5343EB18234AA25A93423ADA6E1DB601D5
:40658000A619214A974218D0BB4201D13E2200E020229900CB1899000B001033E1180B1D1A4968460DF018FDA8014930FF302018043069460DF04AFD0CE0A8014930FF300B
:4065C000201804309A00D3189A001032A218111D0DF03CFD300001F0F7F86B1D9B01E3185889013086B20135A0239B00E35A9D42BBDB2000FFF746FD01003000FFF762FE11
:406600000BB0F0BD82020000FFFF00004C75010030B583B00400150000291AD0012954D1FEF7BAFD2A4B58802A882A4DC1239B00EA5229002000FFF7F7FE27492800FFF77C
:4066400089FF1223112200212448FFF79BFC24483CE06846FFF732FB6B461B88002B32D01C496846FFF73CFD11280DD0FF2815D0102822D11748C1229200835A013B8352E5
:406680001549FFF767FF1CE01248C1229200835A013383521049FFF75DFF12E002221149684601F0E7F800280BD1C1239B00094AD35A2B808020000608E0054A528890429F
:4066C00004D3074802E0064800E0054803B030BD30030020783E0020FFFF00005475010001000080F83D0020F0B585B0040015001E00002909D0012935D10B9B1988C12342
:406700009B00274AD15201232EE002AF3800FFF7D5FA3B88002B24D0214902A8FFF7E0FCFF2819D102221F4902A801F0A3F8002802D0012808D012E0C1239B00184AD35AB4
:406740000B9A1380184829E0C1239B00144AD35A0B9A1380154821E00A9B18801EE0002302E0002300E00023002B16D0210010310B4C0023009333002A002000FFF7C4FDBE
:406780000A9B19882000FFF7E5FE1223112208490848FFF7F7FB084800E0074805B0F0BD783E0020F83D002003000080040000805C75010054750100010000800EB4F0B512
:4067C00057464E464546E0B489B0040011AA02CA079202A80DF040FD0721200000F074FD4D4E3288033A92B2002501950D2300930C3B0021200000F0B3FD0721200000F0AB
:40680000DFFE02A9200000F07DFF200000F0DCFF6089013080B20021FFF754FD27004037328801951123994600930F3B0021380000F096FD0521380000F0C2FE23007A330D
:40684000012290461A704037328801954B4600930E3B0021380000F083FD0821380000F0AFFE2300BA33022291461A7040373288019512239A460093103B0021380000F002
:406880006FFD0521380000F09BFE2300FA3342461A70671CFF3732880195534600930F3B0021380000F05CFD0821380000F088FE23003B33FF334A461A7040373288019587
:4068C00013239A460093113B0021380000F048FD0521380000F074FE23007B33FF3342461A7040373288019553460093103B0021380000F035FD0821380000F061FEBB34E8
:40690000FF344B46237009B01CBC90469946A246F0BC08BC03B01847D200002008B4F0B588B004000E0015000DAA02CA079202A80DF092FC0721200000F0C6FC994B1A88CD
:40694000002301930D3300930C3B0021200000F007FD0721200000F033FE02A9200000F0D1FE200000F030FF6089013080B20021FFF7A8FC2700403701F06EF80388002B2D
:406980000DD1884B1A880C3292B200230193113300930F3B0021380000F0E2FC0CE0814B1A880C3292B2002301930F3300930B3B0021380000F0D4FC0521380000F000FEF0
:4069C0003100380000F09EFE2600803601F044F80388002B0DD1734B1A880C3292B200230193113300930E3B0021300000F0B8FC0CE06C4B1A880C3292B2002301930F3397
:406A000000930A3B0021300000F0AAFC0C21300000F0D6FD2900300000F074FE2500C03501F01AF80388002B0BD15E4B1A880023019312330093103B0021280000F090FC23
:406A40000AE0584B1A8800230193103300930C3B0021280000F084FC0821280000F0B0FD5149280000F04EFE651CFF3500F0F4FF0388002B0BD14B4B1A8800230193123310
:406A800000930F3B0021280000F06AFC0AE0454B1A8800230193103300930B3B0021280000F05EFC0C21280000F08AFD3F49280000F028FE25004135FF3500F0CDFF038830
:406AC000002B0BD1374B1A880023019313330093113B0021280000F043FC0AE0314B1A88002301930F330093093B0021280000F037FC20004530FF3002230093043B0A22EC
:406B000052420A21FFF7F0F91221280000F058FD2749280000F0F6FD264AA0235B00E250280000F051FE25008135FF3500F094FF0388002B0BD11B4B1A880023019313334C
:406B40000093103B0021280000F00AFC0AE0154B1A8800230193103300930A3B0021280000F0FEFB20008530FF3002230093043B0A2252420A21FFF7B7F90E21280000F035
:406B80001FFD0C4B0833C0225200A3500849280000F0B8FD280000F017FE08B0F0BC08BC01B01847D20000206475010068750100ACA80100D80000200CB470B588B0040065
:406BC0000D000CAA02CA079202A80DF045FB0821200000F079FBC64B1A88002301930D3300930C3B0021200000F0BAFB0721200000F0E6FC02A9200000F084FD200000F009
:406C0000E3FD6089013080B20021FFF75BFB2600403600F021FF0388002B0BD1B44B1A8800230193113300930F3B0021300000F097FB0AE0AE4B1A88002301930F33009320
:406C40000B3B0021300000F08BFB0521300000F0B7FC2900300000F055FD012223007A331A70300000F0B0FD2500803500F0F4FE0388002B0BD19E4B1A8800230193113355
:406C800000930E3B0021280000F06AFB0AE0984B1A88002301930F3300930A3B0021280000F05EFB0821280000F08AFC02222300BA331A702500C03500F0CEFE0388002B77
:406CC0000BD18B4B1A880023019312330093103B0021280000F044FB0AE0854B1A88002301930F330093053B0021280000F038FB2000C43002230093043B0A2252420A2164
:406D0000FFF7F2F81221280000F05AFC7949280000F0F8FC784AC023E250280000F054FD651CFF3500F098FE0388002B0BD1704B1A8800230193123300930F3B0021280078
:406D400000F00EFB0AE06A4B1A880023019310330093063B0021280000F002FB601DFF3002230093043B0A2252420A21FFF7BCF80E21280000F024FC5F4B0833802252005D
:406D8000A3505C49280000F0BDFC280000F01CFD25004135FF3500F05FFE0388002B0BD1534B1A8800230193133300930F3B0021280000F0D5FA0AE04D4B1A88002301938E
:406DC00010330093093B0021280000F0C9FA20004530FF30002300930A2252420A21FFF783F80521280000F0EBFB80239B00E2584249280000F086FC23004133FF33404A93
:406E00009A8625008135FF3500F026FE0388002B0BD1374B1A8800230193133300930E3B0021280000F09CFA0AE0314B1A880023019310330093083B0021280000F090FA16
:406E400020008530FF30002300930A2252420A21FFF74AF80521280000F0B2FB81239B00E2582649280000F04DFC23008133FF33234A9A862500C135FF3500F0EDFD0388B7
:406E8000002B0BD11A4B1A8800230193133300930D3B0021280000F063FA0AE0144B1A880023019310330093073B0021280000F057FA2000C530FF30002300930A22524258
:406EC0000A21FFF711F80521280000F079FB82239B00E2580949280000F014FCC134FF34074BA38608B070BC08BC02B01847C046D2000020ACA80100D8000020BCB70100AD
:406F0000EF7B000070B500240BE0A5006E5825008035AD002E50A50145193B3501262E700134022CF1DD1900FFF746FE1223112202490348FFF726F870BDC0465C7501006F
:406F40005475010030B585B01C00002812D0012800D087E0454D13000A0021002800FFF7D1FF089B1A880B9B19782800FFF70EF93F4878E002A8FEF7A1FE02AB1B88002BB0
:406F80006AD00822394902A800F074FC033883B2042B56D89800374B1B589F46089B1B6801930B9B1B8880339B00304A9B58019A944663440A9A934202DA089A136002E07C
:406FC000089B0A9A1A60089B19882848FFF7D0F840E0089B1B6801930B9B1B8880339B00224A9B58019AD31A099A934202DD089A136002E0089B099A1A60089B19881B4851
:40700000FFF7B6F826E000230B9A1380089B1A8800211648FFF7BAF81CE001230B9A1380089B1A8801211148FFF7B0F812E002230B9A1380089B1A8802210C48FFF7A6F88A
:4070400008E002220C4902A800F014FC002805D0012805D0064806E0054804E0074802E0074800E0024805B030BDC046804100200100008020650100F83D00200300008093
:40708000040000800EB430B598B005001BAA10CA1792210012A80DF0DFF800212800FEF7BDFF0021FFF70EF90D4B1A880023019312330093113B002102A800F051F904214A
:4070C00002A800F07DFA210002A800F01BFB02A800F07AFB18B030BC08BC03B01847C046D20000200FB430B599B01CAA02CA179212A80DF0B1F802AC200000F0C9F8144BB3
:407100001A88520092B2002501950F2300930E3B0021200000F024F9009500230A2252420A2103A8FEF7E0FE0521200000F048FA12A9200000F0E6FA01235B42A3862000B2
:4071400000F042FB19B030BC08BC04B01847C046D200002010B50248FFF7C4FF10BDC0466C75010010B5304B02229B5E002B0FD01A001E320EDA1A0043320DDA1A00463220
:407180000CDA1A0050320BDA5A330BDA00240AE0002408E0052406E0042404E0032402E0022400E00124002C0AD1204C2049200000F0A8FA1F4B2386200000F005FB31E0CB
:4071C00022001D49194800F09DFA052C27D8A4001A4B1B599F46174A144B1A860122184B1A801CE0174A114B1A860522144B1A8015E0202252420D4B1A862332104B1A8087
:407200000DE0FC22D200094B1A8602220C4B1A8005E01F22054B1A861B3A094B1A80034800F0D2FA10BDC046204E0020783D002018A7010000F8FFFFBCB70100346501000E
:407240008A02002020FDFFFF10B50100014800F059FA10BDB83D002010B5024800F0B4FA10BDC046B83D002010B5FFF77BFFFFF7F3FF054B1988013989B2044B2722002043
:40728000FEF76AFB10BDC046CE000020FFFF0000002202600A4BC36200234286012149420186084981863A2143542A39C18602870F393C328154013A8354023283547047BC
:4072C0001C760100EF7B000070B506000D00002404E0A0013018FFF7DBFF0134AC42F8DB70BDC046002303604386038683863C330022C2540122013BC2547047F0B5474689
:4073000080B488B0040005000C3528000CF0A6FE80B200281FD03A23E15C03291BD0122819D8E36A1A785B78E68EB046278F05260496039102900197414600916068A1686C
:40734000FEF75CFC638E228E010C80B20195E46A0094FEF727FC08B004BC9046F0BDC046F0B5474680B484B00600009190461D000AAB1C780BAB1F7802A8FEF7A5FD874B82
:407380001A88012F03D11700283FBFB200E017000A2D57D8AB008249CB589F460023B380203AF2804EE00023B380013FF78049E00023B3807F08013FF78043E07B08B3806A
:4073C000013FF7803EE00023B3800321380009F079FB0138F08035E00321380009F072FBB0807800032109F0F7FB0138F08029E07800032109F0F0FBB080013FF78021E048
:407400000023B380BF08013FF7801BE0BB08B3807F08013FF78015E07B08B3807800C719FB1703201840C719BF10013FF78009E07B00DB19DA1703210A40D3189B10B380D3
:40744000013FF78023000C3BDAB2082A00D999E09300544AD3589F460023338195E002AB9B88338191E002AB9C88D888001B0BF0F7FC00224C4B0AF0EFFE0090019120003D
:407480000BF0EEFC009A019B0AF0A4F809F02EFD30817AE002AB9C88D888001B0BF0E0FC424A434B0AF0D8FE0090019120000BF0D7FC009A019B0AF08DF809F017FD30815C
:4074C00063E002AB9C88D888001B0BF0C9FC374A384B0AF0C1FE0090019120000BF0C0FC009A019B0AF076F809F000FD30814CE002AB9C88D888001B0BF0B2FC00222E4B86
:407500000AF0AAFE0090019120000BF0A9FC009A019B0AF05FF809F0E9FC308135E002AB9C88D888001B0BF09BFC00221E4B0AF093FE0090019120000BF092FC009A019BA7
:407540000AF048F809F0D2FC30811EE002AB9C88D888001B0BF084FC0022184B0AF07CFE0090019120000BF07BFC009A019B0AF031F809F0BBFC308107E002ABDB88013302
:40758000338102E06B461B883381338943441D00013D758104B004BC9046F0BDCE00002078750100A47501000000E03F1D5A643BDF4FD53FDF4FE53F0000D03F0000E83FAD
:4075C00070B505000C00FFF763FE142C00D986E0A400474B1B599F4601235B422B8620336B8684E001235B422B86424B6B867EE001235B422B8620336B8678E001235B42B9
:407600002B86FC23DB006B8671E001235B422B8600236B86AB866AE001235B422B8600236B86AB8663E0334B2B8600236B86AB865DE0314B2B8600236B86AB8657E02023C5
:407640005B422B8600236B86AB8650E0FC23DB002B8600236B86AB8649E01F232B8600236B86AB8643E0254B2B8600236B86AB863DE0234B2B8600236B86AB8637E00023B2
:407680002B86013B6B8632E001235B422B86194B6B862CE001235B422B86174B6B8626E001235B422B861F3B6B8620E001235B422B86FC23DB006B8619E001235B422B86B7
:4076C00020336B8613E001235B422B860B4B6B860DE001235B422B86094B6B8607E001235B422B86FC23DB006B86054BAB8670BDC875010000F8FFFF20FDFFFF18C6FFFFD9
:40770000EF7B00000EB410B58BB004000DAA02CA099201A80CF0A0FD20000C3001A90CF095FC0BB010BC08BC03B01847F0B5574680B484B004000F00924600886388C018E9
:407740000BF08EFB00221F4B0AF086FD02900391BD8828000BF084FB00221A4B0AF07CFD02000B00029803990AF0F0FF09F0BEFB86B2A088E388C0180BF072FB0022114B0E
:407780000AF06AFD02900391FC8820000BF068FB00220C4B0AF060FD02000B00029803990AF0D4FF09F0A2FB81B2534601933B68009323002A003000FEF73AF904B004BC1B
:4077C0009246F0BD0000E03F30B583B0041E26D03D23C35C012B22D0828E4068A168FEF71BF9A0882189E2886389013B9BB2013A92B2013189B2013080B2658E0095FEF7D1
:407800006BF83C23E35C012B09D12168002903D0628E201DFFF78AFF2000FFF76FFD03B030BDC04670B506000D00002404E0A0013018FFF7C9FF0134AC42F8DB70BDC046D8
:4078400010B53B23CB5C012B0FD00B1D42888188090411431800FEF77BFA002807D000210120FEF791FA012002E0FF2000E0FF2010BDC046F8B505000F001600002409E03C
:40788000A10179182800FFF7DBFF012801D1A0B203E00134B442F3DBFF20F8BD0120704710B50C4C8022002120000BF0A0FD0A4B80222100002008F0BFF8002806D08022A9
:4078C000002104480BF093FD002001E0FFF7E6FF10BDC0468C430020F85F002010B5FD20800208F005FD002803D003480CF026FB01E0FFF7D5FF10BDE08D010010B50C4CB7
:407900000C4B2380A01C7E2100F026F87E23E052094B80222100002008F0A6F9002804D006480CF00BFB002000E0012010BDC0468C43002039300000F85F0020F88D0100AE
:4079400010B58022002103480BF051FDFFF7D6FF10BDC0468C43002010B50022002303E0845C1B199BB201328A42F9DB584280B210BDC04610B502490248FFF7EDFF10BD95
:40798000060200000C44002010B5114B1968114C114A2000FDF766FB82239B00E45AFFF7E9FF844204D00D480CF0C8FA00200EE00B4908480CF040FB002804D009480CF045
:4079C000BDFA002003E008480CF0B8FA012010BD340300200C4400200A020000148E01003C8E0100488E0100788E010010B5134C0C22134920000BF0F1FCFFF7BBFF8223B7
:407A00009B00E0520F4B5868FDF7ACFA002407E00C4B19686118094B185DFDF7E1FA0134094B9C42F4D9FDF763F9FFF7ADFF002802D006480CF082FA10BDC0460C440020A8
:407A40003C8E01003403002009020000A08E0100004870472044002010B5FFF7F9FF963010BDC04610B501F095F8FFF7F5FF002303803233438010BD10B501F0B7F803F0BB
:407A800057F9FFF7E9FF0388002B03D0012B01D0002303804388002B01D0632B01D93223438010BD10B5FDF7DFF90028FBD0104A5369013B0F494B60126953430B60FFF70D
:407AC00063FF002810D10C480CF038FA0B4A00210B480BF08CFCFFF7C5FF03F01FF9FFF7CBFFFFF783FF01E0FFF7C6FF10BDC0463C37002034030020C88E01000A02000094
:407B00000C44002000487047E844002030B585B004000D00012904D1FFF79EFF4288174B1A6021001031154B1A1D039264220292002201920093124B124A2800FFF702FA64
:407B4000114B984203D0114B984203D013E08020000611E0FFF780FF084B1B684380FFF77BFF4088FCF7FAFCFFF7F4FAFFF73EFF8020000600E0064805B030BD3C0300204E
:407B8000E800002030A5010003000080040000800100008010B582B0002914D001292ED101001031174C083420000CF04FFA16492000FFF767FA1223112214491448FEF700
:407BC000E1F914481CE06846FEF778F86B461B88002B0FD0022210496846FFF74BFE00280AD0012804D1FFF7B5FA07F043FA03E0084805E0074803E08020000600E0054882
:407C000002B010BD3C03002038A501003CA801005475010001000080F83D002010B5024A4832FEF7F5FC10BD3C03002010B5024A4A32FEF7EDFC10BD3C030020F0B55F4685
:407C400056464D464446F0B495B04A4B9B461A8804AC00239A46019311330093103B00212000FFF77DFB2000FFF712FB04212000FFF7A6FC40492000FFF744FD3F4B9946E9
:407C8000E36220235B42984623863A260127A7552000FFF799FDA088143080B261890A3989B2374B0193374D543500950023364AFDF778FF5B461A885346019312330093D4
