:400000000080002011000000390300003903000010B500F0DBFA00F097F9C04670B51222164B1A6001F028F9154801F091FA302000F094FF00F00AFF124A134B1A60134C09
:400040008025ED05256080229200114B1A60114A114B1A6080221206104B1A608022D2020F4B1A6040220F4B1A600F49082000F091FE082000F068FE256070BD300010406B
:40008000001BB7000600008004010B400C020B400003014040FF00800000014008010B4000010B404C0101406513000070B572B601223C4B1A7000240FE03B4862001319B0
:4000C00059000B00411889881A5AC31858880004104300F027F90134E4B2022CEDD9002411E0314EA2001319590071188D8AC88A000428430A8B498B09041143802200F065
:4001000017F90134E4B2002CEBD0274920312748043000F0DDF880225200254B1A800123244A13702449254A1160002224490A6024490A609922120423490A602348244925
:400140000860802000032349086023482349086023490A60234A136023490B783C22934314221343DBB20B70204A117816230B43DBB2137030221E4B1A602D3A1D4B1A60EC
:40018000013A1D4B1A60C02252031C4B1A6077221B4B1A601B4A1C4B1A60FFF73FFF00F0B1F870BD1C700F40F82C0000F82E000000600F4002600F4003033300000202404F
:4001C000000302400803044010500F400400990020500F4024500F400000470728500F4040500F402000104001700F4000700F4008000440000D04400C0D04400801044073
:40020000000204408E611B000802044010B5064C2378002B07D1054B002B02D0044800E000BF0123237010BD5801002000000000F42C0000084B10B5002B03D00749084860
:4002400000E000BF07480368002B00D110BD064B002BFBD09847F9E7000000005C010020F42C0000C80000200000000010B5084B1A68501C1860642102F0F4FC002905D1ED
:4002800001F0CEF8C043C0B201F0BEF810BDC0467401002010B500F0C5FF00240AE0200000F0D8FF002804D10449200000F0CAFF02E00134042CF2D910BDC0466D0200001E
:4002C00010B562B6FFF7E6FF00F0F4FBFEE7C046F0B50025002711E0BB00C658F3B2FF22964308E06A008A181478A419527822700135013BDBB2002BF4D101370A2FEBD965
:40030000F0BDC0460323044A1360044A13600022034B1A607047C0463000304030003140000E3F4010B50A00002102F0D6FC10BD10B502F0C9FC10BD10B502F099FC03686C
:400340000C2B00D1FEE7FEE770B50F4E0F4D13E029686B68AC68002202E001C901C30432A242FAD1E868002202E0002102C304328242FAD11035013E002EE9D102F07EFC14
:40038000FFF79EFFFEE7C046010000008032000010B5114A136801218B43136000230AE0032B03D89A000D49505800E00C4899000C4A885001332F2BF2D9FFF777FE0A4B4C
:4003C0001B68002B02D10022074B1A60024A116801230B43136010BD00001040000000003903000000000020C0000020002306E04218013A12789B189BB2013989B20029C5
:40040000F6D1584280B270470047C04610B58022024B1A6000F0F6FC10BDC046C0000020F0B583B00D006B469E1DDA8001230B7048701400AA70130ACB70171DB9B2280013
:40044000FFF7D4FFE855631D000AE854A31D1722EA540734A1B296233200280000F0FEFF03B0F0BD70B505000E001400002802D0002000F07DFC002004E0013CAB19E35C78
:40048000C018C0B2002CF8D170BDC04610B50C2863D88000404B1B589F460B06591A0B023E4A9446634401225CE00B06591A0B023B4A94466344042254E00B06591A0B02B8
:4004C000384A9446634402224CE00B06591A0B02354A94466344042244E00B06591A0B02324A9446634401223CE00B06591A0B022F4A94466344012234E00B06591A0B02AE
:400500002C4A9446634402222CE00B06591A0B02294A94466344022224E00B06591A0B02264A9446634402221CE00B06591A0B02234A94466344042214E00B06591A0B021B
:40054000204A9446634401220CE00B06591A0B021D4A94466344042204E0002000F008FC02220023012A02D11878C0B200E00020022A03D11978587800020843042A09D1ED
:400580001A785878000210439A7812041043DB781B06184310BDC046A82F0000C0FF0300C1FF0300C5FF0300C9FF0300D0FF0300D1FF0300D6FF0300D2FF0300D4FF030052
:4005C000D8FF0300DCFF0300E0FF030010B50D4B1B68DB0602D400220B4B1A600A4B1B68802B0ED10022084B1A6000210220FFF74DFF002805D000210220FFF747FFFFF7D0
:4006000003FF10BD00030B40C000002070B5050001000320FFF73AFF441C240229000420FFF734FF241829000320FFF72FFF421C12020023002608E01078411EC9B2FD296D
:4006400000D801261B18DBB20132A242F4D35B42DCB229000120FFF719FF844203D1002E03D1062002E0062000E0002070BDC046F0B55F4656464D464446F0B4BA4CA544C7
:40068000050000F0D5FE62B600239A4600270A249946002D01D1FF2300E02B00B34A02A98C4662449621490052A800F0FBFE002D01D0013CE4B2002C01D00028E9D100281C
:4006C00000D0E5E1A94B02AA944663441B88062B24D952AA1278012A22D152A9CA78120289780A439146110007329A421AD896235B009A4218D84A1D52AB9E5C3202081DA9
:400700001E5C164306315B5C172B0FD181B252A8FFF76CFE86420BD100260AE0042608E0042606E0032604E0032602E0042600E00826002E00D055E152AB1A7993465A78B4
:400740001300313BD9B20A2900D91BE18B008849CB589F46012F00D046E14B46002B00D045E10020FFF752FF4342434152AA1371012286E1012F00D03CE14B46012B00D006
:400780003BE15B46002B00D03AE17A4B1B681B689A0CD2B2934503D11B0A9B059B0D05E0934501D9002301E08023DB0052AA13711B0A5371FF239371FC3BD371042260E1CE
:4007C000342A0ED1012F00D01DE14B46032B00D01CE1CC32002107A802F07FFA80235B009A46012F00D014E14B46022B00D813E107A85044DA1E4821FF3102AB9C46614494
:4008000002F062FA4B4653449BB20422FF32934200D004E152AA93791B02527913439A46554B9A4500D90A26002E00D0FFE05B46980280B2504480B24E4B1B681A68130A9B
:400840009BB2FF21114201D001339BB2834200D9F2E007A900F06AF9002800D1F4E000239A460133FF3399460A26002209E1012F00D10BE10426002203E1012F00D0EAE0BB
:400880004B46534496225200934200D9E6E007A850444A4653A902F017FA53464B449BB29A460022EDE04B46002B00D0D9E004AA324B03CB03C253AA04AB03CB03C2002317
:4008C0009A4601270822DCE0012F00D0CCE04B46032B00D0CBE052AA93791B025279134398465B46990241440902234B984500D90A26002E00D0BDE0802252000020FFF73B
:40090000B1FD030001905A46920292B2424492B25946002913D118498A4210D100210520FFF7B4FDC0B2019B1B1ADBB2984600210620FFF7ABFDC3B24246D31ADBB25B42E5
:4009400052AA137101229CE00020FFF75FFE002802D180220A4B1A6000F076FD00F052FA042600228DE0C04684FDFFFF6E020000DC2F0000CC000020FF03000008300000FB
:40098000C00000204A4B1E68002E75D0012F76D102AB1A704A465A8053AB03930C22002104A802F09AF904AB9B4653AA0692190002A8B0475B469A882623FF339A4203D9C8
:4009C00053AB0699994207D0069B002B01D1002A05D1049BDEB254E00E26002251E00E2600224EE000224CE00426002249E00426002246E00426002243E00426002240E08C
:400A0000042600223DE0042600223AE00426002237E00426002234E00426002231E000239A460133FF3399460326002229E080235B009946002224E000239A460133FF33BF
:400A400099460A2600221CE000239A460133FF339946002215E00426002212E0032600220FE0042600220CE00426002209E00426002206E0002204E00526002201E0052674
:400A8000002252A93000FFF7CBFC01E000239A46002D00D1FDE5012F00D1FAE59F239B009D443CBC90469946A246AB46F0BDC0467801002070B50020FFF7A8FD002801D09F
:400AC000062400E00024154D2B681A68C03AC0210020FFF7C7FC6B681B78C01AC0B24042C0B2834204D10D4B1B681B68002B02D1002000F03DF90A4B1B68402B01D0002C7B
:400B000005D00022064B1A600020FFF7B1FD0A20FFF7AEFDFFF77AFC70BDC046CC000020C0000020002070470020704730B5C5B004000023439342933D4B984272D800294A
:400B400070D08022520002A802F0BEF8394B9C4201D9394B00E0394B0093FF230193384B6A461A603749384A1160C0461B681B0F1B07F0221206934204D1314B1B68FF2299
:400B800013400DE02E4B1B681B0F1B07A0221206934204D02A4B1B68FF22134000E000234393439B002B3FD100F0DBFC0500FFF7B9FF4290439B002B25D1244A0092009AE7
:400BC0002404144300941E4A6946116020481E490860C0461268120F1207F02109068A4204D1174B1B68FF2213400BE0144A1268120F1207A02109068A4203D0104B1B6805
:400C0000FF2213404393429B002B07D1FFF78CFF4290429B002B01D0429B4393280000F0A4FC01E004234393439845B030BDC046FF030000FF010000B6D70001B6D7000035
:400C4000080010400400008004001040B6D800000500008070B5040000F083FC0500102C05D8104A136803218B43136016E0202C07D80C490B6803229343023A13430B6060
:400C80000CE0302C07D807490B6803229343013A13430B6002E0002000F06AF8280000F064FC70BD30001040024A1168024B0B401360704700002240FFFFFFBF034B186867
:400CC0008023DB05184000D001207047000022400A4A136801218B431360094B1A681E318A43084802601A688A4317390A431A60054A116802230B431360704750000C40D2
:400D000034FF0B407C01002024002C40064A136802218B43136005490B681F229343044A126813430B60704724002C4034FF0B407C010020034B1B680220184000D00120DA
:400D40007047C04624002C401F2318401E3B8340014A13607047C04600E100E01F2318401E3B8340014A13607047C04680E100E001BE704770B504000D000F2802D90020E4
:400D8000FFF7F6FFA40080239B059C4664442068256070BD70B504000D001F2802D90020FFF7E6FF1034A40080239B059C4664442068256070BDC04670B504000E000329F2
:400DC00002D90020FFF7D4FF1F2C02D90020FFF7CFFF03252540ED00063500F0C2FBA408A400074B9C46644421680323AB4099430B003100A9401943216000F0B6FB70BD51
:400E000000E400E0034A13681B041B0C02490B43136070470CED00E00400FA0510B5040006E0084B586800F093FB074B9C46644480231B029C42F4D8024B9868604300F0DB
:400E400087FB10BDD40000200080FFFF30B583B000F032FA00285FD000F083FB04002F4A116801230B43136000230AE02C4A12683F210A402B49C95C8A4201D1033303E0E6
:400E800001332D2BF2D90323274A1268D20606D1254802681F218A4313390A430260234A1168234A0A40234959438020C00184466144C90B01394905490D0A43A0214903BB
:400EC00011430800192B02D81B4B1A430EE01B4A9A1812781A3B1349C9183023CB5CD318FF2B00D9FF239B0502001A430F4B1A60134D2B6801933020FFF7ACFE114A1368EA
:400F00008021C9050B4313601420FFF787FF019B2B60200000F029FB03B030BD50000C402CFF0B401030000034FF0B400800224000F800C040420F000000D43F4DF3FF0FF2
:400F4000300010400000224010B5034B1B7B584300F0FEFA10BDC046D4000020F0B55F4656464D464446F0B483B0040000F0F9FA0190FFF7A3FE002804D0FFF795FE01230A
:400F80009B4601E000239B46FFF7D4FE002807D0182C01D0302C05D1FFF7B8FE012502E0002500E00025E71E2D2F00D985E04E4B1B78DBB29C4208D84C4B1B78DBB29A46D2
:400FC0004B4B1B78DBB2994631E04A4B1B78DBB29C4208D8484B1B78DBB29A46474B1B78DBB2994623E0464B1B78DBB29C4208D8444B1B78DBB29A46434B1B78DBB2994626
:4010000015E0424B1B78DBB29C4208D8404B1B78DBB29A463F4B1B78DBB2994607E03E4B1B78DBB29A463D4B1B78DBB299463C4BDB5D98462F2B09D92A2C07D91922394B77
:401040001A60052000F084FA192603E0354B1E683F231E40464506D9314BDA5D314B1A60052000F075FA012D05D1302C03D12E4B1B78DBB20CE0012D05D1182C03D12B4B99
:401080001B78DBB204E0254B9C4664442378DBB2274A1360274B52461A60274B4A461A600520FFF751FF46450AD21D4BDA5D1D4B1A60052000F04CFA02E00020FFF758FE2A
:4010C0005B46012B01D1FFF7C1FE012D01D1FFF7FFFD019800F049FA03B03CBC90469946A246AB46F0BDC04640F3FF0F41F3FF0F42F3FF0F43F3FF0F44F3FF0F45F3FF0F5D
:4011000046F3FF0F47F3FF0F48F3FF0F49F3FF0F4AF3FF0F4BF3FF0F4CF3FF0F4DF3FF0F103000002CFF0B403FF3FF0F3EF3FF0F28FF0B401CFF0B4020FF0B40024A11681F
:4011400002230B431360704710E000E010B5FFF7F5FF034A116801230B43136010BDC04610E000E00002000A014B18607047C04614E000E0012805D1054A116804230B4368
:40118000136004E0024A136804218B431360704710E000E0024B1868000C01231840704710E000E010B5FFF7F5FF01280CD108E0A300064AD3185B68002B00D098470134FB
:4011C00000E00024042CF3D910BDC0467C0100200022014B1A60704718E000E010B5002305E09A000C498A18002151600133042BF7D90A490F20FFF7BDFD0120FFF7BAFFA3
:40120000074B1869FA21890001F0A6FCFFF7AAFFFFF7DEFF10BDC0467C010020A5110000D400002010B5064B9B69002B04D1FFF7D5FF0122024B9A61FFF788FF10BDC04679
:401240007C0100208000024B1B185868596070477C0100208000024B181840687047C0467C010020034B1868C0231B02184000D00120704700010B4010B50D4B1A6801212A
:401280008A431A601A68022082431A60094A10683024A043203C204310601068093CA043014311601A68802109060A431A6010BD00002240000F2240034B1B68002B01DA0E
:4012C000012000E0002070470000224010B500F048F9044A1368C02109020B43136000F044F910BD00010B4010B500F03AF908490A68084B1A408024E40122430A600A68E0
:4013000013408022120213430B6000F02EF910BD00010B40FF3FFFFF70B5050000F021F90400FFF79FFF002803D0FFF7DDFF012100E0002108482840084A1568084B2B4076
:40134000184310601368012901D1FFF7BFFF200000F00BF970BDC0460404040010020B40FBFBFBFF10B5244B1B685B0715D5234B5B685B070ED5224B596A042001401F4C5E
:4013800062688A4362605A6A82435A629B69002B00D098470420FFF7BFFF174B1B685B0518D5164B5B685B0510D5154B596A8022D2001140114842688A434260596A114AC6
:4013C0000A405A62DB69002B00D098478020C000FFF7A2FF084B1B685B030CD5074B5B685B0304D5064B1B6A002B00D098478020C002FFF791FF10BD10020B40E8000020A7
:4014000098010020FFFBFFFF04490A68D2B202239A434000184010430860704700000440024B186840080123184070470400044010B562B60221002000F06AF90122014BF6
:401440001A7010BDC001002010B500F0A9F910BD10B5012000F068FA10BDC04670B50E0015009A009B185C00A4B240220100022000F00CFA04E00120FFF7D0FC013CA4B2E9
:40148000022000F0DFF9002801D1002CF3D1022000F0D8F9002802D02E80002000E0102070BDC046F0B583B001900F0016009A009B185C00A4B2402900D94027224B1B7834
:4014C000002B06D118E00120FFF7A8FC013DADB200E0250000F0A2F9002801D1002DF2D100F09CF9002817D000F09EF9FFF7B0FF0022154B1A700FE000F096F900280BD0E3
:4015000000F08CF9002807D0FFF7A2FF04E00120FFF784FC013CA4B2012000F093F9012801D0002CF3D1012000F08CF9012806D13A00019900F010FA3080002002E00023D2
:401540003380102003B0F0BDC0010020000000000230800803D00138FDD1C046C046C0467047EFF3108072B6704780F31088704710B50122244B1A60244A136820218B430E
:4015800013600A22224B1A60224C234B23602368224A1343236023680422934323600220FFF7D2FC2368082293432360FFF7C2FB002800D002201A4B18601A4A1A4B1A608B
:4015C00007221A4B1A6003211E20FFF7F5FB18491E20FFF7DFFB03211F20FFF7EDFB15491F20FFF7D7FB03210020FFF7E5FB12490020FFF7CFFB03210520FFF7DDFB0F49C2
:401600000520FFF7C7FB10BD74022C4048002C4030032C4000202C40010000040C0000B824002C401A00050030202C4028202C40CD1E00004D1F00000D1F0000352200007D
:4016400010B50C00002304E00121234AD1540133DBB2002BF8D0214B18700023204A1370204A1370204A1370204A1370204A1370204A1370204A13701E20FFF765FB0020E4
:40168000FFF762FB1F20FFF75FFB002C02D0012C06D00BE0194A136801218B4313600AE0164A116801230B43136004E0134A116801230B43136011490B68042293430B60A0
:4016C00000210F4B196001310E4B19607F310E4B19600E4B1A6010BD68020020DC010020E2010020E0010020E1010020DD010020C8010020DF0100205802002024002C4052
:40170000A4002C40A0002C4020002C4048002C4070B504000D00074B1B78002B04D1FFF727FF0122034B1A7029002000FFF788FF70BDC046C1010020002304E001210E4ABF
:40174000D1540133DBB2002BF8D000230B4A13700B4A13700B4A13700B4A13700B4A13700B4A13700B4A137001220B4B1A607F320A4B1A607047C04668020020E2010020C8
:40178000E0010020E1010020DD010020C8010020DF01002058020020A0002C4020002C4010B5FFF7DEFE144A136880218B431360124A13687C398B431360114A13685B00DD
:4017C0005B081360FFF7D1FE1E20FFF7C7FA1F20FFF7C4FA0020FFF7C1FA0023094A1370094A1370094A1370094A1370094A1370094A137010BDC04620002C4048002C405B
:4018000000202C40E0010020E1010020DD010020C8010020DF010020C1010020014B1878C0B27047E1010020054B1B78002B05D0034B1878C0B200221A7000E000207047B3
:40184000E0010020430018188300024AD3185878C0B27047EC010020431EDBB2072B10D88301094A985880B20002F02212011040054A944663445B68184380B2023880B230
:4018800000E000207047C046F0FF2B40F0B5431EDBB2072B41D8060044002418A3001F4CE318DC8880239B001B1B9A4209D9420012189300194AD318DA8880239B009A1A6D
:4018C00092B2130A45002D18AC00144D2C19E4781C438301124D5C51D4B2AC4663445C60002909D10BE0CD5CB4010E4FBC466444256201339BB200E000239A42F3D84200BE
:4019000012189300054AD31800225A705B79DBB28001034A944660448360F0BDEC010020F0FF2B40C0012C40431EDBB2072B0DD8420012189300064AD31800225A705B79F4
:40194000DBB28001034A9446604483607047C046EC010020F0FF2B4070B505000E00140000291BD000281BD008281BD8FFF774FFA04203D22800FFF76FFF0400002307E037
:40198000AA010A498C466244126AF25401339BB2A342F5D32800FFF7C7FF04E0002402E0002400E00024200070BDC046C0012C4010B51F4B1B781F4A1188CB189BB21380C4
:4019C00000210EE01C4B5A681278D2B28C001B4822505A6801325A6001311A88013A92B21A80154B1B889BB2002B01D00729E9D90F4B1B78082B01D000290DD0104A10788D
:401A000080235B424340DBB213700F220D4B1A700D3A0D4B1A7004E002230A4A13700A4A1370C9B2094B1970014B197010BDC046580200205E020020D001002000002C4089
:401A4000DE010020C9010020E2010020590200200222074B1A707E32064B1A70713A064B1A700023054A1370054A137001207047E2010020DE010020C901002058020020E9
:401A80005902002010B5FFF793FF10BD30B5194B1B680F2119400239174A1088FF230B40C3189BB2138000200FE0144B5C688500134AAA58D2B222705A6801325A600130D4
:401AC00001391A88013A92B21A800C4B1B889BB2002B01D00029E8D1C9B20A4B19700A4A117880235B424B40DBB213700B22074B1A7030BDA4002C405E020020D001002044
:401B000000002C4059020020DE010020C90100200623064A1370064A13708022054B1A700022054B1A7001207047C046E2010020C9010020DE01002059020020064B9B68F5
:401B4000002B08D0044B9A6810709A6803490988518000229A607047D00100205E02002010B5144B1A68FF210A401A601B68DAB21B0602D5104B1A701BE00220FFF7DEFF37
:401B80000E4B1B6860221340202B06D0402B07D0002B08D100F006FE06E000F0B1FF03E000F08AFF00E00020002802D10322024B1A7010BDA0002C40C901002000002C4011
:401BC00010B5084B1B78084A1188CB189BB213800022064B1A700120FFF7B0FF0322044B1A7010BD580200205E020020E2010020C901002010B50B4B1B78DBB2042B06D0D7
:401C0000062B07D0022B0BD1FFF7DAFF08E0FFF73DFF05E00320FFF791FF0322024B1A7010BDC046E2010020C901002010B50022044B1A700120FFF781FF0322024B1A700D
:401C400010BDC046E2010020C901002010B50C4B1B78002B09D00A4A117880235B420B43DBB208490B60002313700022064B1A700120FFF763FF0322044B1A7010BDC04650
:401C8000C801002020002C40E2010020C901002010B5094B1B78DBB2042B06D0062B07D0022B07D1FFF7EEFE04E0FFF7BFFF01E0FFF7CCFF10BDC046E201002010B5264B4F
:401CC0001B68DA0643D51A060CD50F221340012B14D1FFF745FF214B1B785BB2002B0FDB012310E05A0603D5FFF7D2FF01230AE09B0607D5FFF77EFF012304E0002302E05A
:401D0000002300E00023002B21D0134B1B681B061DD4134B1B78134A12781343124A13601268934213D10D4B1B78DBB20A4A1268120607D4094B1B78DBB2074A1360136852
:401D40000F221340054A1278D2B29342EBD10422064B1A6010BDC046A0002C40C9010020DE01002059020020A4002C4020202C400022064B1A80064B9B68002B05D0044A52
:401D8000916800230B709268538070475E020020D001002010B5114B1B889BB2002B02D1FFF756FE17E002220D4B1A7000220D4B1A70FFF7DDFF0C4AD3691B029BB2926974
:401DC00013439BB2054A128892B2934201D2034A1380FFF7EDFD012010BDC046D0010020E2010020DE01002000002C4010B504220C4B1A707C320C4B1A70FFF7B9FF0B4AFA
:401E0000D3691B029BB2926913439BB2084A128892B2934201D2064A13800B22054B1A70012010BDE2010020DE01002000002C40D0010020C901002001220A4B1A600A4B1E
:401E40009B6C0A4B1A7B03231340012B06D0074AD17B80235B424B40DBB2D3730122034B5A7370472C002C40F0FF2B40EC01002002220B4B1A6088230A4AD3580A4B1A7EBC
:401E800003231340012B06D0074AD17E80235B424B40DBB2D3760122034B5A767047C0462C002C40F0FF2B40EC0100200122014B1A60704720202C4010B50222024B1A606D
:401EC000FFF73AFC10BDC04620202C4070B50D4B1D682B0601D5002398470F2422002A40EC08FF235B011C401443002507E0E30703D5AB00044A9B58984764080135002CE1
:401F0000F5D170BD34202C405830000070B50D4B1D682B0601D5002398470F2422002A40EC08FF235B011C401443002507E0E30703D5AB00044A9B58984764080135002C10
:401F4000F5D170BD38202C405830000070B50D4B1D682B0601D5002398470F2422002A40EC08FF235B011C401443002507E0E30703D5AB00044A9B58984764080135002CCC
:401F8000F5D170BD3C202C405830000010B50C4B18780138C0B200F09DF90A4B1B69FF221A40931CDB00C0184168074B9B5CDB00CB185B68596A0B78044A1380516010BD33
:401FC000E101002000002C40CC010020D001002010B50E4B18780138C0B200F07BF90C4B1B69FF221A40931CDB00C0184168094B9B5CDB00CB185B68DB695A7812021978F0
:402000000A4305490A8002334B6010BDE101002000002C40CC010020D001002070B500221C4B1A801C4B18780138C0B200F052F91A4BD968CCB21B69DDB2FF221A40931CFC
:40204000DB00C0184068002D23D1154B9B5CDB00C3185B68013CE4B2022C1AD8FF221140104A94466144C90059180C4B9B68D8B20A7890420DD84968FF2213405A00D31815
:402080009A008B18034A59685160198811809B68936070BDD0010020E101002000002C40CC010020FFFFFF1F10B55D4B1A69D1B21B681B0651D55A4B5B68022B2FD002D8BC
:4020C000012B22D090E0032B3AD0062B00D08BE0534BDB68212B0AD1FFF758FF514B1B889BB2002B00D181E0FFF754FE97E04C4BDB68222B7CD1FFF76BFF4A4B1B889BB258
:40210000002B77D0FFF746FE89E0FFF787FF454B1B889BB2002B6FD0FFF73CFE7FE000296CD13F4B9B68002B6AD13E4901330B80FE331A403C4BD2184A60FFF72BFE6EE0E3
:4021400000295FD1374901230B80FE331A40374BD2184A60FFF71EFE61E0314B5B680A2B0DD00B2B30D0092B4ED1FFF757FF2D4B1B889BB2002B49D0FFF738FE4FE000298D
:4021800046D1274B9B68002B44D1FF331A40244BDB68DBB224498B54895CC9B2244B9B5CDBB2994203D20021214B995409E0204B9B5CDBB2012B04D91B4B9B5CDBB21C498F
:4021C0008B54FFF7A5FC2AE0002925D1144B9B68012B23D8FF231A40114B9B68DBB213498B54FFF795FC1AE0002018E0002016E0002014E0002012E0002010E000200EE021
:4022000000200CE000200AE0002008E0002006E0002004E0002002E0002000E0002010BD00002C40D001002060020020680200206402002010B500F05BFC10BD10B50123D6
:4022400038E09A010C201E4950505900C9188A001C498A185279002A16D05900C9188A0018498A18127952B2002A06DA9A0116498C4662440C2191600CE09A0112498C462E
:4022800062440821916005E09A010F498C466244802191605900C9188A000A498A18D18889B29801094C0419A160D28892B2074942500133082BC4D9FF22054B1A6010BDE7
:4022C000C0012C40EC010020F0FF2B40D0112C4028002C40074B1B78DB00074AD3185B681A7C824204D9C00010301818406800E000207047DC010020F8300000F0B557467D
:402300004E464546E0B43F4B1B78002B75D03D4B18780138C0B2FFF7DDFF047AC3683A4A1078C0B2002266E01978884261D13749095CC9B25D78A9425BD199787F25294042
:40234000DD7803262E40B446314DA8464E007718BD004544AA460027EF709F782F71DF78B9467618B70046464D46BD559E8855462E8102255D57002D0EDA6546012D01D1E4
:40238000072700E00D274E007618B500204E75196F7101266E700DE06546012D01D1052700E009274E007618B500194E75196F7100266E708D01174EB146A94401264F4698
:4023C000BE604E0071188E00114989190E89360AB046104E4746AF510E89F6B24F467E60CE88B6B20C4FEF19BE60C98889B20A4EA95108330132A24296D31CBC904699468F
:40240000A246F0BDE1010020DD010020CC010020EC010020F0FF2B40D0112C40034B1B78DB00034AD31858687047C046DC010020F830000010B5084B18780138C0B2FFF787
:4024400049FF002806D043681B790233DB00C018406800E0002010BDE1010020F0B557464E464546E0B4002312E06E4E5900CC18A20000249455B2189470D47000251481FA
:4024800095725570C9188A00B21855710133DBB2082BEAD9002808D10AE000226249CA546249CA540133DBB200E00023002BF4D05F4B1B78002B00D1AFE05D4B1878013813
:4024C000C0B2FFF707FF82464368DB795B0606D5584A117801230B43DBB2137004E0554A137801218B43137053461E7A012465E05346D96800235DE08A787F252A40944282
:4025000055D1270065002D19AA00464DAA18128992B28D88AA4208D262009446A4446246920040488446624415810A783E4DAA5CD2B24D78AA423AD18A789146394A944675
:402540007A00D0198500654448462871C878D21995006246A854CA7803252A4002254D57002D12DA012A02D10632914601E00D2291462C4A94467A00D01985006544484624
:4025800068712A000125557011E0012A02D10432914601E009229146224A94467A00D01985006544484668712A000025557008310133DBB2B3429FD30134E4B2082C97D92C
:4025C0005346D86800220CE083787F210B4004785900CB189900134B59188C7208300132D2B2B242F0D3FFF725FF134B1860002201230EE00B4D5900C81884002C19E2806A
:4026000021898A1891B201220A4089188AB20133DBB2082BEED9FFF711FE1CBC90469946A246F0BDEC010020CC0100205C020020E1010020DF010020E801002010B5174B35
:402640001B697F2213405A1E072A24D85900C9188A0013498A18907801210143C9B291700021D170507802210143C9B25170127952B2002A06DA9B010A4A944663448D220B
:402680009A6005E09B01074A9446634489229A60FFF73EFA00E0002010BDC04600002C40EC010020F0FF2B4010B5274B1B697F2213405A1E072A45D85900C9188A002349AF
:4026C0008A1891780120814391700021D1709901812464421E480C505178022081435170127952B2002A15DA5900C9188A0017498A185278012A06D19B01154A944663441A
:402700000C229A601BE09B01114A944663440D229A6014E05900C9188A000C498A185278012A06D19B010A4A9446634408229A6005E09B01064A9446634409229A60FFF758
:40274000E7F900E0002010BD00002C40EC010020F0FF2B4070B50F4B1C69E5B20E4B18780138C0B2FFF7B6FD43681B799D4201D9012D0CD8FF2323400849CA5CD2B2084827
:40278000C254044A9268D2B2CA54012000E0002070BDC04600002C40E1010020CC0100205C02002010B5B34B1B680021B24A11801A0600D4A2E0AF4A5268062A0AD002D8EB
:4027C000002A5FD038E1082A00D184E00A2A00D189E031E1A74BDB68012B09D1FFF71EFE4268A54B5A6012221A80FFF7D3FA40E1A04BDB68022B14D19E4B9868C0B2FFF79C
:4028000069FD002800D119E143689B4A53605368DB781B02516889780B431380FFF7BAFA27E1944BDB68032B05D028E0117852180133DBB201E00023904A8E498968994222
:4028400002D911780029F1D18A4B9B68EE2B00D18B4A884B9B68002B06D0864B9968894B1B7C994200D1884A1378002B00D1E7E0137881490B804A60FFF78CFAF9E000F0C3
:402880003FF9F6E00322134017D0022B00D0D9E079490B80774B1B697C3213405A00D3189A007A4B9A189278D2B2794B1A7000225A704B60FFF76EFADBE06F4902230B8017
:4028C000744B1A78D2B2724B1A7000225A704B60FFF760FACDE0684B01221A806E4A5A60FFF758FAC5E0644A01231380614B19696A4BCB185360FFF74DFABAE05D4A526843
:402900000B2A00D9A0E0920065498A589746594B9B68DBB2634A1370FFF7FAF8A9E0554B9C68002C03D0601EC0B2FFF7D3FC002C01D0002802D1002C00D087E0564B1B784E
:40294000DBB29C4208D0E4B2534B1C700122564B1A700120FFF782FDFFF7DAF889E0FFF7F9FE002874D0434B19691B69DBB24F4A13704F4B5A5CD2B2484B5B5CDBB29A4222
:4029800004D00122484B1A70FFF7B8FCFFF7C0F86FE003221340012B16D0002B08D0022B58D1344B9B68002B56D1FFF77DFE60E0304B9B68012B51D1364A137802218B432C
:4029C0001370FFF7A5F854E02A4B1B69002B47D1284B98681A6937498B5C83438B54FFF797F846E003221340012B17D0002B08D0022B37D11F4B9B68002B35D1FFF71EFE31
:402A000037E01C4B9B68012B30D1224A117802230B43DBB21370FFF77BF82AE0154B1B69002B25D1134B98681A6922498B5C83438B54FFF76DF81CE000201AE0002018E097
:402A4000002016E0002014E0002012E0002010E000200EE000200CE000200AE0002008E0002006E0002004E0002002E0002000E0002010BD00002C40D0010020C83100008F
:402A8000E430000048320000BC310000EC010020C4010020DF010020E1010020CC0100208C300000C8010020E0010020DD0100205C020020E401002010B50A4B1B681B06D5
:402AC0000BD5084B5B68012B09D1074B074A5A6012781A80FFF75EF902E0002000E0002010BDC04600002C40D0010020BC300000024A10680123184010607047100D044026
:402B000010B5124B1B6803221340012B02D0022B04D00FE00D4B1B69DBB20CE00B4B1B697F2213405A00D3189A00094B9A18937ADBB200E00023074A1268D35C032B02D1EA
:402B4000FFF7B2FA00E0002010BDC04600002C40EC010020E8010020002243088B4274D303098B425FD3030A8B4244D3030B8B4228D3030C8B420DD3FF22090212BA030C48
:402B80008B4202D31212090265D0030B8B4219D300E0090AC30B8B4201D3CB03C01A5241830B8B4201D38B03C01A5241430B8B4201D34B03C01A5241030B8B4201D30B031A
:402BC000C01A5241C30A8B4201D3CB02C01A5241830A8B4201D38B02C01A5241430A8B4201D34B02C01A5241030A8B4201D30B02C01A5241CDD2C3098B4201D3CB01C01A16
:402C0000524183098B4201D38B01C01A524143098B4201D34B01C01A524103098B4201D30B01C01A5241C3088B4201D3CB00C01A524183088B4201D38B00C01A52414308FC
:402C40008B4201D34B00C01A5241411A00D20146524110467047FFE701B5002000F006F802BDC0460029F7D076E770477047C046014B18687047C046500100200E4B70B53F
:402C800000251E000D4CE41AA410A54204D0AB00F35898470135F8E700F0E0FA084B00251E00084CE41AA410A54204D0AB00F35898470135F8E770BD6832000068320000B5
:402CC0006832000070320000002310B59A4203D0CC5CC4540133F9E710BD03008218934202D019700133FAE77047000000340000800000000000000000300F40800400355B
:402D00000F40000300400F400008000080340F40282F000080000000850F0402060808020A0D0C0D10021204140D200D240D280D2C012E02320F3A0858045F01001402015F
:402D400004060510070209060C220E201028110113401511160118101D101E201F0827082CA02D903610374A3D083E803F20450A47224C014D884F605501569A65106C2A71
:402D80006D116F407480760186808C028D04C0F7C27CC4DFCAF0CCF0CE70D0E0D230D820001A0418060209080A100B330C010D250E080F081008121214121608180C191C74
:402DC0001A031C031E041F02201A24082C022D282F17300F3410353C370339203A023E105440580459045B045F018104840486088D17900E91029201930C950C9702990A89
:402E00009B049D0EA004A10EA512A705A902AC01AD11AE0AAF02B008B107B308B407B710BA20BE01BF44D409D804D904DB04DF010004044005100608075009020C0A0D4045
:402E40000E04110213401480162218041A841B101C401D021F122108234126A028802A212B1A2F02302A335036A039803A023B403F60582159085A806301661067226C017B
:402E8000800184208602880189088D108E208F019404974099089A1B9B40A02AA101A308A50AA680A710AB08AF20C0F4C2F8C4B9CA1FCC3FCE39D60FD878E2906801DA409B
:402EC000A401078053045702660867028704A401C020D420D6A0D880E610830188018E0897029E08A401AB02AF80E620E840EA202D088908CA01E2011201130101000F40D1
:402F000011340F4032350F4048360F4046370F4002400F4001410F400C420F400B430F4004470F4002600F4003003C007904060002560D0915606A00400A0010100160002D
:402F4000400400000004000040040000000400000000400440070038000070000F7F0000002028000000000046053000020EFBCD3DFFFFFF2200F0080400000000000224E7
:402F800004040404000000010000C00040011011C001001140014001000000000000000000000000000000005A0500009A040000AA040000BA040000CA040000DA04000075
:402FC000EA0400000A050000FA0400001A0500002A0500003A0500004A050000540700007407000084090000C00700006E080000840900007A080000A6080000C0070000D6
:40300000C808000048090000A011111000320101030405060708090A0B0C0E0F101112131415161718191B1C1D1E1F2021222325262728292A2B2E2F303132333435000079
:40304000EEDBC9B9AA9B8E82766B60564D443B332C241D17100A0400AD1E0000B91E0000BD1C00000000000000000000391E0000711E000000000000000000000000000017
:40308000000000000000000000000000482A000092290000482A0000E4290000482A00000E290000482A0000482A0000482A00001E290000482A00005E29000028000000FD
:4030C00000010400010000000000000000014359555342000000303030303100000000000000000012034D005300460054003100300030000100000001000000003100003F
:40310000010000004832000000000000000000000100000018310000010000001C320000020000003C310000010000004C310000000000003831000003000000000001031E
:4031400040000300000082034000030001000000543100000000000088310000000000007C31000000000000000000000100000094310000010000002E32000041000000F0
:40318000B4020020F802002041000000700200206C020020240005010900A1000900A1000900150025FF7508954091020900150025FF750895408102C0C000000A03300045
:4031C0003000300031000000040309042C0343007900700072006500730073002000530065006D00690063006F006E0064007500630074006F0072002203500053006F005C
:4032000043003300200042006F006F0074006C006F00610064006500720000000902290001010080190904000002030000020921110100012224000705010340000107052A
:4032400082034000010000001201000200000008B4041DB70130010280014300F8B5C046F8BC08BC9E4670473502000091030000F8B5C046F8BC08BC9E4670470D02000081
:4032800090320000C800002090000000A801000000000000EC2C0000F02C0000010000000000C05D80BB000030000000006CDC02F000000004040400000000000000000028
:4032C0000000000000000000000000000000000000000000000000005A32000000000000000000000000000000000000000000000000000000000000000000000000000042
:40330000000000000000000000000000000000000000000000000000F00000200000000000000000000000000000000000000000000000000000000000000000000000007D
:40334000000000000000000000000000000000000000000000000000000000000000000000000000000000000000000000000000000000000000000000000000000000004D
:40338000000000000000000000000000000000000000000000000000000000000000000000000000000000000000000000000000000000000000000000000000000000000D
:4033C00000000000000000000000000000000000000000000000000000000000000000000000000000000000000000000000000000000000000000000000000000000000CD
:40340000000000000000000000000000000000000000000000000000000000000000000000000000000000000000000000000000000000000000000000000000000000008C
:020000040003F7
:40FFC0000000000000000000000000000000000000000000010000000000000000000000000000000000000000000000000000000000000000000000000000000000000000
:0200000490303A
:020000004F5D52
:0200000490402A
:4000000000000000000000000000000000000000000000000000000000000000000000000000000000000000000000000000000000000000000000000000000000000000C0
:400040000000000000000000000000000000000000000000000000000000000000000000000000000000000000000000000000000000000000000000000000000000000080
:0200000490501A
:0C0000000002101111A00000102160FD92
:0200000490600A
:0100000001FE
:00000001FF