:400000000080002011000000390300003903000010B500F0DBFA00F097F9C04670B51222164B1A6001F0D4F9154801F03DFB302001F052F800F0C4FF124A134B1A60134C3E
:400040008025ED05256080229200114B1A60114A114B1A6080221206104B1A608022D2020F4B1A6040220F4B1A600F49082000F04BFF082000F022FF256070BD30001040F5
:40008000001BB7000600008004010B400C020B400003014040FF00800000014008010B4000010B404C010140BD14000070B572B601223C4B1A7000240FE03B486200131957
:4000C00059000B00411889881A5AC31858880004104300F027F90134E4B2022CEDD9002411E0314EA2001319590071188D8AC88A000428430A8B498B09041143802200F065
:4001000017F90134E4B2002CEBD0274920312748043000F0DDF880225200254B1A800123244A13702449254A1160002224490A6024490A609922120423490A602348244925
:400140000860802000032349086023482349086023490A60234A136023490B783C22934314221343DBB20B70204A117816230B43DBB2137030221E4B1A602D3A1D4B1A60EC
:40018000013A1D4B1A60C02252031C4B1A6077221B4B1A601B4A1C4B1A60FFF73FFF00F0B1F870BD1C700F405C2E00005C30000000600F4002600F40030333000002024083
:4001C000000302400803044010500F400400990020500F4024500F400000470728500F4040500F402000104001700F4000700F4008000440000D04400C0D04400801044073
:40020000000204408E611B000802044010B5064C2378002B07D1054B002B02D0044800E000BF0123237010BD5801002000000000582E0000084B10B5002B03D007490848FA
:4002400000E000BF07480368002B00D110BD064B002BFBD09847F9E7000000005C010020582E0000C80000200000000010B5084B1A68501C1860642102F0A6FD002905D1D4
:4002800001F07AF9C043C0B201F06AF910BDC0467401002010B501F071F800240AE0200001F084F8002804D10449200001F076F802E00134042CF2D910BDC0466D020000D2
:4002C00010B562B6FFF7E6FF00F0F4FBFEE7C046F0B50025002711E0BB00C658F3B2FF22964308E06A008A181478A419527822700135013BDBB2002BF4D101370A2FEBD965
:40030000F0BDC0460323044A1360044A13600022034B1A607047C0463000304030003140000E3F4010B50A00002102F088FD10BD10B502F07BFD10BD10B502F04BFD036853
:400340000C2B00D1FEE7FEE770B50F4E0F4D13E029686B68AC68002202E001C901C30432A242FAD1E868002202E0002102C304328242FAD11035013E002EE9D102F030FD61
:40038000FFF79EFFFEE7C04601000000CC33000010B5114A136801218B43136000230AE0032B03D89A000D49505800E00C4899000C4A885001332F2BF2D9FFF777FE0A4BFF
:4003C0001B68002B02D10022074B1A60024A116801230B43136010BD00001040000000003903000000000020C0000020002306E04218013A12789B189BB2013989B20029C5
:40040000F6D1584280B270470047C04610B58022024B1A6000F0B0FD10BDC046C0000020F0B583B00D006B469E1DDA8001230B7048701400AA70130ACB70171DB9B2280058
:40044000FFF7D4FFE855631D000AE854A31D1722EA540734A1B296233200280001F0AAF803B0F0BD70B505000E001400002802D0002000F037FD002005E0013CAB19E3185A
:400480001B781818C0B2002CF7D170BD10B50C2863D88000404B1B589F460B06591A0B023E4A9446634401225CE00B06591A0B023B4A94466344042254E00B06591A0B02D4
:4004C000384A9446634402224CE00B06591A0B02354A94466344042244E00B06591A0B02324A9446634401223CE00B06591A0B022F4A94466344012234E00B06591A0B02AE
:400500002C4A9446634402222CE00B06591A0B02294A94466344022224E00B06591A0B02264A9446634402221CE00B06591A0B02234A94466344042214E00B06591A0B021B
:40054000204A9446634401220CE00B06591A0B021D4A94466344042204E0002000F0C2FC02220023012A02D11878C0B200E00020022A03D11978587800020843042A09D133
:400580001A785878000210439A7812041043DB781B06184310BDC0460C310000C0FF0300C1FF0300C5FF0300C9FF0300D0FF0300D1FF0300D6FF0300D2FF0300D4FF0300EC
:4005C000D8FF0300DCFF0300E0FF030010B50D4B1B68DB0602D400220B4B1A600A4B1B68802B0ED10022084B1A6000210220FFF74DFF002805D000210220FFF747FFFFF7D0
:4006000003FF10BD00030B40C000002070B5050001000320FFF73AFF441C240229000420FFF734FF241829000320FFF72FFF421C12020023002608E01078411EC9B2FD296D
:4006400000D801261B18DBB20132A242F4D35B42DCB229000120FFF719FF844203D1002E03D1062002E0062000E0002070BDC046F0B55F4656464D464446F0B4BA4CA544C7
:40068000050000F081FF62B600239A4600270A249946002D01D1FF2300E02B00B34A02A98C4662449621490052A800F0A7FF002D01D0013CE4B2002C01D00028E9D10028C2
:4006C00000D0E5E1A94B02AA944663441B88062B24D952AA1278012A22D152A9CA78120289780A439146110007329A421AD896235B009A4218D84A1D52AB9E5C3202081DA9
:400700001E5C164306315B5C172B0FD181B252A8FFF76CFE86420BD100260AE0042608E0042606E0032604E0032602E0042600E00826002E00D055E152AB1A7993465A78B4
:400740001300313BD9B20A2900D91BE18B008849CB589F46012F00D046E14B46002B00D045E10020FFF752FF4342434152AA1371012286E1012F00D03CE14B46012B00D006
:400780003BE15B46002B00D03AE17A4B1B681B689A0CD2B2934503D11B0A9B059B0D05E0934501D9002301E08023DB0052AA13711B0A5371FF239371FC3BD371042260E1CE
:4007C000342A0ED1012F00D01DE14B46032B00D01CE1CC32002107A802F031FB80235B009A46012F00D014E14B46022B00D813E107A85044DA1E4821FF3102AB9C466144E1
:4008000002F014FB4B4653449BB20422FF32934200D004E152AA93791B02527913439A46554B9A4500D90A26002E00D0FFE05B46980280B2504480B24E4B1B681A68130AE8
:400840009BB2FF21114201D001339BB2834200D9F2E007A900F06AF9002800D1F4E000239A460133FF3399460A26002209E1012F00D10BE10426002203E1012F00D0EAE0BB
:400880004B46534496225200934200D9E6E007A850444A4653A902F0C9FA53464B449BB29A460022EDE04B46002B00D0D9E004AA324B03CB03C253AA04AB03CB03C2002365
:4008C0009A4601270822DCE0012F00D0CCE04B46032B00D0CBE052AA93791B025279134398465B46990241440902234B984500D90A26002E00D0BDE0802252000020FFF73B
:40090000B1FD030001905A46920292B2424492B25946002913D118498A4210D100210520FFF7B4FDC0B2019B1B1ADBB2984600210620FFF7ABFDC3B24246D31ADBB25B42E5
:4009400052AA137101229CE00020FFF75FFE002802D180220A4B1A6000F022FE00F00CFB042600228DE0C04684FDFFFF6E02000040310000CC000020FF0300006C310000C8
:40098000C00000204A4B1E68002E75D0012F76D102AB1A704A465A8053AB03930C22002104A802F04CFA04AB9B4653AA0692190002A8B0475B469A882623FF339A4203D915
:4009C00053AB0699994207D0069B002B01D1002A05D1049BDEB254E00E26002251E00E2600224EE000224CE00426002249E00426002246E00426002243E00426002240E08C
:400A0000042600223DE0042600223AE00426002237E00426002234E00426002231E000239A460133FF3399460326002229E080235B009946002224E000239A460133FF33BF
:400A400099460A2600221CE000239A460133FF339946002215E00426002212E0032600220FE0042600220CE00426002209E00426002206E0002204E00526002201E0052674
:400A8000002252A93000FFF7CBFC01E000239A46002D00D1FDE5012F00D1FAE59F239B009D443CBC90469946A246AB46F0BDC0467801002070B50020FFF7A8FD002801D09F
:400AC000062400E00024154D2B681A68C03AC0210020FFF7C7FC6B681B78C01AC0B24042C0B2834204D10D4B1B681B68002B02D1002000F0F7F90A4B1B68402B01D0002CC1
:400B000005D00022064B1A600020FFF7B1FD0A20FFF7AEFDFFF77AFC70BDC046CC000020C0000020002070470020704730B5C5B004000023439342933D4B984272D800294A
:400B400070D08022520002A802F070F9394B9C4201D9394B00E0394B0093FF230193384B6A461A603749384A1160C0461B681B0F1B07F0221206934204D1314B1B68FF22E6
:400B800013400DE02E4B1B681B0F1B07A0221206934204D02A4B1B68FF22134000E000234393439B002B3FD100F087FD0500FFF7B9FF4290439B002B25D1244A0092009A3A
:400BC0002404144300941E4A6946116020481E490860C0461268120F1207F02109068A4204D1174B1B68FF2213400BE0144A1268120F1207A02109068A4203D0104B1B6805
:400C0000FF2213404393429B002B07D1FFF78CFF4290429B002B01D0429B4393280000F050FD01E004234393439845B030BDC046FF030000FF010000B6D70001B6D7000088
:400C4000080010400400008004001040B6D800000500008070B5040000F02FFD0500102C05D8104A136803218B43136016E0202C07D80C490B6803229343023A13430B60B3
:400C80000CE0302C07D807490B6803229343013A13430B6002E0002000F024F9280000F010FD70BD30001040074B1B78272B05D8064B1B78DBB2064A136004E0054B1B7863
:400CC000DBB2034A1360704702F3FF0F42F3FF0F20FF0B40C1F1FF0F00230AE0204A12683F210A401F49C95C8A4201D1033303E001332D2BF2D903231B4A12781B2A16D802
:400D0000302B05D1194B1B78DBB2194A136006E0182B04D1174B1B78DBB2154A136016490B681F229343173A13430B6016E0302B05D1124B1B78DBB20D4A136006E0182B44
:400D400004D10F4B1B78DBB2094A13600A4A13681F218B430B4909780B4313607047C0462CFF0B407431000002F3FF0F3FF3FF0F28FF0B403EF3FF0F34FF0B40C3F1FF0FDF
:400D8000C2F1FF0FC0F1FF0F00230AE00D4A12683F210A400C49C95C8A4201D1033303E001332D2BF2D9032308490868084A02400A60084A944663441B78DBB2064A136008
:400DC0007047C0462CFF0B407431000000002240FFFFFFBF4DF3FF0F28FF0B40034B18688023DB05184000D0012070470000224010B50B4A136801218B431360094B1A68BC
:400E0000094B1A60094A12685A60FFF765FFFFF74BFF074A116802230B43136010BDC04650000C4034FF0B407C01002020FF0B4024002C4030B500230AE0134A12683F2166
:400E40000A401249C95C8A4201D1033303E001332D2BF2D903230E490A68022082430A600C4C21681F2291430B4805682A400A4322604168094A1160094A944663441B7897
:400E8000DBB2084A136030BD2CFF0B407431000024002C4034FF0B407C01002020FF0B404DF3FF0F28FF0B40034B1B680220184000D001207047C04624002C401F231840E0
:400EC0001E3B8340014A13607047C04600E100E01F2318401E3B8340014A13607047C04680E100E001BE704770B504000D000F2802D90020FFF7F6FFA40080239B059C4696
:400F000064442068256070BD70B504000D001F2802D90020FFF7E6FF1034A40080239B059C4664442068256070BDC04670B504000E00032902D90020FFF7D4FF1F2C02D93A
:400F40000020FFF7CFFF03252540ED00063500F0B4FBA408A400074B9C46644421680323AB4099430B003100A9401943216000F0A8FB70BD00E400E0034A13681B041B0C03
:400F800002490B43136070470CED00E00400FA0510B5040006E0084B586800F085FB074B9C46644480231B029C42F4D8024B9868604300F079FB10BDD40000200080FFFF87
:400FC00070B582B000F024FA002862D000F075FB0500314A116801230B43136000230AE02E4A12683F210A402D49C95C8A4201D1033303E001332D2BF2D903230021294AE8
:401000001160294A1268D20606D1274802681F318A4313390A430260244C2168244A1140244A5A438023DB019C466244D20B013A5205520D0B001343A022520313432360C9
:401040001D4B1B6801933020FFF704FE1B4A13688021C9050B4313602668194B1E40002407E00120FFF794FF1034A30533430F4A1360EE2CF5D90120FFF78AFFFF239B051C
:401080001E430A4B1E60019A0B4B1A60280000F018FB02B070BDC04650000C402CFF0B407431000028FF0B4034FF0B400800224000F800C040420F00300010400000224045
:4010C000FFFF3FC010B5034B1B7B584300F0ECFA10BDC046D4000020F0B55F4656464D464446F0B483B0040000F0E7FA0190FFF775FE002804D0FFF747FE01239A4601E04D
:4011000000239A46FFF7D0FE002808D0182C01D0302C07D1FFF78EFE01239B4604E000239B4601E000239B46E61E2D2E74D8464B1B78DBB29C4208D8444B1B78DBB29946A3
:40114000434B1B78DBB2984631E0424B1B78DBB29C4208D8404B1B78DBB299463F4B1B78DBB2984623E03E4B1B78DBB29C4208D83C4B1B78DBB299463B4B1B78DBB29846E1
:4011800015E03A4B1B78DBB29C4208D8384B1B78DBB29946374B1B78DBB2984607E0364B1B78DBB29946354B1B78DBB29846344B9F5D2F2F09D92A2C07D91922314B1A60CE
:4011C000052000F071FA192503E02E4B1D683F231D40BD4206D92A4B9A5D2A4B1A60052000F062FA254B9C4664442378DBB2264A1360264B4A461A60254B42461A600520D0
:40120000FFF760FFBD420AD21D4B9A5D1D4B1A60052000F049FA02E00020FFF763FE5346012B01D1FFF7CCFE5B46012B01D1FFF7DFFD019800F045FA03B03CBC904699469C
:40124000A246AB46F0BDC04640F3FF0F41F3FF0F42F3FF0F43F3FF0F44F3FF0F45F3FF0F46F3FF0F47F3FF0F48F3FF0F49F3FF0F4AF3FF0F4BF3FF0F4CF3FF0F4DF3FF0FF9
:40128000743100002CFF0B4028FF0B401CFF0B4020FF0B40024A116802230B431360704710E000E010B5FFF7F5FF034A116801230B43136010BDC04610E000E00002000A96
:4012C000014B18607047C04614E000E0012805D1054A116804230B43136004E0024A136804218B431360704710E000E0024B1868000C01231840704710E000E010B5FFF7BB
:40130000F5FF01280CD108E0A300064AD3189B68002B00D09847013400E00024042CF3D910BDC0467C0100200022014B1A60704718E000E010B5002305E09A000C498A1896
:40134000002191600133042BF7D90A490F20FFF7CBFD0120FFF7BAFF074B1869FA21890001F0ACFCFFF7AAFFFFF7DEFF10BDC0467C010020FD120000D400002010B5064B0D
:40138000DB69002B04D1FFF7D5FF0122024BDA61FFF788FF10BDC0467C0100208000024B1B189868996070477C0100208000024B181880687047C0467C010020034B18682D
:4013C000C0231B02184000D00120704700010B4010B50D4B1A6801218A431A601A68022082431A60094A10683024A043203C204310601068093CA043014311601A6880210D
:4014000009060A431A6010BD00002240000F2240034B1B68002B01DA012000E0002070470000224010B500F048F9044A1368C02109020B43136000F044F910BD00010B4073
:4014400010B500F03AF908490A68084B1A408024E40122430A600A6813408022120213430B6000F02EF910BD00010B40FF3FFFFF70B5050000F021F90400FFF79FFF002820
:4014800003D0FFF7DDFF012100E0002108482840084A1568084B2B40184310601368012901D1FFF7BFFF200000F00BF970BDC0460404040010020B40FBFBFBFF10B5244B55
:4014C0001B685B0715D5234B5B685B070ED5224B596A042001401F4C62688A4362605A6A82435A629B69002B00D098470420FFF7BFFF174B1B685B0518D5164B5B685B059D
:4015000010D5154B596A8022D2001140114842688A434260596A114A0A405A62DB69002B00D098478020C000FFF7A2FF084B1B685B030CD5074B5B685B0304D5064B1B6AFC
:40154000002B00D098478020C002FFF791FF10BD10020B40E80000209C010020FFFBFFFF04490A68D2B202239A434000184010430860704700000440024B186840080123F6
:40158000184070470400044010B562B60221002000F06AF90122014B1A7010BDC401002010B500F0A9F910BD10B5012000F068FA10BDC04670B50E0015009A009B185C0096
:4015C000A4B240220100022000F00CFA04E00120FFF7DEFC013CA4B2022000F0DFF9002801D1002CF3D1022000F0D8F9002802D02E80002000E0102070BDC046F0B583B018
:4016000001900F0016009A009B185C00A4B2402900D94027224B1B78002B06D118E00120FFF7B6FC013DADB200E0250000F0A2F9002801D1002DF2D100F09CF9002817D0DE
:4016400000F09EF9FFF7B0FF0022154B1A700FE000F096F900280BD000F08CF9002807D0FFF7A2FF04E00120FFF792FC013CA4B2012000F093F9012801D0002CF3D10120F2
:4016800000F08CF9012806D13A00019900F010FA3080002002E000233380102003B0F0BDC4010020000000000230800803D00138FDD1C046C046C0467047EFF3108072B6F3
:4016C000704780F31088704710B50122244B1A60244A136820218B4313600A22224B1A60224C234B23602368224A1343236023680422934323600220FFF7E4FC236808223C
:4017000093432360FFF7D0FB002800D002201A4B18601A4A1A4B1A6007221A4B1A6003211E20FFF703FC18491E20FFF7EDFB03211F20FFF7FBFB15491F20FFF7E5FB032193
:401740000020FFF7F3FB12490020FFF7DDFB03210520FFF7EBFB0F490520FFF7D5FB10BD74022C4048002C4030032C4000202C40010000040C0000B824002C401A000500AE
:4017800030202C4028202C4025200000A5200000652000008D23000010B50C00002304E00121234AD1540133DBB2002BF8D0214B18700023204A1370204A1370204A13705C
:4017C000204A1370204A1370204A1370204A13701E20FFF773FB0020FFF770FB1F20FFF76DFB002C02D0012C06D00BE0194A136801218B4313600AE0164A116801230B4313
:40180000136004E0134A116801230B43136011490B68042293430B6000210F4B196001310E4B19607F310E4B19600E4B1A6010BD6C020020E0010020E6010020E4010020AD
:40184000E5010020E1010020CC010020E30100205C02002024002C40A4002C40A0002C4020002C4048002C4070B504000D00074B1B78002B04D1FFF727FF0122034B1A70D3
:4018800029002000FFF788FF70BDC046C5010020002304E001210E4AD1540133DBB2002BF8D000230B4A13700B4A13700B4A13700B4A13700B4A13700B4A13700B4A1370E4
:4018C00001220B4B1A607F320A4B1A607047C0466C020020E6010020E4010020E5010020E1010020CC010020E30100205C020020A0002C4020002C4010B5FFF7DEFE144A1A
:40190000136880218B431360124A13687C398B431360114A13685B005B081360FFF7D1FE1E20FFF7D5FA1F20FFF7D2FA0020FFF7CFFA0023094A1370094A1370094A137029
:40194000094A1370094A1370094A137010BDC04620002C4048002C4000202C40E4010020E5010020E1010020CC010020E3010020C5010020014B1878C0B27047E501002057
:40198000054B1B78002B05D0034B1878C0B200221A7000E000207047E4010020430018188300024AD3185878C0B27047F0010020431EDBB2072B10D88301094A985880B254
:4019C0000002F02212011040054A944663445B68184380B2023880B200E000207047C046F0FF2B40F0B5431EDBB2072B41D8060044002418A3001F4CE318DC8880239B00BE
:401A00001B1B9A4209D9420012189300194AD318DA8880239B009A1A92B2130A45002D18AC00144D2C19E4781C438301124D5C51D4B2AC4663445C60002909D10BE0CD5C97
:401A4000B4010E4FBC466444256201339BB200E000239A42F3D8420012189300054AD31800225A705B79DBB28001034A944660448360F0BDF0010020F0FF2B40C0012C40FE
:401A8000431EDBB2072B0DD8420012189300064AD31800225A705B79DBB28001034A9446604483607047C046F0010020F0FF2B4070B505000E00140000291BD000281BD0D0
:401AC00008281BD8FFF774FFA04203D22800FFF76FFF0400002307E0AA010A498C466244126AF25401339BB2A342F5D32800FFF7C7FF04E0002402E0002400E0002420008D
:401B000070BDC046C0012C4010B51F4B1B781F4A1188CB189BB2138000210EE01C4B5A681278D2B28C001B4822505A6801325A6001311A88013A92B21A80154B1B889BB22B
:401B4000002B01D00729E9D90F4B1B78082B01D000290DD0104A107880235B424340DBB213700F220D4B1A700D3A0D4B1A7004E002230A4A13700A4A1370C9B2094B197080
:401B8000014B197010BDC0465C02002062020020D401002000002C40E2010020CD010020E60100205D0200200222074B1A707E32064B1A70713A064B1A700023054A13709D
:401BC000054A137001207047E6010020E2010020CD0100205C0200205D02002010B5FFF793FF10BD30B5194B1B680F2119400239174A1088FF230B40C3189BB2138000205B
:401C00000FE0144B5C688500134AAA58D2B222705A6801325A60013001391A88013A92B21A800C4B1B889BB2002B01D00029E8D1C9B20A4B19700A4A117880235B424B409D
:401C4000DBB213700B22074B1A7030BDA4002C4062020020D401002000002C405D020020E2010020CD0100200623064A1370064A13708022054B1A700022054B1A70012091
:401C80007047C046E6010020CD010020E20100205D020020064B9B68002B08D0044B9A6810709A6803490988518000229A607047D40100206202002010B5144B1A68FF2106
:401CC0000A401A601B68DAB21B0602D5104B1A701BE00220FFF7DEFF0E4B1B6860221340202B06D0402B07D0002B08D100F008FE06E000F0B3FF03E000F08CFF00E0002050
:401D0000002802D10322024B1A7010BDA0002C40CD01002000002C4010B5084B1B78084A1188CB189BB213800022064B1A700120FFF7B0FF0322044B1A7010BD5C02002014
:401D400062020020E6010020CD01002010B50B4B1B78DBB2042B06D0062B07D0022B0BD1FFF7DAFF08E0FFF73DFF05E00320FFF791FF0322024B1A7010BDC046E60100204C
:401D8000CD01002010B50022044B1A700120FFF781FF0322024B1A7010BDC046E6010020CD01002010B50C4B1B78002B09D00A4A117880235B420B43DBB208490B60002390
:401DC00013700022064B1A700120FFF763FF0322044B1A7010BDC046CC01002020002C40E6010020CD01002010B5094B1B78DBB2042B06D0062B07D0022B07D1FFF7EEFE7E
:401E000004E0FFF7BFFF01E0FFF7CCFF10BDC046E601002010B5264B1B68DA0643D51A060CD50F221340012B14D1FFF745FF214B1B785BB2002B0FDB012310E05A0603D5A0
:401E4000FFF7D2FF01230AE09B0607D5FFF77EFF012304E0002302E0002300E00023002B21D0134B1B681B061DD4134B1B78134A12781343124A13601268934213D10D4BD3
:401E80001B78DBB20A4A1268120607D4094B1B78DBB2074A136013680F221340054A1278D2B29342EBD10422064B1A6010BDC046A0002C40CD010020E20100205D020020DC
:401EC000A4002C4020202C400022064B1A80064B9B68002B05D0044A916800230B7092685380704762020020D401002010B5114B1B889BB2002B02D1FFF756FE17E002226F
:401F00000D4B1A7000220D4B1A70FFF7DDFF0C4AD3691B029BB2926913439BB2054A128892B2934201D2034A1380FFF7EDFD012010BDC046D4010020E6010020E2010020C7
:401F400000002C4010B504220C4B1A707C320C4B1A70FFF7B9FF0B4AD3691B029BB2926913439BB2084A128892B2934201D2064A13800B22054B1A70012010BDE60100209C
:401F8000E201002000002C40D4010020CD01002001220A4B1A600A4B9B6C0A4B1A7B03231340012B06D0074AD17B80235B424B40DBB2D3730122034B5A7370472C002C4054
:401FC000F0FF2B40F001002002220B4B1A6088230A4AD3580A4B1A7E03231340012B06D0074AD17E80235B424B40DBB2D3760122034B5A767047C0462C002C40F0FF2B40BF
:40200000F00100200122014B1A60704720202C4010B50222024B1A60FFF73AFC10BDC04620202C4070B50D4B1D682B0601D5002398470F2422002A40EC08FF235B011C4050
:402040001443002507E0E30703D5AB00044A9B58984764080135002CF5D170BD34202C40A431000070B50D4B1D682B0601D5002398470F2422002A40EC08FF235B011C4082
:402080001443002507E0E30703D5AB00044A9B58984764080135002CF5D170BD38202C40A431000070B50D4B1D682B0601D5002398470F2422002A40EC08FF235B011C403E
:4020C0001443002507E0E30703D5AB00044A9B58984764080135002CF5D170BD3C202C40A431000010B50C4B18780138C0B200F09DF90A4B1B69FF221A40931CDB00C018FF
:402100004168074B9B5CDB00CB185B68596A0B78044A1380516010BDE501002000002C40D0010020D401002010B50E4B18780138C0B200F07BF90C4B1B69FF221A40931C6D
:40214000DB00C0184168094B9B5CDB00CB185B68DB695A78120219780A4305490A8002334B6010BDE501002000002C40D0010020D401002070B500221C4B1A801C4B187813
:402180000138C0B200F052F91A4BD968CCB21B69DDB2FF221A40931CDB00C0184068002D23D1154B9B5CDB00C3185B68013CE4B2022C1AD8FF221140104A94466144C90085
:4021C00059180C4B9B68D8B20A7890420DD84968FF2213405A00D3189A008B18034A59685160198811809B68936070BDD4010020E501002000002C40D0010020FFFFFF1F22
:4022000010B55D4B1A69D1B21B681B0651D55A4B5B68022B2FD002D8012B22D090E0032B3AD0062B00D08BE0534BDB68212B0AD1FFF758FF514B1B889BB2002B00D181E083
:40224000FFF754FE97E04C4BDB68222B7CD1FFF76BFF4A4B1B889BB2002B77D0FFF746FE89E0FFF787FF454B1B889BB2002B6FD0FFF73CFE7FE000296CD13F4B9B68002B1E
:402280006AD13E4901330B80FE331A403C4BD2184A60FFF72BFE6EE000295FD1374901230B80FE331A40374BD2184A60FFF71EFE61E0314B5B680A2B0DD00B2B30D0092B53
:4022C0004ED1FFF757FF2D4B1B889BB2002B49D0FFF738FE4FE0002946D1274B9B68002B44D1FF331A40244BDB68DBB224498B54895CC9B2244B9B5CDBB2994203D200213C
:40230000214B995409E0204B9B5CDBB2012B04D91B4B9B5CDBB21C498B54FFF7A5FC2AE0002925D1144B9B68012B23D8FF231A40114B9B68DBB213498B54FFF795FC1AE0C8
:40234000002018E0002016E0002014E0002012E0002010E000200EE000200CE000200AE0002008E0002006E0002004E0002002E0002000E0002010BD00002C40D401002073
:40238000640200206C0200206802002010B500F05DFC10BD10B5012338E09A010C201E4950505900C9188A001C498A185279002A16D05900C9188A0018498A18127952B2D9
:4023C000002A06DA9A0116498C4662440C2191600CE09A0112498C4662440821916005E09A010F498C466244802191605900C9188A000A498A18D18889B29801094C041995
:40240000A160D28892B2074942500133082BC4D9FF22054B1A6010BDC0012C40F0010020F0FF2B40D0112C4028002C40074B1B78DB00074AD3185B681A7C824204D9C00030
:4024400010301818406800E000207047E001002044320000F0B557464E464546E0B43F4B1B78002B75D03D4B18780138C0B2FFF7DDFF047AC3683A4A1078C0B2002266E070
:402480001978884261D13749095CC9B25D78A9425BD199787F252940DD7803262E40B446314DA8464E007718BD004544AA460027EF709F782F71DF78B9467618B70046465C
:4024C0004D46BD559E8855462E8102255D57002D0EDA6546012D01D1072700E00D274E007618B500204E75196F7101266E700DE06546012D01D1052700E009274E007618C8
:40250000B500194E75196F7100266E708D01174EB146A94401264F46BE604E0071188E00114989190E89360AB046104E4746AF510E89F6B24F467E60CE88B6B20C4FEF1970
:40254000BE60C98889B20A4EA95108330132A24296D31CBC90469946A246F0BDE5010020E1010020D0010020F0010020F0FF2B40D0112C40034B1B78DB00034AD31858681D
:402580007047C046E00100204432000010B5084B18780138C0B2FFF749FF002806D043681B790233DB00C018406800E0002010BDE5010020F0B557464E464546E0B400239E
:4025C00012E06E4E5900CC18A20000249455B2189470D4700025148195725570C9188A00B21855710133DBB2082BEAD9002808D10AE000226249CA546249CA540133DBB297
:4026000000E00023002BF4D05F4B1B78002B00D1AFE05D4B18780138C0B2FFF707FF82464368DB795B0606D5584A117801230B43DBB2137004E0554A137801218B431370D0
:4026400053461E7A012465E05346D96800235DE08A787F252A40944255D1270065002D19AA00464DAA18128992B28D88AA4208D262009446A4446246920040488446624498
:4026800015810A783E4DAA5CD2B24D78AA423AD18A789146394A94467A00D0198500654448462871C878D21995006246A854CA7803252A4002254D57002D12DA012A02D129
:4026C0000632914601E00D2291462C4A94467A00D01985006544484668712A000125557011E0012A02D10432914601E009229146224A94467A00D01985006544484668716A
:402700002A000025557008310133DBB2B3429FD30134E4B2082C97D95346D86800220CE083787F210B4004785900CB189900134B59188C7208300132D2B2B242F0D3FFF72E
:4027400025FF134B1860002201230EE00B4D5900C81884002C19E28021898A1891B201220A4089188AB20133DBB2082BEED9FFF711FE1CBC90469946A246F0BDF0010020A3
:40278000D001002060020020E5010020E3010020EC01002010B5174B1B697F2213405A1E072A24D85900C9188A0013498A18907801210143C9B291700021D1705078022152
:4027C0000143C9B25170127952B2002A06DA9B010A4A944663448D229A6005E09B01074A9446634489229A60FFF73EFA00E0002010BDC04600002C40F0010020F0FF2B40D6
:4028000070B5284B1B697F2213405A1E072A46D85900C9188A0024498A1891780120814391700021D17021489C0121588025A94321505178022081435170127952B2002AF3
:4028400015DA5900C9188A0017498A185278012A06D12300154A944663440C229A601BE09B01124A944663440D229A6014E05900C9188A000C498A185278012A06D19B01F8
:402880000A4A9446634408229A6005E09B01074A9446634409229A60FFF7E6F900E0002070BDC04600002C40F0010020F0FF2B4070B50F4B1C69E5B20E4B18780138C0B299
:4028C000FFF7B4FD43681B799D4201D9012D0CD8FF2323400849CA5CD2B20848C254044A9268D2B2CA54012000E0002070BDC04600002C40E5010020D0010020600200201E
:4029000010B5B34B1B680021B24A11801A0600D4A2E0AF4A5268062A0AD002D8002A5FD038E1082A00D184E00A2A00D189E031E1A74BDB68012B09D1FFF71CFE4268A54B58
:402940005A6012221A80FFF7D1FA40E1A04BDB68022B14D19E4B9868C0B2FFF767FD002800D119E143689B4A53605368DB781B02516889780B431380FFF7B8FA27E1944B6D
:40298000DB68032B05D028E0117852180133DBB201E00023904A8E498968994202D911780029F1D18A4B9B68EE2B00D18B4A884B9B68002B06D0864B9968894B1B7C9942BF
:4029C00000D1884A1378002B00D1E7E0137881490B804A60FFF78AFAF9E000F03FF9F6E00322134017D0022B00D0D9E079490B80774B1B697C3213405A00D3189A007A4BBE
:402A00009A189278D2B2794B1A7000225A704B60FFF76CFADBE06F4902230B80744B1A78D2B2724B1A7000225A704B60FFF75EFACDE0684B01221A806E4A5A60FFF756FA1C
:402A4000C5E0644A01231380614B19696A4BCB185360FFF74BFABAE05D4A52680B2A00D9A0E0920065498A589746594B9B68DBB2634A1370FFF7F8F8A9E0554B9C68002C6D
:402A800003D0601EC0B2FFF7D1FC002C01D0002802D1002C00D087E0564B1B78DBB29C4208D0E4B2534B1C700122564B1A700120FFF780FDFFF7D8F889E0FFF7F9FE0028D8
:402AC00074D0434B19691B69DBB24F4A13704F4B5A5CD2B2484B5B5CDBB29A4204D00122484B1A70FFF7B6FCFFF7BEF86FE003221340012B16D0002B08D0022B58D1344BB5
:402B00009B68002B56D1FFF77BFE60E0304B9B68012B51D1364A137802218B431370FFF7A3F854E02A4B1B69002B47D1284B98681A6937498B5C83438B54FFF795F846E09A
:402B400003221340012B17D0002B08D0022B37D11F4B9B68002B35D1FFF71CFE37E01C4B9B68012B30D1224A117802230B43DBB21370FFF779F82AE0154B1B69002B25D148
:402B8000134B98681A6922498B5C83438B54FFF76BF81CE000201AE0002018E0002016E0002014E0002012E0002010E000200EE000200CE000200AE0002008E0002006E038
:402BC000002004E0002002E0002000E0002010BD00002C40D401002014330000303200009433000008330000F0010020C8010020E3010020E5010020D0010020D8310000D8
:402C0000CC010020E4010020E101002060020020E801002010B50A4B1B681B060BD5084B5B68012B09D1074B074A5A6012781A80FFF75CF902E0002000E0002010BDC046BA
:402C400000002C40D401002008320000024A10680123184010607047100D044010B5144B1B6803221340012B02D0022B04D00FE00F4B1B69DBB20CE00D4B1B697F221340BD
:402C80005A00D3189A000B4B9A18937ADBB200E00023012B07D8084A1268D35C032B04D1FFF7AEFA02E0002000E0002010BDC04600002C40F0010020EC010020002243081D
:402CC0008B4274D303098B425FD3030A8B4244D3030B8B4228D3030C8B420DD3FF22090212BA030C8B4202D31212090265D0030B8B4219D300E0090AC30B8B4201D3CB032E
:402D0000C01A5241830B8B4201D38B03C01A5241430B8B4201D34B03C01A5241030B8B4201D30B03C01A5241C30A8B4201D3CB02C01A5241830A8B4201D38B02C01A524158
:402D4000430A8B4201D34B02C01A5241030A8B4201D30B02C01A5241CDD2C3098B4201D3CB01C01A524183098B4201D38B01C01A524143098B4201D34B01C01A5241030966
:402D80008B4201D30B01C01A5241C3088B4201D3CB00C01A524183088B4201D38B00C01A524143088B4201D34B00C01A5241411A00D20146524110467047FFE701B50020BD
:402DC00000F006F802BDC0460029F7D076E770477047C046014B18687047C046500100200E4B70B500251E000D4CE41AA410A54204D0AB00F35898470135F8E700F0D4FA36
:402E0000084B00251E00084CE41AA410A54204D0AB00F35898470135F8E770BDB4330000B4330000B4330000BC330000002310B59A4203D0CC5CC4540133F9E710BD0300C5
:402E40008218934202D019700133FAE77047000000350000A90000000000000000300F40800400350F40000300400F400008000080340F408C30000080000000850F0402E4
:402E8000060808020A0D0C0D10021204140D200D240D280D2C012E02320F3A0858045F010014020104060510070209060C220E201028110113401511160118101D101E203B
:402EC0001F0827082CA02D903610374A3D083E803F20450A47224C014D884F605501569A65106C2A6D116F407480760186808C028D04C0F7C27CC4DFCAF0CCF0CE70D0E037
:402F0000D230D820001A0418060209080A100B330C010D250E080F081008121214121608180C191C1A031C031E041F02201A24082C022D282F17300F3410353C3703392076
:402F40003A023E105440580459045B045F018104840486088D17900E91029201930C950C9702990A9B049D0EA004A10EA512A705A902AC01AD11AE0AAF02B008B107B30892
:402F8000B407B710BA20BE01BF44D409D804D904DB04DF010004044005100608075009020C0A0D400E04110213401480162218041A841B101C401D021F122108234126A046
:402FC00028802A212B1A2F02302A335036A039803A023B403F60582159085A806301661067226C01800184208602880189088D108E208F019404974099089A1B9B40A02A16
:40300000A101A308A50AA680A710AB08AF20C0F4C2F8C4B9CA1FCC3FCE39D60FD878E2906801DA40A401078053045702660867028704A401C020D420D6A0D880E610830126
:4030400088018E0897029E08A401AB02AF80E620E840EA202D088908CA01E2011201130101000F4011340F4032350F4048360F4046370F4002400F4001410F400C420F40AC
:403080000B430F4004470F4002600F4003003C007904060002560D0915606A00400A001010016000400400000004000040040000000400000000400440070038000070008B
:4030C0000F7F0000002028000000000046053000020EFBCD3DFFFFFF2200F008040000000000022404040404000000010000C00040011011C00100114001400100000000A2
:403100000000000000000000000000005A0500009A040000AA040000BA040000CA040000DA040000EA0400000A050000FA0400001A0500002A0500003A0500004A050000A3
:40314000540700007407000084090000C00700006E080000840900007A080000A6080000C0070000C808000048090000A0111110003C0101030405060708090A0B0C0E0F92
:40318000101112131415161718191B1C1D1E1F2021222325262728292A2B2E2F30313233343500000520000011200000151E00000000000000000000911F0000C91F000066
:4031C000000000000000000000000000000000000000000000000000A42B0000EE2A0000A42B0000402B0000A42B00006A2A0000A42B0000A42B0000A42B00007A2A00003A
:40320000A42B0000BA2A00002800000000010400010000000000000000014359555342000000303030303100000000000000000012034D0053004600540031003000300055
:4032400001000000010000004C320000010000009433000000000000000000000100000064320000010000006833000002000000883200000100000098320000000000004C
:4032800084320000030000000000010340000300000082034000030001000000A032000000000000D432000000000000C8320000000000000000000001000000E032000060
:4032C000010000007A33000041000000B8020020FC020020410000007402002070020020240005010900A1000900A1000900150025FF7508954091020900150025FF75081A
:4033000095408102C0C000000A0330003000300031000000040309042C0343007900700072006500730073002000530065006D00690063006F006E0064007500630074001D
:403340006F0072002203500053006F0043003300200042006F006F0074006C006F006100640065007200000009022900010100801909040000020300000209211101000174
:4033800022240007050103400001070582034000010000001201000200000008B4041DB70130010280014300F8B5C046F8BC08BC9E4670473502000091030000F8B5C046BF
:4033C000F8BC08BC9E4670470D020000E0330000C800002090000000A80100000000000000000000502E0000542E0000010000000000C05D80BB000030000000006CDC02A4
:40340000F0000000040404000000000000000000000000000000000000000000000000000000000000000000A63300000000000000000000000000000000000000000000B7
:4034400000000000000000000000000000000000000000000000000000000000000000000000000000000000F000002000000000000000000000000000000000000000003C
:40348000000000000000000000000000000000000000000000000000000000000000000000000000000000000000000000000000000000000000000000000000000000000C
:4034C00000000000000000000000000000000000000000000000000000000000000000000000000000000000000000000000000000000000000000000000000000000000CC
:40350000000000000000000000000000000000000000000000000000000000000000000000000000000000000000000000000000000000000000000000000000000000008B
:40354000000000000000000000000000000000000000000000000000000000000000000000000000000000000000000000000000000000000000000000000000000000004B
:020000040003F7
:40FFC0000000000000000000000000000000000000000000010000000000000000000000000000000000000000000000000000000000000000000000000000000000000000
:0200000490303A
:02000000C2F745
:0200000490402A
:4000000000000000000000000000000000000000000000000000000000000000000000000000000000000000000000000000000000000000000000000000000000000000C0
:400040000000000000000000000000000000000000000000000000000000000000000000000000000000000000000000000000000000000000000000000000000000000080
:0200000490501A
:0C0000000002101111A000001021D49784
:0200000490600A
:0100000001FE
:00000001FF