:400000000080002011000000390300003903000010B500F0DBFA00F097F9C04670B51222164B1A6001F028F9154801F091FA302000F094FF00F00AFF124A134B1A60134C09
:400040008025ED05256080229200114B1A60114A114B1A6080221206104B1A608022D2020F4B1A6040220F4B1A600F49082000F091FE082000F068FE256070BD300010406B
:40008000001BB7000600008004010B400C020B400003014040FF00800000014008010B4000010B404C0101406513000070B572B601223C4B1A7000240FE03B4862001319B0
:4000C00059000B00411889881A5AC31858880004104300F027F90134E4B2022CEDD9002411E0314EA2001319590071188D8AC88A000428430A8B498B09041143802200F065
:4001000017F90134E4B2002CEBD0274920312748043000F0DDF880225200254B1A800123244A13702449254A1160002224490A6024490A609922120423490A602348244925
:400140000860802000032349086023482349086023490A60234A136023490B783C22934314221343DBB20B70204A117816230B43DBB2137030221E4B1A602D3A1D4B1A60EC
:40018000013A1D4B1A60C02252031C4B1A6077221B4B1A601B4A1C4B1A60FFF73FFF00F0B1F870BD1C700F40F82C0000F82E000000600F4002600F4003033300000202404F
:4001C000000302400803044010500F400400990020500F4024500F400000470728500F4040500F402000104001700F4000700F4008000440000D04400C0D04400801044073
:40020000000204408E611B000802044010B5064C2378002B07D1054B002B02D0044800E000BF0123237010BD5801002000000000F42C0000084B10B5002B03D00749084860
:4002400000E000BF07480368002B00D110BD064B002BFBD09847F9E7000000005C010020F42C0000C80000200000000010B5084B1A68501C1860642102F0F4FC002905D1ED
:4002800001F0CEF8C043C0B201F0BEF810BDC0467401002010B500F0C5FF00240AE0200000F0D8FF002804D10449200000F0CAFF02E00134042CF2D910BDC0466D0200001E
:4002C00010B562B6FFF7E6FF00F0F4FBFEE7C046F0B50025002711E0BB00C658F3B2FF22964308E06A008A181478A419527822700135013BDBB2002BF4D101370A2FEBD965
:40030000F0BDC0460323044A1360044A13600022034B1A607047C0463000304030003140000E3F4010B50A00002102F0D6FC10BD10B502F0C9FC10BD10B502F099FC03686C
:400340000C2B00D1FEE7FEE770B50F4E0F4D13E029686B68AC68002202E001C901C30432A242FAD1E868002202E0002102C304328242FAD11035013E002EE9D102F07EFC14
:40038000FFF79EFFFEE7C046010000008032000010B5114A136801218B43136000230AE0032B03D89A000D49505800E00C4899000C4A885001332F2BF2D9FFF777FE0A4B4C
:4003C0001B68002B02D10022074B1A60024A116801230B43136010BD00001040000000003903000000000020C0000020002306E04218013A12789B189BB2013989B20029C5
:40040000F6D1584280B270470047C04610B58022024B1A6000F0F6FC10BDC046C0000020F0B583B00D006B469E1DDA8001230B7048701400AA70130ACB70171DB9B2280013
:40044000FFF7D4FFE855631D000AE854A31D1722EA540734A1B296233200280000F0FEFF03B0F0BD70B505000E001400002802D0002000F07DFC002004E0013CAB19E35C78
:40048000C018C0B2002CF8D170BDC04610B50C2863D88000404B1B589F460B06591A0B023E4A9446634401225CE00B06591A0B023B4A94466344042254E00B06591A0B02B8
:4004C000384A9446634402224CE00B06591A0B02354A94466344042244E00B06591A0B02324A9446634401223CE00B06591A0B022F4A94466344012234E00B06591A0B02AE
:400500002C4A9446634402222CE00B06591A0B02294A94466344022224E00B06591A0B02264A9446634402221CE00B06591A0B02234A94466344042214E00B06591A0B021B
:40054000204A9446634401220CE00B06591A0B021D4A94466344042204E0002000F008FC02220023012A02D11878C0B200E00020022A03D11978587800020843042A09D1ED
:400580001A785878000210439A7812041043DB781B06184310BDC046A82F0000C0FF0300C1FF0300C5FF0300C9FF0300D0FF0300D1FF0300D6FF0300D2FF0300D4FF030052
:4005C000D8FF0300DCFF0300E0FF030010B50D4B1B68DB0602D400220B4B1A600A4B1B68802B0ED10022084B1A6000210220FFF74DFF002805D000210220FFF747FFFFF7D0
:4006000003FF10BD00030B40C000002070B5050001000320FFF73AFF441C240229000420FFF734FF241829000320FFF72FFF421C12020023002608E01078411EC9B2FD296D
:4006400000D801261B18DBB20132A242F4D35B42DCB229000120FFF719FF844203D1002E03D1062002E0062000E0002070BDC046F0B55F4656464D464446F0B4BA4CA544C7
:40068000050000F0D5FE62B600239A4600270A249946002D01D1FF2300E02B00B34A02A98C4662449621490052A800F0FBFE002D01D0013CE4B2002C01D00028E9D100281C
:4006C00000D0E5E1A94B02AA944663441B88062B24D952AA1278012A22D152A9CA78120289780A439146110007329A421AD896235B009A4218D84A1D52AB9E5C3202081DA9
:400700001E5C164306315B5C172B0FD181B252A8FFF76CFE86420BD100260AE0042608E0042606E0032604E0032602E0042600E00826002E00D055E152AB1A7993465A78B4
:400740001300313BD9B20A2900D91BE18B008849CB589F46012F00D046E14B46002B00D045E10020FFF752FF4342434152AA1371012286E1012F00D03CE14B46012B00D006
:400780003BE15B46002B00D03AE17A4B1B681B689A0CD2B2934503D11B0A9B059B0D05E0934501D9002301E08023DB0052AA13711B0A5371FF239371FC3BD371042260E1CE
:4007C000342A0ED1012F00D01DE14B46032B00D01CE1CC32002107A802F07FFA80235B009A46012F00D014E14B46022B00D813E107A85044DA1E4821FF3102AB9C46614494
:4008000002F062FA4B4653449BB20422FF32934200D004E152AA93791B02527913439A46554B9A4500D90A26002E00D0FFE05B46980280B2504480B24E4B1B681A68130A9B
:400840009BB2FF21114201D001339BB2834200D9F2E007A900F06AF9002800D1F4E000239A460133FF3399460A26002209E1012F00D10BE10426002203E1012F00D0EAE0BB
:400880004B46534496225200934200D9E6E007A850444A4653A902F017FA53464B449BB29A460022EDE04B46002B00D0D9E004AA324B03CB03C253AA04AB03CB03C2002317
:4008C0009A4601270822DCE0012F00D0CCE04B46032B00D0CBE052AA93791B025279134398465B46990241440902234B984500D90A26002E00D0BDE0802252000020FFF73B
:40090000B1FD030001905A46920292B2424492B25946002913D118498A4210D100210520FFF7B4FDC0B2019B1B1ADBB2984600210620FFF7ABFDC3B24246D31ADBB25B42E5
:4009400052AA137101229CE00020FFF75FFE002802D180220A4B1A6000F076FD00F052FA042600228DE0C04684FDFFFF6E020000DC2F0000CC000020FF03000008300000FB
:40098000C00000204A4B1E68002E75D0012F76D102AB1A704A465A8053AB03930C22002104A802F09AF904AB9B4653AA0692190002A8B0475B469A882623FF339A4203D9C8
:4009C00053AB0699994207D0069B002B01D1002A05D1049BDEB254E00E26002251E00E2600224EE000224CE00426002249E00426002246E00426002243E00426002240E08C
:400A0000042600223DE0042600223AE00426002237E00426002234E00426002231E000239A460133FF3399460326002229E080235B009946002224E000239A460133FF33BF
:400A400099460A2600221CE000239A460133FF339946002215E00426002212E0032600220FE0042600220CE00426002209E00426002206E0002204E00526002201E0052674
:400A8000002252A93000FFF7CBFC01E000239A46002D00D1FDE5012F00D1FAE59F239B009D443CBC90469946A246AB46F0BDC0467801002070B50020FFF7A8FD002801D09F
:400AC000062400E00024154D2B681A68C03AC0210020FFF7C7FC6B681B78C01AC0B24042C0B2834204D10D4B1B681B68002B02D1002000F03DF90A4B1B68402B01D0002C7B
:400B000005D00022064B1A600020FFF7B1FD0A20FFF7AEFDFFF77AFC70BDC046CC000020C0000020002070470020704730B5C5B004000023439342933D4B984272D800294A
:400B400070D08022520002A802F0BEF8394B9C4201D9394B00E0394B0093FF230193384B6A461A603749384A1160C0461B681B0F1B07F0221206934204D1314B1B68FF2299
:400B800013400DE02E4B1B681B0F1B07A0221206934204D02A4B1B68FF22134000E000234393439B002B3FD100F0DBFC0500FFF7B9FF4290439B002B25D1244A0092009AE7
:400BC0002404144300941E4A6946116020481E490860C0461268120F1207F02109068A4204D1174B1B68FF2213400BE0144A1268120F1207A02109068A4203D0104B1B6805
:400C0000FF2213404393429B002B07D1FFF78CFF4290429B002B01D0429B4393280000F0A4FC01E004234393439845B030BDC046FF030000FF010000B6D70001B6D7000035
:400C4000080010400400008004001040B6D800000500008070B5040000F083FC0500102C05D8104A136803218B43136016E0202C07D80C490B6803229343023A13430B6060
:400C80000CE0302C07D807490B6803229343013A13430B6002E0002000F06AF8280000F064FC70BD30001040024A1168024B0B401360704700002240FFFFFFBF034B186867
:400CC0008023DB05184000D001207047000022400A4A136801218B431360094B1A681E318A43084802601A688A4317390A431A60054A116802230B431360704750000C40D2
:400D000034FF0B407C01002024002C40064A136802218B43136005490B681F229343044A126813430B60704724002C4034FF0B407C010020034B1B680220184000D00120DA
:400D40007047C04624002C401F2318401E3B8340014A13607047C04600E100E01F2318401E3B8340014A13607047C04680E100E001BE704770B504000D000F2802D90020E4
:400D8000FFF7F6FFA40080239B059C4664442068256070BD70B504000D001F2802D90020FFF7E6FF1034A40080239B059C4664442068256070BDC04670B504000E000329F2
:400DC00002D90020FFF7D4FF1F2C02D90020FFF7CFFF03252540ED00063500F0C2FBA408A400074B9C46644421680323AB4099430B003100A9401943216000F0B6FB70BD51
:400E000000E400E0034A13681B041B0C02490B43136070470CED00E00400FA0510B5040006E0084B586800F093FB074B9C46644480231B029C42F4D8024B9868604300F0DB
:400E400087FB10BDD40000200080FFFF30B583B000F032FA00285FD000F083FB04002F4A116801230B43136000230AE02C4A12683F210A402B49C95C8A4201D1033303E0E6
:400E800001332D2BF2D90323274A1268D20606D1254802681F218A4313390A430260234A1168234A0A40234959438020C00184466144C90B01394905490D0A43A0214903BB
:400EC00011430800192B02D81B4B1A430EE01B4A9A1812781A3B1349C9183023CB5CD318FF2B00D9FF239B0502001A430F4B1A60134D2B6801933020FFF7ACFE114A1368EA
:400F00008021C9050B4313601420FFF787FF019B2B60200000F029FB03B030BD50000C402CFF0B401030000034FF0B400800224000F800C040420F000000D43F4DF3FF0FF2
:400F4000300010400000224010B5034B1B7B584300F0FEFA10BDC046D4000020F0B55F4656464D464446F0B483B0040000F0F9FA0190FFF7A3FE002804D0FFF795FE01230A
:400F80009B4601E000239B46FFF7D4FE002807D0182C01D0302C05D1FFF7B8FE012502E0002500E00025E71E2D2F00D985E04E4B1B78DBB29C4208D84C4B1B78DBB29A46D2
:400FC0004B4B1B78DBB2994631E04A4B1B78DBB29C4208D8484B1B78DBB29A46474B1B78DBB2994623E0464B1B78DBB29C4208D8444B1B78DBB29A46434B1B78DBB2994626
:4010000015E0424B1B78DBB29C4208D8404B1B78DBB29A463F4B1B78DBB2994607E03E4B1B78DBB29A463D4B1B78DBB299463C4BDB5D98462F2B09D92A2C07D91922394B77
:401040001A60052000F084FA192603E0354B1E683F231E40464506D9314BDA5D314B1A60052000F075FA012D05D1302C03D12E4B1B78DBB20CE0012D05D1182C03D12B4B99
:401080001B78DBB204E0254B9C4664442378DBB2274A1360274B52461A60274B4A461A600520FFF751FF46450AD21D4BDA5D1D4B1A60052000F04CFA02E00020FFF758FE2A
:4010C0005B46012B01D1FFF7C1FE012D01D1FFF7FFFD019800F049FA03B03CBC90469946A246AB46F0BDC04640F3FF0F41F3FF0F42F3FF0F43F3FF0F44F3FF0F45F3FF0F5D
:4011000046F3FF0F47F3FF0F48F3FF0F49F3FF0F4AF3FF0F4BF3FF0F4CF3FF0F4DF3FF0F103000002CFF0B403FF3FF0F3EF3FF0F28FF0B401CFF0B4020FF0B40024A11681F
:4011400002230B431360704710E000E010B5FFF7F5FF034A116801230B43136010BDC04610E000E00002000A014B18607047C04614E000E0012805D1054A116804230B4368
:40118000136004E0024A136804218B431360704710E000E0024B1868000C01231840704710E000E010B5FFF7F5FF01280CD108E0A300064AD3185B68002B00D098470134FB
:4011C00000E00024042CF3D910BDC0467C0100200022014B1A60704718E000E010B5002305E09A000C498A18002151600133042BF7D90A490F20FFF7BDFD0120FFF7BAFFA3
:40120000074B1869FA21890001F0A6FCFFF7AAFFFFF7DEFF10BDC0467C010020A5110000D400002010B5064B9B69002B04D1FFF7D5FF0122024B9A61FFF788FF10BDC04679
:401240007C0100208000024B1B185868596070477C0100208000024B181840687047C0467C010020034B1868C0231B02184000D00120704700010B4010B50D4B1A6801212A
:401280008A431A601A68022082431A60094A10683024A043203C204310601068093CA043014311601A68802109060A431A6010BD00002240000F2240034B1B68002B01DA0E
:4012C000012000E0002070470000224010B500F048F9044A1368C02109020B43136000F044F910BD00010B4010B500F03AF908490A68084B1A408024E40122430A600A68E0
:4013000013408022120213430B6000F02EF910BD00010B40FF3FFFFF70B5050000F021F90400FFF79FFF002803D0FFF7DDFF012100E0002108482840084A1568084B2B4076
:40134000184310601368012901D1FFF7BFFF200000F00BF970BDC0460404040010020B40FBFBFBFF10B5244B1B685B0715D5234B5B685B070ED5224B596A042001401F4C5E
:4013800062688A4362605A6A82435A629B69002B00D098470420FFF7BFFF174B1B685B0518D5164B5B685B0510D5154B596A8022D2001140114842688A434260596A114AC6
:4013C0000A405A62DB69002B00D098478020C000FFF7A2FF084B1B685B030CD5074B5B685B0304D5064B1B6A002B00D098478020C002FFF791FF10BD10020B40E8000020A7
:4014000098010020FFFBFFFF04490A68D2B202239A434000184010430860704700000440024B186840080123184070470400044010B562B60221002000F06AF90122014BF6
:401440001A7010BDC001002010B500F0A9F910BD10B5012000F068FA10BDC04670B50E0015009A009B185C00A4B240220100022000F00CFA04E00120FFF7D0FC013CA4B2E9
:40148000022000F0DFF9002801D1002CF3D1022000F0D8F9002802D02E80002000E0102070BDC046F0B583B001900F0016009A009B185C00A4B2402900D94027224B1B7834
:4014C000002B06D118E00120FFF7A8FC013DADB200E0250000F0A2F9002801D1002DF2D100F09CF9002817D000F09EF9FFF7B0FF0022154B1A700FE000F096F900280BD0E3
:4015000000F08CF9002807D0FFF7A2FF04E00120FFF784FC013CA4B2012000F093F9012801D0002CF3D1012000F08CF9012806D13A00019900F010FA3080002002E00023D2
:401540003380102003B0F0BDC0010020000000000230800803D00138FDD1C046C046C0467047EFF3108072B6704780F31088704710B50122244B1A60244A136820218B430E
:4015800013600A22224B1A60224C234B23602368224A1343236023680422934323600220FFF7D2FC2368082293432360FFF7C2FB002800D002201A4B18601A4A1A4B1A608B
:4015C00007221A4B1A6003211E20FFF7F5FB18491E20FFF7DFFB03211F20FFF7EDFB15491F20FFF7D7FB03210020FFF7E5FB12490020FFF7CFFB03210520FFF7DDFB0F49C2
:401600000520FFF7C7FB10BD74022C4048002C4030032C4000202C40010000040C0000B824002C401A00050030202C4028202C40CD1E00004D1F00000D1F0000352200007D
:4016400010B50C00002304E00121234AD1540133DBB2002BF8D0214B18700023204A1370204A1370204A1370204A1370204A1370204A1370204A13701E20FFF765FB0020E4
:40168000FFF762FB1F20FFF75FFB002C02D0012C06D00BE0194A136801218B4313600AE0164A116801230B43136004E0134A116801230B43136011490B68042293430B60A0
:4016C00000210F4B196001310E4B19607F310E4B19600E4B1A6010BD68020020DC010020E2010020E0010020E1010020DD010020C8010020DF0100205802002024002C4052
:40170000A4002C40A0002C4020002C4048002C4070B504000D00074B1B78002B04D1FFF727FF0122034B1A7029002000FFF788FF70BDC046C1010020002304E001210E4ABF
:40174000D1540133DBB2002BF8D000230B4A13700B4A13700B4A13700B4A13700B4A13700B4A13700B4A137001220B4B1A607F320A4B1A607047C04668020020E2010020C8
:40178000E0010020E1010020DD010020C8010020DF01002058020020A0002C4020002C4010B5FFF7DEFE144A136880218B431360124A13687C398B431360114A13685B00DD
:4017C0005B081360FFF7D1FE1E20FFF7C7FA1F20FFF7C4FA0020FFF7C1FA0023094A1370094A1370094A1370094A1370094A1370094A137010BDC04620002C4048002C405B
:4018000000202C40E0010020E1010020DD010020C8010020DF010020C1010020014B1878C0B27047E1010020054B1B78002B05D0034B1878C0B200221A7000E000207047B3
:40184000E0010020430018188300024AD3185878C0B27047EC010020431EDBB2072B10D88301094A985880B20002F02212011040054A944663445B68184380B2023880B230
:4018800000E000207047C046F0FF2B40F0B5431EDBB2072B41D8060044002418A3001F4CE318DC8880239B001B1B9A4209D9420012189300194AD318DA8880239B009A1A6D
:4018C00092B2130A45002D18AC00144D2C19E4781C438301124D5C51D4B2AC4663445C60002909D10BE0CD5CB4010E4FBC466444256201339BB200E000239A42F3D84200BE
:4019000012189300054AD31800225A705B79DBB28001034A944660448360F0BDEC010020F0FF2B40C0012C40431EDBB2072B0DD8420012189300064AD31800225A705B79F4
:40194000DBB28001034A9446604483607047C046EC010020F0FF2B4070B505000E00140000291BD000281BD008281BD8FFF774FFA04203D22800FFF76FFF0400002307E037
:40198000AA010A498C466244126AF25401339BB2A342F5D32800FFF7C7FF04E0002402E0002400E00024200070BDC046C0012C4010B51F4B1B781F4A1188CB189BB21380C4
:4019C00000210EE01C4B5A681278D2B28C001B4822505A6801325A6001311A88013A92B21A80154B1B889BB2002B01D00729E9D90F4B1B78082B01D000290DD0104A10788D
:401A000080235B424340DBB213700F220D4B1A700D3A0D4B1A7004E002230A4A13700A4A1370C9B2094B1970014B197010BDC046580200205E020020D001002000002C4089
:401A4000DE010020C9010020E2010020590200200222074B1A707E32064B1A70713A064B1A700023054A1370054A137001207047E2010020DE010020C901002058020020E9
:401A80005902002010B5FFF793FF10BD30B5194B1B680F2119400239174A1088FF230B40C3189BB2138000200FE0144B5C688500134AAA58D2B222705A6801325A600130D4
:401AC00001391A88013A92B21A800C4B1B889BB2002B01D00029E8D1C9B20A4B19700A4A117880235B424B40DBB213700B22074B1A7030BDA4002C405E020020D001002044
:401B000000002C4059020020DE010020C90100200623064A1370064A13708022054B1A700022054B1A7001207047C046E2010020C9010020DE01002059020020064B9B68F5
:401B4000002B08D0044B9A6810709A6803490988518000229A607047D00100205E02002010B5144B1A68FF210A401A601B68DAB21B0602D5104B1A701BE00220FFF7DEFF37
:401B80000E4B1B6860221340202B06D0402B07D0002B08D100F006FE06E000F0B1FF03E000F08AFF00E00020002802D10322024B1A7010BDA0002C40C901002000002C4011
:401BC00010B5084B1B78084A1188CB189BB213800022064B1A700120FFF7B0FF0322044B1A7010BD580200205E020020E2010020C901002010B50B4B1B78DBB2042B06D0D7
:401C0000062B07D0022B0BD1FFF7DAFF08E0FFF73DFF05E00320FFF791FF0322024B1A7010BDC046E2010020C901002010B50022044B1A700120FFF781FF0322024B1A700D
:401C400010BDC046E2010020C901002010B50C4B1B78002B09D00A4A117880235B420B43DBB208490B60002313700022064B1A700120FFF763FF0322044B1A7010BDC04650
:401C8000C801002020002C40E2010020C901002010B5094B1B78DBB2042B06D0062B07D0022B07D1FFF7EEFE04E0FFF7BFFF01E0FFF7CCFF10BDC046E201002010B5264B4F
:401CC0001B68DA0643D51A060CD50F221340012B14D1FFF745FF214B1B785BB2002B0FDB012310E05A0603D5FFF7D2FF01230AE09B0607D5FFF77EFF012304E0002302E05A
:401D0000002300E00023002B21D0134B1B681B061DD4134B1B78134A12781343124A13601268934213D10D4B1B78DBB20A4A1268120607D4094B1B78DBB2074A1360136852
:401D40000F221340054A1278D2B29342EBD10422064B1A6010BDC046A0002C40C9010020DE01002059020020A4002C4020202C400022064B1A80064B9B68002B05D0044A52
:401D8000916800230B709268538070475E020020D001002010B5114B1B889BB2002B02D1FFF756FE17E002220D4B1A7000220D4B1A70FFF7DDFF0C4AD3691B029BB2926974
:401DC00013439BB2054A128892B2934201D2034A1380FFF7EDFD012010BDC046D0010020E2010020DE01002000002C4010B504220C4B1A707C320C4B1A70FFF7B9FF0B4AFA
:401E0000D3691B029BB2926913439BB2084A128892B2934201D2064A13800B22054B1A70012010BDE2010020DE01002000002C40D0010020C901002001220A4B1A600A4B1E
:401E40009B6C0A4B1A7B03231340012B06D0074AD17B80235B424B40DBB2D3730122034B5A7370472C002C40F0FF2B40EC01002002220B4B1A6088230A4AD3580A4B1A7EBC
:401E800003231340012B06D0074AD17E80235B424B40DBB2D3760122034B5A767047C0462C002C40F0FF2B40EC0100200122014B1A60704720202C4010B50222024B1A606D
:401EC000FFF73AFC10BDC04620202C4070B50D4B1D682B0601D5002398470F2422002A40EC08FF235B011C401443002507E0E30703D5AB00044A9B58984764080135002CE1
:401F0000F5D170BD34202C405830000070B50D4B1D682B0601D5002398470F2422002A40EC08FF235B011C401443002507E0E30703D5AB00044A9B58984764080135002C10
:401F4000F5D170BD38202C405830000070B50D4B1D682B0601D5002398470F2422002A40EC08FF235B011C401443002507E0E30703D5AB00044A9B58984764080135002CCC
:401F8000F5D170BD3C202C405830000010B50C4B18780138C0B200F09DF90A4B1B69FF221A40931CDB00C0184168074B9B5CDB00CB185B68596A0B78044A1380516010BD33
:401FC000E101002000002C40CC010020D001002010B50E4B18780138C0B200F07BF90C4B1B69FF221A40931CDB00C0184168094B9B5CDB00CB185B68DB695A7812021978F0
:402000000A4305490A8002334B6010BDE101002000002C40CC010020D001002070B500221C4B1A801C4B18780138C0B200F052F91A4BD968CCB21B69DDB2FF221A40931CFC
:40204000DB00C0184068002D23D1154B9B5CDB00C3185B68013CE4B2022C1AD8FF221140104A94466144C90059180C4B9B68D8B20A7890420DD84968FF2213405A00D31815
:402080009A008B18034A59685160198811809B68936070BDD0010020E101002000002C40CC010020FFFFFF1F10B55D4B1A69D1B21B681B0651D55A4B5B68022B2FD002D8BC
:4020C000012B22D090E0032B3AD0062B00D08BE0534BDB68212B0AD1FFF758FF514B1B889BB2002B00D181E0FFF754FE97E04C4BDB68222B7CD1FFF76BFF4A4B1B889BB258
:40210000002B77D0FFF746FE89E0FFF787FF454B1B889BB2002B6FD0FFF73CFE7FE000296CD13F4B9B68002B6AD13E4901330B80FE331A403C4BD2184A60FFF72BFE6EE0E3
:4021400000295FD1374901230B80FE331A40374BD2184A60FFF71EFE61E0314B5B680A2B0DD00B2B30D0092B4ED1FFF757FF2D4B1B889BB2002B49D0FFF738FE4FE000298D
:4021800046D1274B9B68002B44D1FF331A40244BDB68DBB224498B54895CC9B2244B9B5CDBB2994203D20021214B995409E0204B9B5CDBB2012B04D91B4B9B5CDBB21C498F
:4021C0008B54FFF7A5FC2AE0002925D1144B9B68012B23D8FF231A40114B9B68DBB213498B54FFF795FC1AE0002018E0002016E0002014E0002012E0002010E000200EE021
:4022000000200CE000200AE0002008E0002006E0002004E0002002E0002000E0002010BD00002C40D001002060020020680200206402002010B500F05BFC10BD10B50123D6
:4022400038E09A010C201E4950505900C9188A001C498A185279002A16D05900C9188A0018498A18127952B2002A06DA9A0116498C4662440C2191600CE09A0112498C462E
:4022800062440821916005E09A010F498C466244802191605900C9188A000A498A18D18889B29801094C0419A160D28892B2074942500133082BC4D9FF22054B1A6010BDE7
:4022C000C0012C40EC010020F0FF2B40D0112C4028002C40074B1B78DB00074AD3185B681A7C824204D9C00010301818406800E000207047DC010020F8300000F0B557467D
:402300004E464546E0B43F4B1B78002B75D03D4B18780138C0B2FFF7DDFF047AC3683A4A1078C0B2002266E01978884261D13749095CC9B25D78A9425BD199787F25294042
:40234000DD7803262E40B446314DA8464E007718BD004544AA460027EF709F782F71DF78B9467618B70046464D46BD559E8855462E8102255D57002D0EDA6546012D01D1E4
:40238000072700E00D274E007618B500204E75196F7101266E700DE06546012D01D1052700E009274E007618B500194E75196F7100266E708D01174EB146A94401264F4698
:4023C000BE604E0071188E00114989190E89360AB046104E4746AF510E89F6B24F467E60CE88B6B20C4FEF19BE60C98889B20A4EA95108330132A24296D31CBC904699468F
:40240000A246F0BDE1010020DD010020CC010020EC010020F0FF2B40D0112C40034B1B78DB00034AD31858687047C046DC010020F830000010B5084B18780138C0B2FFF787
:4024400049FF002806D043681B790233DB00C018406800E0002010BDE1010020F0B557464E464546E0B4002312E06E4E5900CC18A20000249455B2189470D47000251481FA
:4024800095725570C9188A00B21855710133DBB2082BEAD9002808D10AE000226249CA546249CA540133DBB200E00023002BF4D05F4B1B78002B00D1AFE05D4B1878013813
:4024C000C0B2FFF707FF82464368DB795B0606D5584A117801230B43DBB2137004E0554A137801218B43137053461E7A012465E05346D96800235DE08A787F252A40944282
:4025000055D1270065002D19AA00464DAA18128992B28D88AA4208D262009446A4446246920040488446624415810A783E4DAA5CD2B24D78AA423AD18A789146394A944675
:402540007A00D0198500654448462871C878D21995006246A854CA7803252A4002254D57002D12DA012A02D10632914601E00D2291462C4A94467A00D01985006544484624
:4025800068712A000125557011E0012A02D10432914601E009229146224A94467A00D01985006544484668712A000025557008310133DBB2B3429FD30134E4B2082C97D92C
:4025C0005346D86800220CE083787F210B4004785900CB189900134B59188C7208300132D2B2B242F0D3FFF725FF134B1860002201230EE00B4D5900C81884002C19E2806A
:4026000021898A1891B201220A4089188AB20133DBB2082BEED9FFF711FE1CBC90469946A246F0BDEC010020CC0100205C020020E1010020DF010020E801002010B5174B35
:402640001B697F2213405A1E072A24D85900C9188A0013498A18907801210143C9B291700021D170507802210143C9B25170127952B2002A06DA9B010A4A944663448D220B
:402680009A6005E09B01074A9446634489229A60FFF73EFA00E0002010BDC04600002C40EC010020F0FF2B4010B5274B1B697F2213405A1E072A45D85900C9188A002349AF
:4026C0008A1891780120814391700021D1709901812464421E480C505178022081435170127952B2002A15DA5900C9188A0017498A185278012A06D19B01154A944663441A
:402700000C229A601BE09B01114A944663440D229A6014E05900C9188A000C498A185278012A06D19B010A4A9446634408229A6005E09B01064A9446634409229A60FFF758
:40274000E7F900E0002010BD00002C40EC010020F0FF2B4070B50F4B1C69E5B20E4B18780138C0B2FFF7B6FD43681B799D4201D9012D0CD8FF2323400849CA5CD2B2084827
:40278000C254044A9268D2B2CA54012000E0002070BDC04600002C40E1010020CC0100205C02002010B5B34B1B680021B24A11801A0600D4A2E0AF4A5268062A0AD002D8EB
:4027C000002A5FD038E1082A00D184E00A2A00D189E031E1A74BDB68012B09D1FFF71EFE4268A54B5A6012221A80FFF7D3FA40E1A04BDB68022B14D19E4B9868C0B2FFF79C
:4028000069FD002800D119E143689B4A53605368DB781B02516889780B431380FFF7BAFA27E1944BDB68032B05D028E0117852180133DBB201E00023904A8E498968994222
:4028400002D911780029F1D18A4B9B68EE2B00D18B4A884B9B68002B06D0864B9968894B1B7C994200D1884A1378002B00D1E7E0137881490B804A60FFF78CFAF9E000F0C3
:402880003FF9F6E00322134017D0022B00D0D9E079490B80774B1B697C3213405A00D3189A007A4B9A189278D2B2794B1A7000225A704B60FFF76EFADBE06F4902230B8017
:4028C000744B1A78D2B2724B1A7000225A704B60FFF760FACDE0684B01221A806E4A5A60FFF758FAC5E0644A01231380614B19696A4BCB185360FFF74DFABAE05D4A526843
:402900000B2A00D9A0E0920065498A589746594B9B68DBB2634A1370FFF7FAF8A9E0554B9C68002C03D0601EC0B2FFF7D3FC002C01D0002802D1002C00D087E0564B1B784E
:40294000DBB29C4208D0E4B2534B1C700122564B1A700120FFF782FDFFF7DAF889E0FFF7F9FE002874D0434B19691B69DBB24F4A13704F4B5A5CD2B2484B5B5CDBB29A4222
:4029800004D00122484B1A70FFF7B8FCFFF7C0F86FE003221340012B16D0002B08D0022B58D1344B9B68002B56D1FFF77DFE60E0304B9B68012B51D1364A137802218B432C
:4029C0001370FFF7A5F854E02A4B1B69002B47D1284B98681A6937498B5C83438B54FFF797F846E003221340012B17D0002B08D0022B37D11F4B9B68002B35D1FFF71EFE31
:402A000037E01C4B9B68012B30D1224A117802230B43DBB21370FFF77BF82AE0154B1B69002B25D1134B98681A6922498B5C83438B54FFF76DF81CE000201AE0002018E097
:402A4000002016E0002014E0002012E0002010E000200EE000200CE000200AE0002008E0002006E0002004E0002002E0002000E0002010BD00002C40D0010020C83100008F
:402A8000E430000048320000BC310000EC010020C4010020DF010020E1010020CC0100208C300000C8010020E0010020DD0100205C020020E401002010B50A4B1B681B06D5
:402AC0000BD5084B5B68012B09D1074B074A5A6012781A80FFF75EF902E0002000E0002010BDC04600002C40D0010020BC300000024A10680123184010607047100D044026
:402B000010B5124B1B6803221340012B02D0022B04D00FE00D4B1B69DBB20CE00B4B1B697F2213405A00D3189A00094B9A18937ADBB200E00023074A1268D35C032B02D1EA
:402B4000FFF7B2FA00E0002010BDC04600002C40EC010020E8010020002243088B4274D303098B425FD3030A8B4244D3030B8B4228D3030C8B420DD3FF22090212BA030C48
:402B80008B4202D31212090265D0030B8B4219D300E0090AC30B8B4201D3CB03C01A5241830B8B4201D38B03C01A5241430B8B4201D34B03C01A5241030B8B4201D30B031A
:402BC000C01A5241C30A8B4201D3CB02C01A5241830A8B4201D38B02C01A5241430A8B4201D34B02C01A5241030A8B4201D30B02C01A5241CDD2C3098B4201D3CB01C01A16
:402C0000524183098B4201D38B01C01A524143098B4201D34B01C01A524103098B4201D30B01C01A5241C3088B4201D3CB00C01A524183088B4201D38B00C01A52414308FC
:402C40008B4201D34B00C01A5241411A00D20146524110467047FFE701B5002000F006F802BDC0460029F7D076E770477047C046014B18687047C046500100200E4B70B53F
:402C800000251E000D4CE41AA410A54204D0AB00F35898470135F8E700F0E0FA084B00251E00084CE41AA410A54204D0AB00F35898470135F8E770BD6832000068320000B5
:402CC0006832000070320000002310B59A4203D0CC5CC4540133F9E710BD03008218934202D019700133FAE77047000000340000800000000000000000300F40800400355B
:402D00000F40000300400F400008000080340F40282F000080000000850F0402060808020A0D0C0D10021204140D200D240D280D2C012E02320F3A0858045F01001402015F
:402D400004060510070209060C220E201028110113401511160118101D101E201F0827082CA02D903610374A3D083E803F20450A47224C014D884F605501569A65106C2A71
:402D80006D116F407480760186808C028D04C0F7C27CC4DFCAF0CCF0CE70D0E0D230D820001A0418060209080A100B330C010D250E080F081008121214121608180C191C74
:402DC0001A031C031E041F02201A24082C022D282F17300F3410353C370339203A023E105440580459045B045F018104840486088D17900E91029201930C950C9702990A89
:402E00009B049D0EA004A10EA512A705A902AC01AD11AE0AAF02B008B107B308B407B710BA20BE01BF44D409D804D904DB04DF010004044005100608075009020C0A0D4045
:402E40000E04110213401480162218041A841B101C401D021F122108234126A028802A212B1A2F02302A335036A039803A023B403F60582159085A806301661067226C017B
:402E8000800184208602880189088D108E208F019404974099089A1B9B40A02AA101A308A50AA680A710AB08AF20C0F4C2F8C4B9CA1FCC3FCE39D60FD878E2906801DA409B
:402EC000A401078053045702660867028704A401C020D420D6A0D880E610830188018E0897029E08A401AB02AF80E620E840EA202D088908CA01E2011201130101000F40D1
:402F000011340F4032350F4048360F4046370F4002400F4001410F400C420F400B430F4004470F4002600F4003003C007904060002560D0915606A00400A0010100160002D
:402F4000400400000004000040040000000400000000400440070038000070000F7F0000002028000000000046053000020EFBCD3DFFFFFF2200F0080400000000000224E7
:402F800004040404000000010000C00040011011C001001140014001000000000000000000000000000000005A0500009A040000AA040000BA040000CA040000DA04000075
:402FC000EA0400000A050000FA0400001A0500002A0500003A0500004A050000540700007407000084090000C00700006E080000840900007A080000A6080000C0070000D6
:40300000C808000048090000A011111000320101030405060708090A0B0C0E0F101112131415161718191B1C1D1E1F2021222325262728292A2B2E2F303132333435000079
:40304000EEDBC9B9AA9B8E82766B60564D443B332C241D17100A0400AD1E0000B91E0000BD1C00000000000000000000391E0000711E000000000000000000000000000017
:40308000000000000000000000000000482A000092290000482A0000E4290000482A00000E290000482A0000482A0000482A00001E290000482A00005E29000028000000FD
:4030C00000010400010000000000000000014359555342000000303030303100000000000000000012034D005300460054003100300030000100000001000000003100003F
:40310000010000004832000000000000000000000100000018310000010000001C320000020000003C310000010000004C310000000000003831000003000000000001031E
:4031400040000300000082034000030001000000543100000000000088310000000000007C31000000000000000000000100000094310000010000002E32000041000000F0
:40318000B4020020F802002041000000700200206C020020240005010900A1000900A1000900150025FF7508954091020900150025FF750895408102C0C000000A03300045
:4031C0003000300031000000040309042C0343007900700072006500730073002000530065006D00690063006F006E0064007500630074006F0072002203500053006F005C
:4032000043003300200042006F006F0074006C006F00610064006500720000000902290001010080190904000002030000020921110100012224000705010340000107052A
:4032400082034000010000001201000200000008B4041DB70130010280014300F8B5C046F8BC08BC9E4670473502000091030000F8B5C046F8BC08BC9E4670470D02000081
:4032800090320000C800002090000000A801000000000000EC2C0000F02C0000010000000000C05D80BB000030000000006CDC02F000000004040400000000000000000028
:4032C0000000000000000000000000000000000000000000000000005A32000000000000000000000000000000000000000000000000000000000000000000000000000042
:40330000000000000000000000000000000000000000000000000000F00000200000000000000000000000000000000000000000000000000000000000000000000000007D
:40334000000000000000000000000000000000000000000000000000000000000000000000000000000000000000000000000000000000000000000000000000000000004D
:40338000000000000000000000000000000000000000000000000000000000000000000000000000000000000000000000000000000000000000000000000000000000000D
:4033C00000000000000000000000000000000000000000000000000000000000000000000000000000000000000000000000000000000000000000000000000000000000CD
:40340000000000000000000000000000000000000000000000000000000000000000000000000000000000000000000000000000000000000000000000000000000000008C
:404000000080002011400000F5700000F570000010B5024B83F3088803F08EF80080002070B51222304B1A6005F0E8FB2F4806F0CBF9302005F02EFA05F0A0F92C4A2D4B54
:404040001A602D4C8025ED052560A022D2002B4B1A602B4B2B4A1A602B492C4A11602C4A1A60802189002B4A11602B4A1A602B492B4A11602B4A1A60F82149012A4A11606D
:404080002A4A1A6088218901294A1160294A1A60E8214901284A1160284A1A6080221206274B1A608022D202264B1A604122264B1A607F32254B1A60803A254B1A60053221
:4040C000244B1A60023A244B1A600132234B1A60023A234B1A602349082005F0F3F8082005F0CAF8256070BD30001040001BB7000600008004010B400C020B4004030140A5
:404100000000014041FF008000FF9E2400050140C0FF00800003014040FF008000DF01001403014045FF00800C03014043FF00801003014044FF00800803014042FF008003
:4041400008010B4000010B405801014054010140500101402C010140140101400C01014008010140E998000070B572B601225F4B1A7000240FE05E486200131959000B00B1
:40418000411889881A5AC31858880004104302F0A7FF0134E4B2032CEDD9002414E0544EA20011194B00F318198B588B000408439D8BD98B0904294313195A00B218128C12
:4041C00002F094FF0134E4B2012CE8D948492C3148485C3002F05AFFE0221201464B1A800122464B1A70464A464B1A60464A474B1A60474A474B1A60474A484B1A60EE222C
:404200001204474B1A609922464B1A6099231B04454A1360454A46490A608020800445490860932000044449086044490A6080210903434A11604349434A1160434A13603F
:404240004349444A1160444A1360444A13600722434B1A60013A434B1A6043490B783632934314221343DBB20B70404A117816230B43DBB21370CF223D4B1A603D4A3E4BAF
:404280001A6003223D4B1A6002233D4A13601D213C4A11603C493D4A116077213C4A11603C493D4A11603D4A13603D493D4A11603D4A136024213D4A11603D493D4A116053
:4042C000C02189023C4A116032213C4A11603C493C4A11603C4A136031213C4A11603C4A1360FFF79DFE02F0EBFE70BD1C700F4000380100803C010000600F4002600F4090
:4043000033330033000002400333000000010240030333000002024099EE000000030240000602400007024000500F400400990010500F4014500F4018500F4020500F403B
:4043400024500F400000310E28500F4040500F40000087D048500F4050500F4070500F402000104000800F4001700F4000700F4000000440B60DD80008000440000D04401F
:404380000C0D0440000104400419180008010440000204408E611B000802044000030440B16D0300080304401803044000040440B612030008040440080504400006044027
:4043C000884102000806044000070440080704401807044010B5064C2378002B07D1054B002B02D0044800E000BF0123237010BDD0110020000000009CFC0000084B10B57D
:40440000002B03D00749084800E000BF07480368002B00D110BD064B002BFBD09847F9E700000000D41100209CFC0000C800002000000000F8B504000F00160032220021E6
:40444000382003F083F9C5B2002D04D13221200003F00AFAC5B2002D05D132220121382003F084FAC5B2002408E0002D04D139193222002003F01CFA0134E4B2731E9C424B
:40448000F3DB002D05D1611E79183222012003F00FFA322003F0BCF903F048FA642004F0EFFF2800F8BDC04610B5002003F014F80A2004F04BFF012003F00EF8FA20400072
:4044C00004F044FF10BDC04630B503785AB2002A1BDA82780F24A2430C01A24215D11B02F0221201134044781B19084D4C002C19638083781B021A40C378D21804314900DB
:4045000069188A800122024B1A7030BD34180020EC11002010B584B0092201A90020FFF789FF002821D101AB1B78002B1DD101AB9B780F4A5370013BDBB2042B10D914E0F2
:404540006300E31858000330C0B2062201A9FFF771FF210001A8FFF7B7FF0134E4B200E00024034B5B789C42EAD304B010BDC046EC11002010B505F051FE10BD10B505F073
:404580009FFE0C4C207805F0ABFEA07805F0AEFE01F0F6FF01F0F4FF4388632B03D901F0EFFF3223438001F0EBFF4088FFF7E2FF10BDC046F211002010B5174A1379594264
:4045C0004B41DBB213715279002A0AD0002B04D0114B187805F084FE07E0002005F080FE03E00D4B187805F07BFE0B4B9B79002B0CD0094B1B79002B04D0074B987805F08B
:4046000075FE07E0002005F071FE03E0024B987805F06CFE10BDC046F211002010B502F08BF8002309E09A000649525A002A03D09900013A03480A520133034A12789342D4
:40464000F1DB10BD54180020F9110020024B80001A185288C25270475418002010B58200044BD35A002B03D1FFF7F0FF012000E0002010BD5418002010B5094B1B78082BBB
:4046800008D8084A99005418608088525A1C04490A7003E0044808F061FEFF23180010BDF911002054180020A0FC000010B505F063FD034805F094FD02F004FF10BDC0463A
:4046C0001D46000001E0C0461800431E0028FAD17047C04610B50400002003F013FA200003F04EFA012004F0CBFE10BD10B50400012003F007FA200003F042FA0520FFF710
:40470000E1FF10BDF8B507000D0016001C002A20FFF7E0FF380AFFF7E9FFF8B2FFF7E6FF300AFFF7E3FFF0B2FFF7E0FF2B20FFF7D1FF280AFFF7DAFFE8B2FFF7D7FFA0086C
:40474000C0B2FFF7D3FFE0B2FFF7D0FF2C20FFF7C1FFF8BD10B5012003F062FA142004F0F5FD002003F05CFA142004F0EFFD012003F056FA142004F0E9FD10BD10B504001D
:40478000000AFFF7B3FFE0B2FFF7B0FF10BDC046F8B516001F0006AB1D884023FF33984228D8EF2926D88318013B4022FF32934203DDA0267600361AB6B2CB19013BEF2B33
:4047C00002DDF0277F1ABFB27B18013B9BB23218013A92B2FFF796FF0AE02800FFF7CEFF013CA4B200E03400002CF6D1013FBFB2002FF8D1F8BDC04600B583B0FFF7AAFFEF
:40480000782004F0A3FD1120FFF764FF782004F09DFD3620FFF75EFF0020FFF75BFF3A20FFF758FF5520FFF761FFB220FFF752FF0C20FFF75BFF0C20FFF758FF0020FFF7ED
:4048400055FF3320FFF752FF3320FFF74FFFB720FFF740FF3520FFF749FFBB20FFF73AFF3920FFF743FFC020FFF734FF2C20FFF73DFFC220FFF72EFF0120FFF737FFC320BD
:40488000FFF728FF1020FFF731FFC420FFF722FF2020FFF72BFFC620FFF71CFF0F20FFF725FFD020FFF716FFA420FFF71FFFA120FFF71CFFD620FFF70DFFA120FFF716FF81
:4048C000E020FFF707FF0D20FFF710FF0F20FFF70DFF1120FFF70AFF0720FFF707FF0520FFF704FF0220FFF701FF2820FFF7FEFE3320FFF7FBFE3F20FFF7F8FE2620FFF7CD
:40490000F5FE1420FFF7F2FE1520FFF7EFFE2420FFF7ECFE2820FFF7E9FEE120FFF7DAFE0D20FFF7E3FE0E20FFF7E0FE1120FFF7DDFE0720FFF7DAFE0520FFF7D7FE02202B
:40494000FFF7D4FE2820FFF7D1FE2220FFF7CEFE3F20FFF7CBFE2A20FFF7C8FE1820FFF7C5FE1920FFF7C2FE2620FFF7BFFE2820FFF7BCFE0A4B1B880093F023A0225200B7
:4049800000210020FFF704FF0A2004F0DFFC2920FFF7A0FE0A2004F0D9FC03B000BDC0467E18002070B51600002405E04D1C087803F034F801342900B442F7DB300070BDF9
:4049C00010B501F0A5FE00230FE09A000949525A002A05D10A00990050184088885203E09900013A03480A520133034A12789342EBDB10BD80180020FB1100208000044B83
:404A0000C35A002B01D1012000E000207047C04680180020024B80001A185288C25270478018002010B5094B1B78082B08D8084A99005418608088525A1C04490A7003E07A
:404A4000044808F08BFCFF23180010BDFB11002080180020E8FC000010B504F06DFE00240AE0200004F080FE002804D10449200004F072FE02E00134042CF2D910BDC04625
:404A8000C149000030B583B00422164901A807F04DFF002005F04EFC042101A804F05EFA04F028FAC307FBD50A2004F0E9FC012005F040FC002506E06C1CE4B204F032FA9C
:404AC00001AB5855250004F033FA0028F4D101AA5078000493781B021843D378184303B030BDC0464CFD000030B583B008220021684607F024FF4B236A4613705A3353707F
:404B00009370D3701371002005F014FC0521684604F024FA04F0EEF9C307FBD504F012FA0821684604F01AFA04F0E4F9C307FBD50A2004F0A5FC012005F0FCFB002407E00A
:404B4000651CEDB204F0EEF9044B1C1960702C0004F0EEF90028F3D103B030BDA818002010B5012004F0F2FB002005F0E3FB062004F0CCF904F0BEF9C307FBD50A2004F077
:404B80007FFC012005F0D6FB04F0DCF9012004F0DDFB10BD30B583B00400002201AB1A80002005F0C7FB012C1FD1052004F0AEF9A52004F0ABF904F09DF9C307FBD50A202D
:404BC00004F05EFC002506E06C1CE4B204F0AAF901AB5855250004F0ABF90028F4D101AB59782423264AD15440E0022C1FD1352004F08CF9A52004F089F904F07BF9C307D2
:404C0000FBD50A2004F03CFC002506E06C1CE4B204F088F901AB5855250004F089F90028F4D101AB59782523154AD1541EE0152004F06CF9A52004F069F904F05BF9C307CD
:404C4000FBD50A2004F01CFC002506E06C1CE4B204F068F901AB5855250004F069F90028F4D101AB59782623054AD154012005F061FB0A2004F004FC01AB587803B030BD09
:404C8000A818002010B5002005F054FB052004F03DF904F02FF9C307FBD50A2004F0F0FB04F050F9A52004F031F904F023F9C307FBD504F037F92423064AD054C307F1D4A5
:404CC0000A2004F0DDFB012005F034FB012004F03DFB10BDA818002010B5012127233B4AD154642004F032FBFFF7CCFEFF23184011380F2841D88000354B1B589F46334B56
:404D00000A221A708022D200DA613CE02F4B09221A70F832FF32DA6135E02C4B08221A70F832DA612FE0294B07221A707932DA6129E0264B06221A703A32DA6123E0234B28
:404D400005221A701B32DA611DE0204B04221A700C32DA6117E01D4B03221A700532DA6111E01A4B02221A700232DA610BE0174B01221A700132DA6105E000212723134A61
:404D8000D154002020E0114C80235B00638180235B012361E3691A0162611B041A0AE26080225202A2619B0A2362FFF79DFE0120FFF7F0FE0220FFF7EDFE0320FFF7EAFE80
:404DC00000222723E254012010BDC046A81800200CFD000010B5040002E0012004F0B6FA27231A4AD35C012BF7D0130001212722995418694443FFF7B3FE002005F09AFA31
:404E0000202004F083F8200CC0B204F07FF8200AC0B204F07BF8E0B204F078F804F06AF8C307FBD50A2004F02BFB012005F082FAC82004F08BFAFFF725FF012004F086FAEB
:404E400000212723014AD15410BDC046A818002070B504000D0002E0012004F077FA27231B4AD35C012BF7D0160001222723F254FFF708FFFFF774FE002005F05BFA02207B
:404E800004F044F83378082B02D9280E04F03EF8280CC0B204F03AF8280AC0B204F036F8E8B204F033F8200004F030F804F022F8C307FBD50A2004F0E3FA012005F03AFA35
:404EC000FFF7E0FE00212723014AD15470BDC046A8180020F8B505000C00160002E0012004F034FA2723234AD35C012BF7D0170001222723FA54002005F01CFA0B2004F002
:404F000005F83B78082B02D9200E03F0FFFF200CC0B203F0FBFF200AC0B203F0F7FFE0B203F0F4FF002003F0F1FF03F0E3FFC307FBD50A2004F0A4FA04F004F800240CE0DE
:404F4000A52003F0E3FF03F0D5FFC307FBD56F1C03F0E8FF287001343D00B442F0D30A2004F08EFA012005F0E5F900212723014AD154F8BDA818002010B502F027F8014BE2
:404F8000186010BDA41B00204268002A02D1416004E01A009368002BFBD1916008607047F8B506009446134B1B88132B05D91900114808F043F900201BE0581C0D4A1080BF
:404FC000DF00F818840020000C4D641946516246E26000226260A2601030401908F0D2F9002E05D021003000FFF7CEFF200000E02000F8BDFC11002050FD0000D018002017
:405000004068002303E08B4203D0013380680028F9D1704710B5174B1868C368164C2178984701002378002B02D00022124B1A70124B994203D101220F4B1A701049104B48
:40504000994216D001220C4B1A7080231B06994207D1084B1B681B68002B0AD0054A136007E0044B1868FFF7CBFF002801D0014B186010BDA41B0020CC0000200200008087
:405080000100008010B50121002002F0A7FE10BD10B5040001F074FA0480002C08D10A4BF0221A8050325A80133AFF3A9A8007E0054BA02252001A80503A5A80C83A9A80F1
:4050C00000F0A4FB10BDC046CE00002030B583B004000D0001F054FA0388002B03D1094B1C805D8004E0074BEF21491B19805C80044B1B68180C00041B041B0C184303B034
:4051000030BDC0460012002030B583B004000D0001F036FA0388002B03D1094B9C80DD8004E0074B9D80EF20001BD880044B5B68180C00041B041B0C184303B030BDC04653
:4051400000120020F0B583B0050008001C0008AB1E881100FFF7BAFF019031002000FFF7B5FF009083B201AA1288191C934200D9111C88B2124C2181191C934200D2111CFA
:405180008AB20F4B59816B465B8801A94C881E1CA34200D9261CB1B2094FBE811E1CA34200D2261CB3B2064CE681FFF7ABFA210008310822280007F0B9FB280003B0F0BD6E
:4051C00000120020F0B54F4680B486B00400039191461D000CAB1E88009513000A00010004A8FFF7AFFF270008E0039C03E03000FFF7C4FA0134AC42F9DD01374F45F4DDE2
:4052000006B004BC9146F0BD00B583B0064A5388013B9BB21288013A92B2009000210020FFF7D0FF03B000BDCE00002010B582B00C00C3884288818800880094FFF7C2FFD7
:4052400002B010BD70B584B01D000C1C814200D9041CA4B20E1C814200D2061CB6B200920B00010002A8FFF76DFF04E02800FFF785FA0134A4B2B442F8D904B070BDC04652
:4052800070B584B01D00141C8A4200D90C1CA4B2161C8A4200D20E1CB6B2009603002200010002A8FFF74EFF04E02800FFF766FA0134A4B2B442F8D904B070BDF0B583B0AD
:4052C000040000911700019308AB1E883300019AFFF7D6FF0134A4B27D1EADB23300009A29002000FFF7AEFF3300019A00993800FFF7C6FF3300019A29002000FFF7A2FF36
:4053000003B0F0BD10B584B00B0C040C89B280B200922200FFF7D2FF04B010BDF0B55F4656464D464446F0B489B005908A4617009B4612AB04CB90461B880393C319013B94
:405340009BB204930A000091010006A8FFF7FAFE0024002399461BE0661C64004346185B002800D10398FFF709FA0135340000E00025BD42F0D352464A44013292B2009221
:40538000049B059906A8FFF7DDFE01239C46E144D945EDD309B03CBC90469946A246AB46F0BDC046F0B55F4656464D464446F0B48BB0069007910392049314AB04CB934693
:4053C0001A785B46187883B299465B465B7899B28A46594689784343DC1707252C40E318DB10521A1B041B0C53431E1D07F03AF80022FF239B0506F031FA07F075F8041C7B
:4054000005F034FC83B29846180005F0BDFE011C201C05F0FDFB002803D14046013083B29846002342460592984628E0079B43449AB206990B004B44013B9BB2009208A8BF
:40544000FFF780FE002713E05B469D5D00240BE0802323412B4203D10498FFF78FF902E00398FFF78BF90134072CF1DD01360137059B9F42E8DB434601339BB29846D045B5
:40548000D4D30BB03CBC90469946A246AB46F0BDF0B55F4680B4A8B083460391049205932E9F30AA27922F9907A807F093FF3E7807A807F06FFF85B200240EE030006043B0
:4054C000584480B207AB1B5D01930097059B049A0399FFF767FF0134A4B2AC42EED328B004BC9346F0BDC04670B584B0009001911D0008AB188809AB1E880AAB19880BABA4
:405500001B780CAC2478012B04D0002B10D0022B06D01DE06B461988091802AB198017E06B465B885143591A091A02AB19800FE06B4658881B88C0185143401A06F092FF55
:405540000022184B06F08AF905F0A8FB02AB1880052C10D0062C07D0042C1BD16B469D88AE1902AB5E8015E06B46D888451BAE1B02AB5E800EE06B46D8889B88C018401BE3
:4055800006F070FF0022074B06F068F905F086FB02AB5880029B180C00041B041B0C184304B070BD0000E03F10B50400002303804380838001F09CFF012358400123184061
:4055C000194B18745B7C002B1FD101281DD1174B1878FFF71FFA164B9B79002B1ED0FEF799FF144B1B78002B18D0134B58889989FFF78AFD6080000CA080012323800023BE
:405600000B4A93710B4A137008E0084B1878FFF7F5F9002802D00122054B9A71024B1A7C5A74200010BDC04600120020A81B0020CE000020EC1100203418002082B001911E
:4056400089B2038899420CD3438899420BD801AB5B888288934208D3C288934207D9002006E0002004E0002002E0002000E0012002B0704710B580B2194B588306282DD8DA
:405680008000184B1B589F46154B00229A82DA821A83002002F0D0FA20E03222104B9A821CE00F4B0022DA82198317E00C4B0022DA82013A1A8303325A830FE0084B0022E7
:4056C000DA8219830AE0064B0022DA82013A1A8305325A8302E0012002F0AEFA10BDC0460012002068FD000010B5314B5B8B022B08D002D8002B5AD04AE0042B20D0062B31
:4057000055D045E02A4B1B8B002B03D10022284B5A833DE02649CA8A501CC882002A04D0FA2189008A4205D032E0FA225200204B9A822DE01E4A0021D182013B138327E0F1
:405740001B4B1A8B002A01D15A8321E01849CB8A581CC882642B0ED002D8002B07D017E0C82B0CD0FA2189008B420CD010E032220F4B9A820CE032220D4B9A8208E03222CA
:405780000B4B9A8204E00A4B0021D982013A1A83074B9B8A002B07D0012002F04DFA044A938A013B938202E0002002F045FA10BD001200202923838000230380044A13884B
:4057C0004380538892889B1A013BC3807047C046CE00002030B503AC0025645F05886918018041888A1842808288D3188380C3881B19C38030BDC04610B53220FFF712F915
:40580000014B187010BDC046A81B002010B50A4C0A4B1B88013BE3800023A3802381263363810521200000F07FFC0549200000F01DFD00F09BFF10BDB41B0020CE000020A8
:4058400084FD0000F0B587B003900491150005931F4C200000F0D0FA2900200000F064FC1C4D2A88002601961427009702230021200000F029FB4034200000F0BDFA05991B
:40588000200000F051FC2A880196009703230021200000F019FB039B002B04D019000C4800F0E4FC02E00A4800F0D0FA049B002B04D01900084800F0D9FC02E0064800F08C
:4058C000C5FA0221024800F061FD07B0F0BDC046F41B0020D2000020341C002010B584B00E4B1B88012901D1283B9BB2002269460A80013B4B80888002AC2000FFF75AFF0B
:40590000E3886A46D38092889B1A012B03DD00216846FFF78BFC04B010BDC046CE00002010B584B000236A4613800A4B1B88013B538002AC2000FFF73DFFA3886A46938009
:40594000054B1B88013BD38000216846FFF76EFC04B010BDCE000020D00000200CB470B588B004000D000CAA02CA079202A807F031FD0821200000F05BFAD24B1A8800238F
:4059800001930D3300930C3B0021200000F09CFA0721200000F0C8FB02A9200000F066FC200000F0C5FC6089013080B20021FFF795FF2600403600F0E3FD0388002B0BD194
:4059C000C04B1A8800230193113300930F3B0021300000F079FA0AE0BA4B1A88002301930F3300930B3B0021300000F06DFA0521300000F099FB2900300000F037FC0122EA
:405A000023007A331A70300000F092FC2500803500F0B6FD0388002B0BD1AA4B1A8800230193113300930E3B0021280000F04CFA0AE0A44B1A88002301930F3300930A3B16
:405A40000021280000F040FA0821280000F06CFB02222300BA331A702500C03500F090FD0388002B0BD1974B1A880023019312330093103B0021280000F026FA0AE0914BA7
:405A80001A88002301930F330093053B0021280000F01AFA2000C43002230093043B0A2252420A21FFF796FE1221280000F03CFB8549280000F0DAFB844AC023E250280063
:405AC00000F036FC651CFF3500F05AFD0388002B0BD17C4B1A8800230193123300930F3B0021280000F0F0F90AE0764B1A880023019310330093063B0021280000F0E4F961
:405B0000601DFF3002230093043B0A2252420A21FFF760FE0E21280000F006FB6B4B083380225200A3506849280000F09FFB280000F0FEFB25004135FF3500F021FD038887
:405B4000002B0BD15F4B1A8800230193133300930F3B0021280000F0B7F90AE0594B1A880023019310330093093B0021280000F0ABF926004536FF36002300930A225242E5
:405B80000A213000FFF726FE81239B00E35A002B05D10093142200213000FFF71BFE0521280000F0C1FA80239B00E25A4849280000F05CFB23004133FF33464A9A862500B9
:405BC0008135FF3581239B00E35A002B26D000F0D7FC0388002B0BD13A4B1A8800230193133300930E3B0021280000F06DF90AE0344B1A880023019310330093083B00212E
:405C0000280000F061F920008530FF30002300930A2252420A21FFF7DDFD25E000F0B0FC0388002B0BD1274B1A8800230193133300930D3B0021280000F046F90AE0214B90
:405C40001A880023019310330093073B0021280000F03AF90A21494220008530FF30002300930A00FFF7B6FD0521280000F05CFA194BE25A1649280000F0F8FA23008133B0
:405C8000FF33144A9A862500C135FF3581239B00E35A002B47D000222300FE33FF331A7000F06EFC0388002B18D1064B1A8800230193133300930D3B0021280000F004F9FB
:405CC00017E0C046D200002008FD0000D8000020E0160100EF7B000002020000164B1A880023019310330093073B0021280000F0EBF82000C530FF30002300930A225242AB
:405D00000A21FFF767FD0521280000F00DFA81239B00E25A0949280000F0A8FAC134FF34074BA38603E0FE34FF340123237008B070BC08BC02B01847D2000020E0160100CE
:405D4000EF7B00000FB430B5A5B028AA02CA239213A807F03FFB03AC200000F04DF8144B1A88520092B2002501950F2300930E3B0021200000F0A8F8009500230A225242D0
:405D80000A2104A8FFF726FD0521200000F0CCF913A9200000F06AFA01235B42A386200000F0C6FA25B030BC08BC04B01847C046D200002010B50248FFF7C4FF10BDC046E3
:405DC000A8FD000010B5024800F0B2FA10BDC046B41B002010B5FFF7F5FF054B1988013989B2044B27220020FFF72CFA10BDC046CE000020FFFF0000002202600A4BC362EB
:405E000000234286012149420186084981863A2143542A39C18602870F393C328154013A835402328354704758FE0000EF7B000070B506000D00002404E0A0013018FFF788
:405E4000DBFF0134AC42F8DB70BDC046002303604386038683863C330022C2540122013BC2547047F0B5474680B488B0040005000C35280007F08EFA80B200281FD03A2336
:405E8000E15C03291BD0182819D8E36A1A785B78E68EB046278F05260496039102900197414600916068A168FFF71EFB638E228E010C80B20195E46A0094FFF7E9FA08B027
:405EC00004BC9046F0BDC046F0B5474680B484B00600009190461D000AAB1C780BAB1F7802A8FFF767FC874B1A88012F03D11700283FBFB200E017000A2D57D8AB00824962
:405F0000CB589F460023B380203AF2804EE00023B380013FF78049E00023B3807F08013FF78043E07B08B380013FF7803EE00023B3800321380004F0E9FC0138F08035E048
:405F40000321380004F0E2FCB0807800032104F067FD0138F08029E07800032104F060FDB080013FF78021E00023B380BF08013FF7801BE0BB08B3807F08013FF78015E050
:405F80007B08B3807800C719FB1703201840C719BF10013FF78009E07B00DB19DA1703210A40D3189B10B380013FF78023000C3BDAB2082A00D999E09300544AD3589F46EE
:405FC0000023338195E002AB9B88338191E002AB9C88D888001B06F045FA00224C4B05F03DFC00900191200006F03CFA009A019B05F008F904F052FE30817AE002AB9C883E
:40600000D888001B06F02EFA424A434B05F026FC00900191200006F025FA009A019B05F0F1F804F03BFE308163E002AB9C88D888001B06F017FA374A384B05F00FFC009023
:406040000191200006F00EFA009A019B05F0DAF804F024FE30814CE002AB9C88D888001B06F000FA00222E4B05F0F8FB00900191200006F0F7F9009A019B05F0C3F804F0BF
:406080000DFE308135E002AB9C88D888001B06F0E9F900221E4B05F0E1FB00900191200006F0E0F9009A019B05F0ACF804F0F6FD30811EE002AB9C88D888001B06F0D2F90C
:4060C0000022184B05F0CAFB00900191200006F0C9F9009A019B05F095F804F0DFFD308107E002ABDB880133338102E06B461B883381338943441D00013D758104B004BC5D
:406100009046F0BDCE000020B4FD0000E0FD00000000E03F1D5A643BDF4FD53FDF4FE53F0000D03F0000E83F70B505000C00FFF763FE142C00D986E0A400474B1B599F46C6
:4061400001235B422B8620336B8684E001235B422B86424B6B867EE001235B422B8620336B8678E001235B422B86FC23DB006B8671E001235B422B8600236B86AB866AE0FA
:4061800001235B422B8600236B86AB8663E0334B2B8600236B86AB865DE0314B2B8600236B86AB8657E020235B422B8600236B86AB8650E0FC23DB002B8600236B86AB8695
:4061C00049E01F232B8600236B86AB8643E0254B2B8600236B86AB863DE0234B2B8600236B86AB8637E000232B86013B6B8632E001235B422B86194B6B862CE001235B4276
:406200002B86174B6B8626E001235B422B861F3B6B8620E001235B422B86FC23DB006B8619E001235B422B8620336B8613E001235B422B860B4B6B860DE001235B422B8680
:40624000094B6B8607E001235B422B86FC23DB006B86054BAB8670BD04FE000000F8FFFF20FDFFFF18C6FFFFEF7B00000EB410B58BB004000DAA02CA099201A807F0AAF868
:4062800020000C3001A907F07DF80BB010BC08BC03B01847F0B5574680B484B004000F00924600886388C01806F0DCF800221F4B05F0D4FA02900391BD88280006F0D2F8C3
:4062C00000221A4B05F0CAFA02000B000298039905F03EFD04F0E2FC86B2A088E388C01806F0C0F80022114B05F0B8FA02900391FC88200006F0B6F800220C4B05F0AEFA1F
:4063000002000B000298039905F022FD04F0C6FC81B2534601933B68009323002A003000FEF7FCFF04B004BC9246F0BD0000E03F30B583B0041E26D03D23C35C012B22D068
:40634000828E4068A168FEF7DDFFA0882189E2886389013B9BB2013A92B2013189B2013080B2658E0095FEF72DFF3C23E35C012B09D12168002903D0628E201DFFF78AFF0D
:406380002000FFF76FFD03B030BDC04670B506000D00002404E0A0013018FFF7C9FF0134AC42F8DB70BDC04610B53B23CB5C012B0FD00B1D42888188090411431800FFF7E6
:4063C0003DF9002807D000210120FFF753F9012002E0FF2000E0FF2010BDC046F8B505000F001600002409E0A10179182800FFF7DBFF012801D1A0B203E00134B442F3DBB8
:40640000FF20F8BD0120704710B50D4C80220021200006F094FA0B4B80222100002003F05BFC094B1870002806D080220021044806F085FA002001E0FFF7E4FF10BDC0469D
:40644000E01F0020842300206020002010B5FD20800203F051FF002803D0034806F07EFF01E0FFF7D1FF10BD1C16010010B50C4C0C4B2380A01C7E2100F01AF87E23E05248
:40648000094B80222100002003F03EFD002804D0064806F063FF002000E0012010BDC046E01F002039300000842300203416010010B50122002303E0845C1B199BB20132C5
:4064C0008A42F9DB584280B210BDC04610B502490248FFF7EDFF10BD060200006820002010B50D4B19680D4C0D4A2000FEF7F2FC82239B00E45AFFF7E9FF844207D1094907
:40650000064806F035FF002803D0002002E0002000E0012010BDC04664200020682000200A0200005016010010B50E4C0C220E49200006F0FBF9FFF7C9FF82239B00E05255
:406540000A4B1868FEF746FC002407E0084B19686118044B185DFEF77BFC0134054B9C42F4D910BD6820002050160100742200206420002009020000004870477C2000205B
:4065800010B5FFF7F9FF963010BDC04610B5FFF7F7FF002303803233438010BD10B500F069FD002801D100F059FDFFF7E9FF0388002B03D0012B01D0002303804388002BE8
:4065C00001D0632B01D93223438010BD10B5FEF783FB0028FBD00F4A5369013B0E490B60126953430D4A1360FFF77AFF00280DD10B4A00210B4806F0A2F9FFF7C7FF00F0E9
:406600002DFDFFF7CBFFFFF78FFF01E0FFF7C6FF10BDC046A818002074220020642000200A02000068200020004870474421002010B5044806F092FE03F072FE02F07AFEA7
:4066400010BDC0465C16010010B503F0D7F862B600F02AF8012001F05BFA02220D4B1A8000220D4B1A700D4806F078FE0C4806F075FE00F057F800F065F80A4B1878FDF7BF
:40668000EDFF002801D0FDF797FFFEF7C3FC00F09BF8EEE7F2110020F71100207C160100981601007822002010B5002001F0C4FA01F0A6FA002001F0B3FA0A2002F046FED5
:4066C000FEF79AF8FFF798F8FDF7EEFE00F02EFF02F088FC01F092F9FDF750FF00F040F80120FDF7C9FF094B187000F0AFFCFFF76DFFFDF743FFFFF7A9FEFEF7C3FC00F006
:4067000047F8FEF739FCFEF785FC10BD7822002010B50122024B1A70FEF7E6FF10BDC0461C120020034B1B78002B02D00022014B1A7070471C1200200122014B5A7070476E
:406740001C12002010B5054B5B78002B04D00022024B5A7000F042FD10BDC0461C12002010B5FEF779F9FDF7A1FF10BD10B50020FEF74AFDFFF72EFB10BDC046034B01224A
:406780001A705A6813880133138070472012002010B5094C094B6360094803F0F5FD63681988084A12681288914204D100221A80002002F027FC10BD20120020E21F002010
:4067C0007D670000B817002010B503F0F3FD002820D13E4B5B681A883D4B1B681B889A4218D1323002F0B2FD03F0E4FD00283FD1364C002362681380FFF738FE01232372AE
:4068000000236372002002F0FDFB00210020FEF731FF5AE003F0CEFD002829D12B4B5B681B88002B24D02A4A1268128893421FD2323002F08BFD03F0BDFD002818D164216E
:406840000230FEF717FF214C63681988204B1B681A882048FFF776FAFA20C00002F076FD00210020FEF706FFFFF75AF802232372164B5B7A002B11D1144B5B681A88144BC2
:406880001B681B889A4209D100210320FEF7F2FE012002F0B7FB01220C4B5A720B4B1B78002B12D0094C002323702E2006F0E0FC074B1B681A88636819888A4200D21A808C
:4068C000FFF7D4FD0122014B1A7210BD20120020B8170020D016010010B592B000293BD0012945D16846FEF765FF02AC00230293214A0D92002263862021494221861F3121
:40690000A1863B316254E386238739393C33E154013BE2540233E2546B461B880A33A3806B465B880A3BE3806B469B880A3323816B46DA88114B1B88D3180A3B63811049E4
:406940002000FFF793FC2000FFF7F2FC03210220FEF790FE0B480CE002AC2000FEF724FE2388002B02D08020000602E0054800E0044812B010BDC046F8160100D200002042
:406980005837010001000080F0B55F4656464D464446F0B485B0040002A8FEF70BFFFEF7BFFF002525603B4BE3623B4B638601235B4223860027A5863B33E754E58625872A
:4069C000393B99463B334A46E254013BE7540233E75402AB1888A0805B889846181A032104F01EF883B29B46E38002AB9A880192228102ABD988294B1B88CB189EB26681DE
:406A0000210040312564264A944644229246D4446246E2664D86202252420A868D867A229446A444783A92466246504610700A22CA860D8725007C354A462A70013D2F70CC
:406A400002352F7058460130888040460A38C880019A0C320A81DD0FEB185B109DB24D81270080374022380005F060FFFC23DB003B8601353D817E810A492000FFF7F6FBAA
:406A80002000FFF755FC05B03CBC90469946A246AB46F0BDF816010000F8FFFFD2000020782E01006C370100F0B583B0002911D0012925D1394B1B681A88394B1B681988F2
:406AC0008A4200D21A800122364B1A703648FFF75BFF15E06846FEF767FD6B461B88002B0ED0072230496846FFF778FC002807D103F058FC002801D001204DE000204BE076
:406B0000284B1B78022B23D1274C2000FFF73CFF224F3B681A88254E2500403531002800FFF7A4FB3B681B881D4A126812889A1A803431002000FFF799FB2800FFF7F8FBA4
:406B40002000FFF7F5FB0022164B1A70184823E0002B20D0114F3B681A88144E124C2500403531002800FFF781FB3B681B880C4A126812889A1A803431002000FFF776FBEA
:406B80002800FFF7D5FB2000FFF7D2FB0022054B1A70074800E0064803B0F0BDB817002024120020281200202C120020E016010001000080F0B54F464646C0B483B0040045
:406BC000FEF7AEFE02212000FFF732F96846FEF7F1FD6B46DB886A4695885B1B244A10881B1A9BB264205843C82103F019FF83B298466B461F880A37BFB2A7805E880A3E9B
:406C0000B6B2E6806B1D2381454405356581002399463A334A46E25412212000FFF784FA14492000FFF722FB2000FFF781FB25004035AF80EE8060892881404468817A34AF
:406C40004B4623700E212800FFF76EFA0A492800FFF70CFB2800FFF76BFB1223112200210648FEF7EFFD03B00CBC90469946F0BDD2000020703701007C370100883701009C
:406C800000B583B0002907D0012928D115484030FFF790FF144823E06846FEF785FC6B461B88002B12D002220E4940316846FFF795FB00280CD001280CD002220B49684644
:406CC000FFF78CFB002807D0074809E0064807E0002005E0012003E08020000600E0024803B000BDAC13002001000080F41B002010B592B0FEF714FE02AC2000FFF77CF88D
:406D00006846FEF757FD6B46DA889B88D21A3C3AD10F8A1852109B189BB26A4612881432A2806A465288143AE28023813C33638100236386202252422286A38607492000DA
:406D4000FFF794FA2000FFF7F3FA0E23112204490448FEF777FD12B010BDC04690370100A4370100AC37010000B583B0002905D001291ED1FFF7BCFF0F481BE06846FEF764
:406D800013FC6B461B88002B0ED002220B496846FFF724FB002809D0012803D1FFF748FC054807E0044805E0034803E08020000600E0014803B000BD01000080F41B002072
:406DC00010B50400012280239B00C25209320C4BC25200220233C2520A4A0B49FEF7BEFD01233B220121A1544032A3544032A3541223AA3A05490648FEF724FD10BDC046E4
:406E00000202000070370100B4370100BC3701008837010010B50A00803004000349FFF725FA2000FFF784FA10BDC046E016010070B504001500002901D10E4A00E00E4AFB
:406E4000B8235B00E252012901D10A4A00E00A4AD8235B00E25220004130FF30FFF768FA20008130FF30FFF763FA29002000FFF7D1FF70BD20FD0000EF7B000030B583B054
:406E8000002913D0012900D08CE0484B1B681B88474D2B80474C2000FFF792FF2A88464B197A2000FFF7C4FF44487CE06846FEF77BFB6B461B88002B6FD008223D49684662
:406EC000FFF78CFA033883B2042B47D898003C4B1B589F46364B1988374B1B890133FF335B00344A9B5ACA18632A54DC91B2304B19803048FFF78EFF4DE02D4B1A882E4BB4
:406F00001B890133FF335B002A49595A531A002B41DD99B2264B19802648FFF77BFF3AE00022254B1A81224B1A8800212148FFF77FFF30E00122204B1A811D4B1A88012124
:406F40001C48FFF775FF26E002221B4B1A81184B1A8802211748FFF76BFF1CE0022219496846FFF73BFA002819D0012813D10F4C0F4B1B8822681380FEF71CFF23681A8806
:406F8000114B1B6819888A4202D21A80FFF76EFAFFF7CAFA03E0094805E0084803E08020000600E0054803B030BDC046B8170020E8100020AC150020AC17002001000080EE
:406FC000E4160100F41B00202412002070B50120FEF75EF8114C12492000FFF747F92000FFF7A6F90F4A10490020FDF7D9FF04000E4A0F49FDF7D4FF0E4A0F492000FDF7E0
:40700000CFFF05000D4A0E49FDF7CAFF0D4A0E492800FDF7C5FF200070BDC046B41B0020C4370100A96A0000D8370100D9680000E4370100816C0000F43701007D6E0000C2
:4070400070370100696D00007C37010010B5FFF7EBFA014B186010BDB817002010B5034B18680222024905F061FC10BDB8170020F4100020044B1B681B88632B01D900208D
:4070800000E001207047C046B8170020F0B50025002711E0BB00C658F3B2FF22964308E06A008A181478A419527822700135013BDBB2002BF4D10137112FEBD9F0BDC04652
:4070C0000323044A1360044A13600022034B1A607047C0463000304030003140000E3F4010B50A00002105F02AFC10BD10B505F01DFC10BD10B505F0EDFB03680C2B00D1E6
:40710000FEE7FEE710B50300094A1068C318094A9A1A8021C9008A4202DC054A136005E005F0D8FB0C2303600120404210BDC046F8100020C823002070B50F4E0F4D13E081
:4071400029686B68AC68002202E001C901C30432A242FAD1E868002202E0002102C304328242FAD11035013E002EE9D105F0B8FBFFF76AFAFEE7C04601000000D0420100B4
:4071800010B5114A136801218B43136000230AE0032B03D89A000D49505800E00C4899000C4A885001332F2BF2D9FCF7DDFF0A4B1B68002B02D10022074B1A60024A116877
:4071C00001230B43136010BD0000104000400000F570000000000020C000002030B50B4B9A6819688C4662449A609A685B689A420BD307490C684D680122002312196B41A3
:407200000A604B600022014B9A6030BDBC170020A0220020F8B54F464646C0B480468946030B03251D40FA2189000A006A43030A0F210B40642043439D1843461B090B400B
:407240009A00D3185B005B1945460D405D1900260027574C1FE0A30705D16421200003F0DBFB002908D1C8214900200003F0D4FB002903D1012302E0012300E00023002B24
:4072800004D04C4A0023B6185F4103E04A4A0023B6185F410134AC42DDD343461B0F012213409A00D3185B004246120E0F210A409B185A1E52004149545A022B16D9AB074A
:4072C00005D16421280003F0A7FB002908D1C8214900280003F0A0FB002903D1012302E0012300E00023002B00D0013434494C4322000023B6185F4143461A0D03252A4031
:4073000093009B185B004246120C0F2422409B184B432C4A9818002136184F414B461B0D2B409A00D3185B004A46120C14401B198022120449460A4000D00122002A0DD046
:407340008022D20349461140914201D1012200E00022002A02D00B2B00D80C33E12212015A431000002136184F414B461B0B072423409900CB1859004B461A0A0F231A4086
:4073800089180A01521A9000002136184F414A461209224091008A18520049460B40D0180021801979410CBC90469946F8BDC046B20700000085E2018033E101243E01000D
:4073C0008051010080AEFEFFF0B583B001900E000B0D032423409A00D31858000F0C0F231F40C7190A0F01210A4091008A185100300E18400D18320B1440FA229200624366
:407400001000340A1C4064210A006243841832091A4091008A18510064183340E41801993000FFF7F7FE164B18605960154B5E60019A1A60022D01D80C35013C681C1A230D
:4074400058430A2103F062FAC7193F19A308FF186421200003F05AFA430018184300FF18C8214900200003F051FA3818072103F0D3FA002900D10731024B996003B0F0BDA4
:40748000A02200208422002010B50122074B1A700023074AD360074AD360074A1370074A136007490020FFF78FFF10BD80220020BC170020842200209822002094220020B1
:4074C0007019010110B5034B1B78002B01D1FFF7DBFF10BD8022002004490A68D2B204239A438000184010430860704700060440024B18684008012318407047040604408E
:4075000010B5092001F0B8FE10BDC04610B500F01DF810BD10B5044A1368802109060B431360FFF7EDFF10BD0000244010B5064B1B78002B04D1FFF7E9FF0122024B1A70B9
:40754000FFF7E8FF10BDC046CC17002010B50024184B1C60184A194B1A60194B194A1360194A1460194A1460194A1360194B1C60092001F08BFE0321092001F0B5FE1649BF
:40758000092001F09FFE154B1C60154B1C60154B1C60154B1C60154B1C60154B1C601022144B1A70144B1C80144B1C60144B1C6010BDC04600002440770800806000244026
:4075C000070100800003244004032440100324400002244004022440E9A30000C80E2440880E2440480F2440080F2440C80F2440880F2440A8220020AC220020CC220020D8
:40760000BC22002010B50E4A13685B005B08136000230C490B600C490B600C4804680C49214001600B490B600B490B6010210B4B19701368802109060B43136010BDC046BC
:4076400000002440680024406C00244060002440FF5CFFFF880F2440C80F2440A822002010B504000368002B09D0012001F008FF2368013B2360002B03D0002003E0002011
:4076800001E08020000610BD10B5002839DBC023034208D00022284B1A601032274B1A70002310243DE0C3070FD5244B1B781B072BD5234B1B685B0001D5002300E0012399
:4076C00010211E4A117001242BE0C30520D4830722D4C30605D51022184B1A70002300241FE0164B1B781B0719D5144B1B78DB0701D5252200E02422104B1A7000230024B5
:407700000FE00123802424060BE00123012408E001238024640004E00023022401E000230024012B02D1FFF76DFF02E0054A064B1A60200010BDC04668002440A8220020C5
:407740006000244017030000000F244070B582B004000D001600244B1B78102B40D1092001F094FD214B1B68DB0734D4FA239B005E43019600221E4B1A601E4A1E4B1A6028
:407780001E4A1F4B1A606400FF231C40002D03D12422154B1A7004E02522134B1A7001231C43184B1C600222174B1A60124B1C680823FF3320001840144B1B68C024234016
:4077C0001843040001A8FFF74BFF2043EED0FFF75BFF040000E00824092001F04DFD00E00424200002B070BDA822002064002440080F244017030000000F2440ED0F00009F
:40780000C00F24404002244068002440400F244010B582B0104B1B789B061AD5FA239B00584301900D4B1B689B0601D5182200E010220B4B1A600B4B18681223FF33184094
:40784000040001A8FFF70CFF2043F4D0FFF71CFF00E0042002B010BDA82200206400244068002440000F244010B582B00D4B1B789B0613D5FA239B00594301910A4B186090
:407880000A4B18680823FF331840040001A8FFF7E7FE2043F4D0FFF7F7FE00E0042002B010BDC046A822002040022440000F2440F0B583B004000D00164B1B789B0626D59F
:4078C000FA239B005A430192134B18680223FF3318400700114B1B6804261E4001A8FFF7BFFE384333000343EED0002E05D00C4B1B682B700B4A094B1A60FFF7C5FE00281B
:4079000006D1002C04D10422074B1A6000E0042003B0F0BDA8220020000F2440C00F244040032440ED0F00006800244010B5092001F0ACFC044B1C88A4B200221A80092065
:4079400001F09AFC200010BDAC220020054B1B682022134000D0082301221343024A13607047C046640024406800244010B582B0154B1B789B0623D5FA239B005A4301924E
:407980004000FF240440002903D124220E4B1A7004E025220C4B1A7001231C43FFF7D6FF0A4B1C600A4B18680823FF331840040001A8FFF755FE2043F4D0FFF765FE00E0EF
:4079C000042002B010BDC046A822002040022440000F244010B500F083F810BD10B500F02BF810BD10B5044A1368802109060B431360FFF7EFFF10BD0000274010B5064B0C
:407A00001B78002B04D1FFF7E9FF0122024B1A70FFF7E8FF10BDC046D4170020044B1B681F221340102BF9D0024B18607047C0460802274040022740154A164B1A600023BD
:407A4000154A13601549164A1160164A16490A6007201649086016490B6006381549086015490A60154A13600421154A1160154A1360154A1360154A1360154A1360154AEA
:407A80001360154A13601268144B1A807047C0460C080002000027404000274001000A00480027400700008000032740040327401003274044002740000227400402274019
:407AC00050002740880E2740C80E2740480F2740080F2740C80F2740880F2740D617002005490B68F0229343603A13430B60034B1A88034B1A60704700070240D617002047
:407B0000880F2740014B18707047C04675000F4004490A68D2B240239A43800118401043086070470001044010B502F056FC0B4A117820230B43DBB2137009490A78102350
:407B40001A43D2B20A70074A11780B43DBB2137002F047FCFF2001F061FA10BD96000F4097000F4095000F40014B1878C0B2704767000F40014B1878C0B2704765000F40E2
:407B8000034B1B785B07FBD5024B18707047C04667000F4046000F4010B501E00A4B1B780A4B1B789B06F9D402F017FC084A117801230B43DBB21370137801218B43137091
:407BC00002F00FFC10BDC04656000F4065000F4096000F4010B50F22064B1A70FFF7DCFFFFF7C2FFFFF7C6FF0023034A1370034A137010BD86000F4087000F4085000F4054
:407C000010B5064B1B78002B04D1FFF7E3FF0122024B1A70FFF788FF10BDC046D817002004490A68D2B240239A43800118401043086070470002044004490A68D2B22023D0
:407C40009A43400118401043086070470004044010B50122244B1A60244A136820218B4313600A22224B1A60224C234B23602368224A13432360236804229343236002202A
:407C800001F0FEFB236808229343236001F0EAFA002800D002201A4B18601A4A1A4B1A6007221A4B1A6003211E2001F01DFB18491E2001F007FB03211F2001F015FB1549F6
:407CC0001F2001F0FFFA0321002001F00DFB1249002001F0F7FA0321052001F005FB0F49052001F0EFFA10BD74022C4048002C4030032C4000202C40030000040C0000B8D7
:407D000024002C401A00150030202C4028202C40DD8400005D8500001D8500009D85000010B50C00204B18700023204A1370204A1370204A1370204A1370204A1370204A1B
:407D40001370204A13701E2001F096FA002001F093FA1F2001F090FA002C02D0012C06D00BE0194A136801218B4313600AE0164A116801230B43136004E0134A11680123C9
:407D80000B43136010490B68042293430B6000210E4B196001310E4B19607F310D4B19600D4B1A6010BDC046E9220020EC220020082300200B230020002300200A23002030
:407DC0000D230020E822002024002C40A4002C40A0002C4020002C4048002C4070B504000D00074B1B78002B04D1FFF731FF0122034B1A7029002000FFF792FF70BDC046DE
