:400000000080002011000000390300003903000010B500F0DBFA00F097F9C04670B51222164B1A6001F028F9154801F091FA302000F094FF00F00AFF124A134B1A60134C09
:400040008025ED05256080229200114B1A60114A114B1A6080221206104B1A608022D2020F4B1A6040220F4B1A600F49082000F091FE082000F068FE256070BD300010406B
:40008000001BB7000600008004010B400C020B400003014040FF00800000014008010B4000010B404C0101406513000070B572B601223C4B1A7000240FE03B4862001319B0
:4000C00059000B00411889881A5AC31858880004104300F027F90134E4B2022CEDD9002411E0314EA2001319590071188D8AC88A000428430A8B498B09041143802200F065
:4001000017F90134E4B2002CEBD0274920312748043000F0DDF880225200254B1A800123244A13702449254A1160002224490A6024490A609922120423490A602348244925
:400140000860802000032349086023482349086023490A60234A136023490B783C22934314221343DBB20B70204A117816230B43DBB2137030221E4B1A602D3A1D4B1A60EC
:40018000013A1D4B1A60C02252031C4B1A6077221B4B1A601B4A1C4B1A60FFF73FFF00F0B1F870BD1C700F40F82C0000F82E000000600F4002600F4003033300000202404F
:4001C000000302400803044010500F400400990020500F4024500F400000470728500F4040500F402000104001700F4000700F4008000440000D04400C0D04400801044073
:40020000000204408E611B000802044010B5064C2378002B07D1054B002B02D0044800E000BF0123237010BD5801002000000000F42C0000084B10B5002B03D00749084860
:4002400000E000BF07480368002B00D110BD064B002BFBD09847F9E7000000005C010020F42C0000C80000200000000010B5084B1A68501C1860642102F0F4FC002905D1ED
:4002800001F0CEF8C043C0B201F0BEF810BDC0467401002010B500F0C5FF00240AE0200000F0D8FF002804D10449200000F0CAFF02E00134042CF2D910BDC0466D0200001E
:4002C00010B562B6FFF7E6FF00F0F4FBFEE7C046F0B50025002711E0BB00C658F3B2FF22964308E06A008A181478A419527822700135013BDBB2002BF4D101370A2FEBD965
:40030000F0BDC0460323044A1360044A13600022034B1A607047C0463000304030003140000E3F4010B50A00002102F0D6FC10BD10B502F0C9FC10BD10B502F099FC03686C
:400340000C2B00D1FEE7FEE770B50F4E0F4D13E029686B68AC68002202E001C901C30432A242FAD1E868002202E0002102C304328242FAD11035013E002EE9D102F07EFC14
:40038000FFF79EFFFEE7C046010000008032000010B5114A136801218B43136000230AE0032B03D89A000D49505800E00C4899000C4A885001332F2BF2D9FFF777FE0A4B4C
:4003C0001B68002B02D10022074B1A60024A116801230B43136010BD00001040000000003903000000000020C0000020002306E04218013A12789B189BB2013989B20029C5
:40040000F6D1584280B270470047C04610B58022024B1A6000F0F6FC10BDC046C0000020F0B583B00D006B469E1DDA8001230B7048701400AA70130ACB70171DB9B2280013
:40044000FFF7D4FFE855631D000AE854A31D1722EA540734A1B296233200280000F0FEFF03B0F0BD70B505000E001400002802D0002000F07DFC002004E0013CAB19E35C78
:40048000C018C0B2002CF8D170BDC04610B50C2863D88000404B1B589F460B06591A0B023E4A9446634401225CE00B06591A0B023B4A94466344042254E00B06591A0B02B8
:4004C000384A9446634402224CE00B06591A0B02354A94466344042244E00B06591A0B02324A9446634401223CE00B06591A0B022F4A94466344012234E00B06591A0B02AE
:400500002C4A9446634402222CE00B06591A0B02294A94466344022224E00B06591A0B02264A9446634402221CE00B06591A0B02234A94466344042214E00B06591A0B021B
:40054000204A9446634401220CE00B06591A0B021D4A94466344042204E0002000F008FC02220023012A02D11878C0B200E00020022A03D11978587800020843042A09D1ED
:400580001A785878000210439A7812041043DB781B06184310BDC046A82F0000C0FF0300C1FF0300C5FF0300C9FF0300D0FF0300D1FF0300D6FF0300D2FF0300D4FF030052
:4005C000D8FF0300DCFF0300E0FF030010B50D4B1B68DB0602D400220B4B1A600A4B1B68802B0ED10022084B1A6000210220FFF74DFF002805D000210220FFF747FFFFF7D0
:4006000003FF10BD00030B40C000002070B5050001000320FFF73AFF441C240229000420FFF734FF241829000320FFF72FFF421C12020023002608E01078411EC9B2FD296D
:4006400000D801261B18DBB20132A242F4D35B42DCB229000120FFF719FF844203D1002E03D1062002E0062000E0002070BDC046F0B55F4656464D464446F0B4BA4CA544C7
:40068000050000F0D5FE62B600239A4600270A249946002D01D1FF2300E02B00B34A02A98C4662449621490052A800F0FBFE002D01D0013CE4B2002C01D00028E9D100281C
:4006C00000D0E5E1A94B02AA944663441B88062B24D952AA1278012A22D152A9CA78120289780A439146110007329A421AD896235B009A4218D84A1D52AB9E5C3202081DA9
:400700001E5C164306315B5C172B0FD181B252A8FFF76CFE86420BD100260AE0042608E0042606E0032604E0032602E0042600E00826002E00D055E152AB1A7993465A78B4
:400740001300313BD9B20A2900D91BE18B008849CB589F46012F00D046E14B46002B00D045E10020FFF752FF4342434152AA1371012286E1012F00D03CE14B46012B00D006
:400780003BE15B46002B00D03AE17A4B1B681B689A0CD2B2934503D11B0A9B059B0D05E0934501D9002301E08023DB0052AA13711B0A5371FF239371FC3BD371042260E1CE
:4007C000342A0ED1012F00D01DE14B46032B00D01CE1CC32002107A802F07FFA80235B009A46012F00D014E14B46022B00D813E107A85044DA1E4821FF3102AB9C46614494
:4008000002F062FA4B4653449BB20422FF32934200D004E152AA93791B02527913439A46554B9A4500D90A26002E00D0FFE05B46980280B2504480B24E4B1B681A68130A9B
:400840009BB2FF21114201D001339BB2834200D9F2E007A900F06AF9002800D1F4E000239A460133FF3399460A26002209E1012F00D10BE10426002203E1012F00D0EAE0BB
:400880004B46534496225200934200D9E6E007A850444A4653A902F017FA53464B449BB29A460022EDE04B46002B00D0D9E004AA324B03CB03C253AA04AB03CB03C2002317
:4008C0009A4601270822DCE0012F00D0CCE04B46032B00D0CBE052AA93791B025279134398465B46990241440902234B984500D90A26002E00D0BDE0802252000020FFF73B
:40090000B1FD030001905A46920292B2424492B25946002913D118498A4210D100210520FFF7B4FDC0B2019B1B1ADBB2984600210620FFF7ABFDC3B24246D31ADBB25B42E5
:4009400052AA137101229CE00020FFF75FFE002802D180220A4B1A6000F076FD00F052FA042600228DE0C04684FDFFFF6E020000DC2F0000CC000020FF03000008300000FB
:40098000C00000204A4B1E68002E75D0012F76D102AB1A704A465A8053AB03930C22002104A802F09AF904AB9B4653AA0692190002A8B0475B469A882623FF339A4203D9C8
:4009C00053AB0699994207D0069B002B01D1002A05D1049BDEB254E00E26002251E00E2600224EE000224CE00426002249E00426002246E00426002243E00426002240E08C
:400A0000042600223DE0042600223AE00426002237E00426002234E00426002231E000239A460133FF3399460326002229E080235B009946002224E000239A460133FF33BF
:400A400099460A2600221CE000239A460133FF339946002215E00426002212E0032600220FE0042600220CE00426002209E00426002206E0002204E00526002201E0052674
:400A8000002252A93000FFF7CBFC01E000239A46002D00D1FDE5012F00D1FAE59F239B009D443CBC90469946A246AB46F0BDC0467801002070B50020FFF7A8FD002801D09F
:400AC000062400E00024154D2B681A68C03AC0210020FFF7C7FC6B681B78C01AC0B24042C0B2834204D10D4B1B681B68002B02D1002000F03DF90A4B1B68402B01D0002C7B
:400B000005D00022064B1A600020FFF7B1FD0A20FFF7AEFDFFF77AFC70BDC046CC000020C0000020002070470020704730B5C5B004000023439342933D4B984272D800294A
:400B400070D08022520002A802F0BEF8394B9C4201D9394B00E0394B0093FF230193384B6A461A603749384A1160C0461B681B0F1B07F0221206934204D1314B1B68FF2299
:400B800013400DE02E4B1B681B0F1B07A0221206934204D02A4B1B68FF22134000E000234393439B002B3FD100F0DBFC0500FFF7B9FF4290439B002B25D1244A0092009AE7
:400BC0002404144300941E4A6946116020481E490860C0461268120F1207F02109068A4204D1174B1B68FF2213400BE0144A1268120F1207A02109068A4203D0104B1B6805
:400C0000FF2213404393429B002B07D1FFF78CFF4290429B002B01D0429B4393280000F0A4FC01E004234393439845B030BDC046FF030000FF010000B6D70001B6D7000035
:400C4000080010400400008004001040B6D800000500008070B5040000F083FC0500102C05D8104A136803218B43136016E0202C07D80C490B6803229343023A13430B6060
:400C80000CE0302C07D807490B6803229343013A13430B6002E0002000F06AF8280000F064FC70BD30001040024A1168024B0B401360704700002240FFFFFFBF034B186867
:400CC0008023DB05184000D001207047000022400A4A136801218B431360094B1A681E318A43084802601A688A4317390A431A60054A116802230B431360704750000C40D2
:400D000034FF0B407C01002024002C40064A136802218B43136005490B681F229343044A126813430B60704724002C4034FF0B407C010020034B1B680220184000D00120DA
:400D40007047C04624002C401F2318401E3B8340014A13607047C04600E100E01F2318401E3B8340014A13607047C04680E100E001BE704770B504000D000F2802D90020E4
:400D8000FFF7F6FFA40080239B059C4664442068256070BD70B504000D001F2802D90020FFF7E6FF1034A40080239B059C4664442068256070BDC04670B504000E000329F2
:400DC00002D90020FFF7D4FF1F2C02D90020FFF7CFFF03252540ED00063500F0C2FBA408A400074B9C46644421680323AB4099430B003100A9401943216000F0B6FB70BD51
:400E000000E400E0034A13681B041B0C02490B43136070470CED00E00400FA0510B5040006E0084B586800F093FB074B9C46644480231B029C42F4D8024B9868604300F0DB
:400E400087FB10BDD40000200080FFFF30B583B000F032FA00285FD000F083FB04002F4A116801230B43136000230AE02C4A12683F210A402B49C95C8A4201D1033303E0E6
:400E800001332D2BF2D90323274A1268D20606D1254802681F218A4313390A430260234A1168234A0A40234959438020C00184466144C90B01394905490D0A43A0214903BB
:400EC00011430800192B02D81B4B1A430EE01B4A9A1812781A3B1349C9183023CB5CD318FF2B00D9FF239B0502001A430F4B1A60134D2B6801933020FFF7ACFE114A1368EA
:400F00008021C9050B4313601420FFF787FF019B2B60200000F029FB03B030BD50000C402CFF0B401030000034FF0B400800224000F800C040420F000000D43F4DF3FF0FF2
:400F4000300010400000224010B5034B1B7B584300F0FEFA10BDC046D4000020F0B55F4656464D464446F0B483B0040000F0F9FA0190FFF7A3FE002804D0FFF795FE01230A
:400F80009B4601E000239B46FFF7D4FE002807D0182C01D0302C05D1FFF7B8FE012502E0002500E00025E71E2D2F00D985E04E4B1B78DBB29C4208D84C4B1B78DBB29A46D2
:400FC0004B4B1B78DBB2994631E04A4B1B78DBB29C4208D8484B1B78DBB29A46474B1B78DBB2994623E0464B1B78DBB29C4208D8444B1B78DBB29A46434B1B78DBB2994626
:4010000015E0424B1B78DBB29C4208D8404B1B78DBB29A463F4B1B78DBB2994607E03E4B1B78DBB29A463D4B1B78DBB299463C4BDB5D98462F2B09D92A2C07D91922394B77
:401040001A60052000F084FA192603E0354B1E683F231E40464506D9314BDA5D314B1A60052000F075FA012D05D1302C03D12E4B1B78DBB20CE0012D05D1182C03D12B4B99
:401080001B78DBB204E0254B9C4664442378DBB2274A1360274B52461A60274B4A461A600520FFF751FF46450AD21D4BDA5D1D4B1A60052000F04CFA02E00020FFF758FE2A
:4010C0005B46012B01D1FFF7C1FE012D01D1FFF7FFFD019800F049FA03B03CBC90469946A246AB46F0BDC04640F3FF0F41F3FF0F42F3FF0F43F3FF0F44F3FF0F45F3FF0F5D
:4011000046F3FF0F47F3FF0F48F3FF0F49F3FF0F4AF3FF0F4BF3FF0F4CF3FF0F4DF3FF0F103000002CFF0B403FF3FF0F3EF3FF0F28FF0B401CFF0B4020FF0B40024A11681F
:4011400002230B431360704710E000E010B5FFF7F5FF034A116801230B43136010BDC04610E000E00002000A014B18607047C04614E000E0012805D1054A116804230B4368
:40118000136004E0024A136804218B431360704710E000E0024B1868000C01231840704710E000E010B5FFF7F5FF01280CD108E0A300064AD3185B68002B00D098470134FB
:4011C00000E00024042CF3D910BDC0467C0100200022014B1A60704718E000E010B5002305E09A000C498A18002151600133042BF7D90A490F20FFF7BDFD0120FFF7BAFFA3
:40120000074B1869FA21890001F0A6FCFFF7AAFFFFF7DEFF10BDC0467C010020A5110000D400002010B5064B9B69002B04D1FFF7D5FF0122024B9A61FFF788FF10BDC04679
:401240007C0100208000024B1B185868596070477C0100208000024B181840687047C0467C010020034B1868C0231B02184000D00120704700010B4010B50D4B1A6801212A
:401280008A431A601A68022082431A60094A10683024A043203C204310601068093CA043014311601A68802109060A431A6010BD00002240000F2240034B1B68002B01DA0E
:4012C000012000E0002070470000224010B500F048F9044A1368C02109020B43136000F044F910BD00010B4010B500F03AF908490A68084B1A408024E40122430A600A68E0
:4013000013408022120213430B6000F02EF910BD00010B40FF3FFFFF70B5050000F021F90400FFF79FFF002803D0FFF7DDFF012100E0002108482840084A1568084B2B4076
:40134000184310601368012901D1FFF7BFFF200000F00BF970BDC0460404040010020B40FBFBFBFF10B5244B1B685B0715D5234B5B685B070ED5224B596A042001401F4C5E
:4013800062688A4362605A6A82435A629B69002B00D098470420FFF7BFFF174B1B685B0518D5164B5B685B0510D5154B596A8022D2001140114842688A434260596A114AC6
:4013C0000A405A62DB69002B00D098478020C000FFF7A2FF084B1B685B030CD5074B5B685B0304D5064B1B6A002B00D098478020C002FFF791FF10BD10020B40E8000020A7
:4014000098010020FFFBFFFF04490A68D2B202239A434000184010430860704700000440024B186840080123184070470400044010B562B60221002000F06AF90122014BF6
:401440001A7010BDC001002010B500F0A9F910BD10B5012000F068FA10BDC04670B50E0015009A009B185C00A4B240220100022000F00CFA04E00120FFF7D0FC013CA4B2E9
:40148000022000F0DFF9002801D1002CF3D1022000F0D8F9002802D02E80002000E0102070BDC046F0B583B001900F0016009A009B185C00A4B2402900D94027224B1B7834
:4014C000002B06D118E00120FFF7A8FC013DADB200E0250000F0A2F9002801D1002DF2D100F09CF9002817D000F09EF9FFF7B0FF0022154B1A700FE000F096F900280BD0E3
:4015000000F08CF9002807D0FFF7A2FF04E00120FFF784FC013CA4B2012000F093F9012801D0002CF3D1012000F08CF9012806D13A00019900F010FA3080002002E00023D2
:401540003380102003B0F0BDC0010020000000000230800803D00138FDD1C046C046C0467047EFF3108072B6704780F31088704710B50122244B1A60244A136820218B430E
:4015800013600A22224B1A60224C234B23602368224A1343236023680422934323600220FFF7D2FC2368082293432360FFF7C2FB002800D002201A4B18601A4A1A4B1A608B
:4015C00007221A4B1A6003211E20FFF7F5FB18491E20FFF7DFFB03211F20FFF7EDFB15491F20FFF7D7FB03210020FFF7E5FB12490020FFF7CFFB03210520FFF7DDFB0F49C2
:401600000520FFF7C7FB10BD74022C4048002C4030032C4000202C40010000040C0000B824002C401A00050030202C4028202C40CD1E00004D1F00000D1F0000352200007D
:4016400010B50C00002304E00121234AD1540133DBB2002BF8D0214B18700023204A1370204A1370204A1370204A1370204A1370204A1370204A13701E20FFF765FB0020E4
:40168000FFF762FB1F20FFF75FFB002C02D0012C06D00BE0194A136801218B4313600AE0164A116801230B43136004E0134A116801230B43136011490B68042293430B60A0
:4016C00000210F4B196001310E4B19607F310E4B19600E4B1A6010BD68020020DC010020E2010020E0010020E1010020DD010020C8010020DF0100205802002024002C4052
:40170000A4002C40A0002C4020002C4048002C4070B504000D00074B1B78002B04D1FFF727FF0122034B1A7029002000FFF788FF70BDC046C1010020002304E001210E4ABF
:40174000D1540133DBB2002BF8D000230B4A13700B4A13700B4A13700B4A13700B4A13700B4A13700B4A137001220B4B1A607F320A4B1A607047C04668020020E2010020C8
:40178000E0010020E1010020DD010020C8010020DF01002058020020A0002C4020002C4010B5FFF7DEFE144A136880218B431360124A13687C398B431360114A13685B00DD
:4017C0005B081360FFF7D1FE1E20FFF7C7FA1F20FFF7C4FA0020FFF7C1FA0023094A1370094A1370094A1370094A1370094A1370094A137010BDC04620002C4048002C405B
:4018000000202C40E0010020E1010020DD010020C8010020DF010020C1010020014B1878C0B27047E1010020054B1B78002B05D0034B1878C0B200221A7000E000207047B3
:40184000E0010020430018188300024AD3185878C0B27047EC010020431EDBB2072B10D88301094A985880B20002F02212011040054A944663445B68184380B2023880B230
:4018800000E000207047C046F0FF2B40F0B5431EDBB2072B41D8060044002418A3001F4CE318DC8880239B001B1B9A4209D9420012189300194AD318DA8880239B009A1A6D
:4018C00092B2130A45002D18AC00144D2C19E4781C438301124D5C51D4B2AC4663445C60002909D10BE0CD5CB4010E4FBC466444256201339BB200E000239A42F3D84200BE
:4019000012189300054AD31800225A705B79DBB28001034A944660448360F0BDEC010020F0FF2B40C0012C40431EDBB2072B0DD8420012189300064AD31800225A705B79F4
:40194000DBB28001034A9446604483607047C046EC010020F0FF2B4070B505000E00140000291BD000281BD008281BD8FFF774FFA04203D22800FFF76FFF0400002307E037
:40198000AA010A498C466244126AF25401339BB2A342F5D32800FFF7C7FF04E0002402E0002400E00024200070BDC046C0012C4010B51F4B1B781F4A1188CB189BB21380C4
:4019C00000210EE01C4B5A681278D2B28C001B4822505A6801325A6001311A88013A92B21A80154B1B889BB2002B01D00729E9D90F4B1B78082B01D000290DD0104A10788D
:401A000080235B424340DBB213700F220D4B1A700D3A0D4B1A7004E002230A4A13700A4A1370C9B2094B1970014B197010BDC046580200205E020020D001002000002C4089
:401A4000DE010020C9010020E2010020590200200222074B1A707E32064B1A70713A064B1A700023054A1370054A137001207047E2010020DE010020C901002058020020E9
:401A80005902002010B5FFF793FF10BD30B5194B1B680F2119400239174A1088FF230B40C3189BB2138000200FE0144B5C688500134AAA58D2B222705A6801325A600130D4
:401AC00001391A88013A92B21A800C4B1B889BB2002B01D00029E8D1C9B20A4B19700A4A117880235B424B40DBB213700B22074B1A7030BDA4002C405E020020D001002044
:401B000000002C4059020020DE010020C90100200623064A1370064A13708022054B1A700022054B1A7001207047C046E2010020C9010020DE01002059020020064B9B68F5
:401B4000002B08D0044B9A6810709A6803490988518000229A607047D00100205E02002010B5144B1A68FF210A401A601B68DAB21B0602D5104B1A701BE00220FFF7DEFF37
:401B80000E4B1B6860221340202B06D0402B07D0002B08D100F006FE06E000F0B1FF03E000F08AFF00E00020002802D10322024B1A7010BDA0002C40C901002000002C4011
:401BC00010B5084B1B78084A1188CB189BB213800022064B1A700120FFF7B0FF0322044B1A7010BD580200205E020020E2010020C901002010B50B4B1B78DBB2042B06D0D7
:401C0000062B07D0022B0BD1FFF7DAFF08E0FFF73DFF05E00320FFF791FF0322024B1A7010BDC046E2010020C901002010B50022044B1A700120FFF781FF0322024B1A700D
:401C400010BDC046E2010020C901002010B50C4B1B78002B09D00A4A117880235B420B43DBB208490B60002313700022064B1A700120FFF763FF0322044B1A7010BDC04650
:401C8000C801002020002C40E2010020C901002010B5094B1B78DBB2042B06D0062B07D0022B07D1FFF7EEFE04E0FFF7BFFF01E0FFF7CCFF10BDC046E201002010B5264B4F
:401CC0001B68DA0643D51A060CD50F221340012B14D1FFF745FF214B1B785BB2002B0FDB012310E05A0603D5FFF7D2FF01230AE09B0607D5FFF77EFF012304E0002302E05A
:401D0000002300E00023002B21D0134B1B681B061DD4134B1B78134A12781343124A13601268934213D10D4B1B78DBB20A4A1268120607D4094B1B78DBB2074A1360136852
:401D40000F221340054A1278D2B29342EBD10422064B1A6010BDC046A0002C40C9010020DE01002059020020A4002C4020202C400022064B1A80064B9B68002B05D0044A52
:401D8000916800230B709268538070475E020020D001002010B5114B1B889BB2002B02D1FFF756FE17E002220D4B1A7000220D4B1A70FFF7DDFF0C4AD3691B029BB2926974
:401DC00013439BB2054A128892B2934201D2034A1380FFF7EDFD012010BDC046D0010020E2010020DE01002000002C4010B504220C4B1A707C320C4B1A70FFF7B9FF0B4AFA
:401E0000D3691B029BB2926913439BB2084A128892B2934201D2064A13800B22054B1A70012010BDE2010020DE01002000002C40D0010020C901002001220A4B1A600A4B1E
:401E40009B6C0A4B1A7B03231340012B06D0074AD17B80235B424B40DBB2D3730122034B5A7370472C002C40F0FF2B40EC01002002220B4B1A6088230A4AD3580A4B1A7EBC
:401E800003231340012B06D0074AD17E80235B424B40DBB2D3760122034B5A767047C0462C002C40F0FF2B40EC0100200122014B1A60704720202C4010B50222024B1A606D
:401EC000FFF73AFC10BDC04620202C4070B50D4B1D682B0601D5002398470F2422002A40EC08FF235B011C401443002507E0E30703D5AB00044A9B58984764080135002CE1
:401F0000F5D170BD34202C405830000070B50D4B1D682B0601D5002398470F2422002A40EC08FF235B011C401443002507E0E30703D5AB00044A9B58984764080135002C10
:401F4000F5D170BD38202C405830000070B50D4B1D682B0601D5002398470F2422002A40EC08FF235B011C401443002507E0E30703D5AB00044A9B58984764080135002CCC
:401F8000F5D170BD3C202C405830000010B50C4B18780138C0B200F09DF90A4B1B69FF221A40931CDB00C0184168074B9B5CDB00CB185B68596A0B78044A1380516010BD33
:401FC000E101002000002C40CC010020D001002010B50E4B18780138C0B200F07BF90C4B1B69FF221A40931CDB00C0184168094B9B5CDB00CB185B68DB695A7812021978F0
:402000000A4305490A8002334B6010BDE101002000002C40CC010020D001002070B500221C4B1A801C4B18780138C0B200F052F91A4BD968CCB21B69DDB2FF221A40931CFC
:40204000DB00C0184068002D23D1154B9B5CDB00C3185B68013CE4B2022C1AD8FF221140104A94466144C90059180C4B9B68D8B20A7890420DD84968FF2213405A00D31815
:402080009A008B18034A59685160198811809B68936070BDD0010020E101002000002C40CC010020FFFFFF1F10B55D4B1A69D1B21B681B0651D55A4B5B68022B2FD002D8BC
:4020C000012B22D090E0032B3AD0062B00D08BE0534BDB68212B0AD1FFF758FF514B1B889BB2002B00D181E0FFF754FE97E04C4BDB68222B7CD1FFF76BFF4A4B1B889BB258
:40210000002B77D0FFF746FE89E0FFF787FF454B1B889BB2002B6FD0FFF73CFE7FE000296CD13F4B9B68002B6AD13E4901330B80FE331A403C4BD2184A60FFF72BFE6EE0E3
:4021400000295FD1374901230B80FE331A40374BD2184A60FFF71EFE61E0314B5B680A2B0DD00B2B30D0092B4ED1FFF757FF2D4B1B889BB2002B49D0FFF738FE4FE000298D
:4021800046D1274B9B68002B44D1FF331A40244BDB68DBB224498B54895CC9B2244B9B5CDBB2994203D20021214B995409E0204B9B5CDBB2012B04D91B4B9B5CDBB21C498F
:4021C0008B54FFF7A5FC2AE0002925D1144B9B68012B23D8FF231A40114B9B68DBB213498B54FFF795FC1AE0002018E0002016E0002014E0002012E0002010E000200EE021
:4022000000200CE000200AE0002008E0002006E0002004E0002002E0002000E0002010BD00002C40D001002060020020680200206402002010B500F05BFC10BD10B50123D6
:4022400038E09A010C201E4950505900C9188A001C498A185279002A16D05900C9188A0018498A18127952B2002A06DA9A0116498C4662440C2191600CE09A0112498C462E
:4022800062440821916005E09A010F498C466244802191605900C9188A000A498A18D18889B29801094C0419A160D28892B2074942500133082BC4D9FF22054B1A6010BDE7
:4022C000C0012C40EC010020F0FF2B40D0112C4028002C40074B1B78DB00074AD3185B681A7C824204D9C00010301818406800E000207047DC010020F8300000F0B557467D
:402300004E464546E0B43F4B1B78002B75D03D4B18780138C0B2FFF7DDFF047AC3683A4A1078C0B2002266E01978884261D13749095CC9B25D78A9425BD199787F25294042
:40234000DD7803262E40B446314DA8464E007718BD004544AA460027EF709F782F71DF78B9467618B70046464D46BD559E8855462E8102255D57002D0EDA6546012D01D1E4
:40238000072700E00D274E007618B500204E75196F7101266E700DE06546012D01D1052700E009274E007618B500194E75196F7100266E708D01174EB146A94401264F4698
:4023C000BE604E0071188E00114989190E89360AB046104E4746AF510E89F6B24F467E60CE88B6B20C4FEF19BE60C98889B20A4EA95108330132A24296D31CBC904699468F
:40240000A246F0BDE1010020DD010020CC010020EC010020F0FF2B40D0112C40034B1B78DB00034AD31858687047C046DC010020F830000010B5084B18780138C0B2FFF787
:4024400049FF002806D043681B790233DB00C018406800E0002010BDE1010020F0B557464E464546E0B4002312E06E4E5900CC18A20000249455B2189470D47000251481FA
:4024800095725570C9188A00B21855710133DBB2082BEAD9002808D10AE000226249CA546249CA540133DBB200E00023002BF4D05F4B1B78002B00D1AFE05D4B1878013813
:4024C000C0B2FFF707FF82464368DB795B0606D5584A117801230B43DBB2137004E0554A137801218B43137053461E7A012465E05346D96800235DE08A787F252A40944282
:4025000055D1270065002D19AA00464DAA18128992B28D88AA4208D262009446A4446246920040488446624415810A783E4DAA5CD2B24D78AA423AD18A789146394A944675
:402540007A00D0198500654448462871C878D21995006246A854CA7803252A4002254D57002D12DA012A02D10632914601E00D2291462C4A94467A00D01985006544484624
:4025800068712A000125557011E0012A02D10432914601E009229146224A94467A00D01985006544484668712A000025557008310133DBB2B3429FD30134E4B2082C97D92C
:4025C0005346D86800220CE083787F210B4004785900CB189900134B59188C7208300132D2B2B242F0D3FFF725FF134B1860002201230EE00B4D5900C81884002C19E2806A
:4026000021898A1891B201220A4089188AB20133DBB2082BEED9FFF711FE1CBC90469946A246F0BDEC010020CC0100205C020020E1010020DF010020E801002010B5174B35
:402640001B697F2213405A1E072A24D85900C9188A0013498A18907801210143C9B291700021D170507802210143C9B25170127952B2002A06DA9B010A4A944663448D220B
:402680009A6005E09B01074A9446634489229A60FFF73EFA00E0002010BDC04600002C40EC010020F0FF2B4010B5274B1B697F2213405A1E072A45D85900C9188A002349AF
:4026C0008A1891780120814391700021D1709901812464421E480C505178022081435170127952B2002A15DA5900C9188A0017498A185278012A06D19B01154A944663441A
:402700000C229A601BE09B01114A944663440D229A6014E05900C9188A000C498A185278012A06D19B010A4A9446634408229A6005E09B01064A9446634409229A60FFF758
:40274000E7F900E0002010BD00002C40EC010020F0FF2B4070B50F4B1C69E5B20E4B18780138C0B2FFF7B6FD43681B799D4201D9012D0CD8FF2323400849CA5CD2B2084827
:40278000C254044A9268D2B2CA54012000E0002070BDC04600002C40E1010020CC0100205C02002010B5B34B1B680021B24A11801A0600D4A2E0AF4A5268062A0AD002D8EB
:4027C000002A5FD038E1082A00D184E00A2A00D189E031E1A74BDB68012B09D1FFF71EFE4268A54B5A6012221A80FFF7D3FA40E1A04BDB68022B14D19E4B9868C0B2FFF79C
:4028000069FD002800D119E143689B4A53605368DB781B02516889780B431380FFF7BAFA27E1944BDB68032B05D028E0117852180133DBB201E00023904A8E498968994222
:4028400002D911780029F1D18A4B9B68EE2B00D18B4A884B9B68002B06D0864B9968894B1B7C994200D1884A1378002B00D1E7E0137881490B804A60FFF78CFAF9E000F0C3
:402880003FF9F6E00322134017D0022B00D0D9E079490B80774B1B697C3213405A00D3189A007A4B9A189278D2B2794B1A7000225A704B60FFF76EFADBE06F4902230B8017
:4028C000744B1A78D2B2724B1A7000225A704B60FFF760FACDE0684B01221A806E4A5A60FFF758FAC5E0644A01231380614B19696A4BCB185360FFF74DFABAE05D4A526843
:402900000B2A00D9A0E0920065498A589746594B9B68DBB2634A1370FFF7FAF8A9E0554B9C68002C03D0601EC0B2FFF7D3FC002C01D0002802D1002C00D087E0564B1B784E
:40294000DBB29C4208D0E4B2534B1C700122564B1A700120FFF782FDFFF7DAF889E0FFF7F9FE002874D0434B19691B69DBB24F4A13704F4B5A5CD2B2484B5B5CDBB29A4222
:4029800004D00122484B1A70FFF7B8FCFFF7C0F86FE003221340012B16D0002B08D0022B58D1344B9B68002B56D1FFF77DFE60E0304B9B68012B51D1364A137802218B432C
:4029C0001370FFF7A5F854E02A4B1B69002B47D1284B98681A6937498B5C83438B54FFF797F846E003221340012B17D0002B08D0022B37D11F4B9B68002B35D1FFF71EFE31
:402A000037E01C4B9B68012B30D1224A117802230B43DBB21370FFF77BF82AE0154B1B69002B25D1134B98681A6922498B5C83438B54FFF76DF81CE000201AE0002018E097
:402A4000002016E0002014E0002012E0002010E000200EE000200CE000200AE0002008E0002006E0002004E0002002E0002000E0002010BD00002C40D0010020C83100008F
:402A8000E430000048320000BC310000EC010020C4010020DF010020E1010020CC0100208C300000C8010020E0010020DD0100205C020020E401002010B50A4B1B681B06D5
:402AC0000BD5084B5B68012B09D1074B074A5A6012781A80FFF75EF902E0002000E0002010BDC04600002C40D0010020BC300000024A10680123184010607047100D044026
:402B000010B5124B1B6803221340012B02D0022B04D00FE00D4B1B69DBB20CE00B4B1B697F2213405A00D3189A00094B9A18937ADBB200E00023074A1268D35C032B02D1EA
:402B4000FFF7B2FA00E0002010BDC04600002C40EC010020E8010020002243088B4274D303098B425FD3030A8B4244D3030B8B4228D3030C8B420DD3FF22090212BA030C48
:402B80008B4202D31212090265D0030B8B4219D300E0090AC30B8B4201D3CB03C01A5241830B8B4201D38B03C01A5241430B8B4201D34B03C01A5241030B8B4201D30B031A
:402BC000C01A5241C30A8B4201D3CB02C01A5241830A8B4201D38B02C01A5241430A8B4201D34B02C01A5241030A8B4201D30B02C01A5241CDD2C3098B4201D3CB01C01A16
:402C0000524183098B4201D38B01C01A524143098B4201D34B01C01A524103098B4201D30B01C01A5241C3088B4201D3CB00C01A524183088B4201D38B00C01A52414308FC
:402C40008B4201D34B00C01A5241411A00D20146524110467047FFE701B5002000F006F802BDC0460029F7D076E770477047C046014B18687047C046500100200E4B70B53F
:402C800000251E000D4CE41AA410A54204D0AB00F35898470135F8E700F0E0FA084B00251E00084CE41AA410A54204D0AB00F35898470135F8E770BD6832000068320000B5
:402CC0006832000070320000002310B59A4203D0CC5CC4540133F9E710BD03008218934202D019700133FAE77047000000340000800000000000000000300F40800400355B
:402D00000F40000300400F400008000080340F40282F000080000000850F0402060808020A0D0C0D10021204140D200D240D280D2C012E02320F3A0858045F01001402015F
:402D400004060510070209060C220E201028110113401511160118101D101E201F0827082CA02D903610374A3D083E803F20450A47224C014D884F605501569A65106C2A71
:402D80006D116F407480760186808C028D04C0F7C27CC4DFCAF0CCF0CE70D0E0D230D820001A0418060209080A100B330C010D250E080F081008121214121608180C191C74
:402DC0001A031C031E041F02201A24082C022D282F17300F3410353C370339203A023E105440580459045B045F018104840486088D17900E91029201930C950C9702990A89
:402E00009B049D0EA004A10EA512A705A902AC01AD11AE0AAF02B008B107B308B407B710BA20BE01BF44D409D804D904DB04DF010004044005100608075009020C0A0D4045
:402E40000E04110213401480162218041A841B101C401D021F122108234126A028802A212B1A2F02302A335036A039803A023B403F60582159085A806301661067226C017B
:402E8000800184208602880189088D108E208F019404974099089A1B9B40A02AA101A308A50AA680A710AB08AF20C0F4C2F8C4B9CA1FCC3FCE39D60FD878E2906801DA409B
:402EC000A401078053045702660867028704A401C020D420D6A0D880E610830188018E0897029E08A401AB02AF80E620E840EA202D088908CA01E2011201130101000F40D1
:402F000011340F4032350F4048360F4046370F4002400F4001410F400C420F400B430F4004470F4002600F4003003C007904060002560D0915606A00400A0010100160002D
:402F4000400400000004000040040000000400000000400440070038000070000F7F0000002028000000000046053000020EFBCD3DFFFFFF2200F0080400000000000224E7
:402F800004040404000000010000C00040011011C001001140014001000000000000000000000000000000005A0500009A040000AA040000BA040000CA040000DA04000075
:402FC000EA0400000A050000FA0400001A0500002A0500003A0500004A050000540700007407000084090000C00700006E080000840900007A080000A6080000C0070000D6
:40300000C808000048090000A011111000320101030405060708090A0B0C0E0F101112131415161718191B1C1D1E1F2021222325262728292A2B2E2F303132333435000079
:40304000EEDBC9B9AA9B8E82766B60564D443B332C241D17100A0400AD1E0000B91E0000BD1C00000000000000000000391E0000711E000000000000000000000000000017
:40308000000000000000000000000000482A000092290000482A0000E4290000482A00000E290000482A0000482A0000482A00001E290000482A00005E29000028000000FD
:4030C00000010400010000000000000000014359555342000000303030303100000000000000000012034D005300460054003100300030000100000001000000003100003F
:40310000010000004832000000000000000000000100000018310000010000001C320000020000003C310000010000004C310000000000003831000003000000000001031E
:4031400040000300000082034000030001000000543100000000000088310000000000007C31000000000000000000000100000094310000010000002E32000041000000F0
:40318000B4020020F802002041000000700200206C020020240005010900A1000900A1000900150025FF7508954091020900150025FF750895408102C0C000000A03300045
:4031C0003000300031000000040309042C0343007900700072006500730073002000530065006D00690063006F006E0064007500630074006F0072002203500053006F005C
:4032000043003300200042006F006F0074006C006F00610064006500720000000902290001010080190904000002030000020921110100012224000705010340000107052A
:4032400082034000010000001201000200000008B4041DB70130010280014300F8B5C046F8BC08BC9E4670473502000091030000F8B5C046F8BC08BC9E4670470D02000081
:4032800090320000C800002090000000A801000000000000EC2C0000F02C0000010000000000C05D80BB000030000000006CDC02F000000004040400000000000000000028
:4032C0000000000000000000000000000000000000000000000000005A32000000000000000000000000000000000000000000000000000000000000000000000000000042
:40330000000000000000000000000000000000000000000000000000F00000200000000000000000000000000000000000000000000000000000000000000000000000007D
:40334000000000000000000000000000000000000000000000000000000000000000000000000000000000000000000000000000000000000000000000000000000000004D
:40338000000000000000000000000000000000000000000000000000000000000000000000000000000000000000000000000000000000000000000000000000000000000D
:4033C00000000000000000000000000000000000000000000000000000000000000000000000000000000000000000000000000000000000000000000000000000000000CD
:40340000000000000000000000000000000000000000000000000000000000000000000000000000000000000000000000000000000000000000000000000000000000008C
:404000000080002011400000E5BF0000E5BF000010B5024B83F3088808F006F80080002070B51222354B1A600AF0A8FF34480BF0E3FF30200AF0DEFD0AF050FD314A324BE8
:404040001A60324C8025ED052560A022D200304B1A60304B304A1A603049314A1160314A1A6080218900304A1160304A1A603049304A1160304A1A60BC2189012F4A116028
:404080002F4A1A60F82149012E4A11602E4A1A60882189012D4A11602D4A1A60E82149012C4A11602C4A1A60822212062B4B1A608022D2022A4B1A6041222A4B1A607F3285
:4040C000294B1A60803A294B1A600632284B1A60013A284B1A60023A274B1A600132274B1A60023A264B1A60264908200AF09AFC08200AF071FC256070BDC0463000104081
:40410000001BB7000600008004010B400C020B40040301400000014041FF008000FF9E2400050140C0FF00800003014040FF008000DF01001803014046FF00801403014093
:4041400045FF00800C03014043FF00801003014044FF00800803014042FF008008010B4000010B405801014054010140500101402C01014028010140140101400C01014067
:404180000801014069F0000070B572B60122654B1A7000240FE064486200131959000B00411889881A5AC31858880004104307F0DBFE0134E4B2032CEDD9002414E05A4EC1
:4041C000A20011194B00F318198B588B000408439D8BD98B0904294313195A00B218128C07F0C8FE0134E4B2012CE8D94E492C314E4807F09FFEE02212014D4B1A800122D6
:404200004C4B1A704C4A4D4B1A604D4A4D4B1A604D4A4E4B1A604E4A4E4B1A60E022D2034D4B1A60EE2212044C4B1A6099224C4B1A6099231B044B4A1360802109054A4AA5
:4042400011604A4A4A490A6080208004494908609620C0034849086048490A6080210903474A11604749484A1160484A13604849484A1160484A1360484A13600722484B10
:404280001A60013A474B1A6047490B783632934314221343DBB20B70444A117816230B43DBB21370CF22424B1A60424A424B1A600322424B1A600223414A13601D21414A07
:4042C00011604149414A11607721414A11604149414A1160414A13604149424A1160424A1360202241490A6041484249086042490A60C02080024149086041490A603221E7
:40430000404A11604049414A1160414A13603121404A1160404A1360FFF782FE07F03EFE70BDC0461C700F4090B2010090B7010000600F4002600F40333300330000024038
:404340000333000000010240030333000002024099EE00000003024000050240000602400007024000500F4008500F400400990010500F4014500F4018500F4020500F40E8
:4043800024500F400000645C28500F4040500F400000879048500F4050500F4070500F402000104000800F4001700F4000700F4000000440B60DD80008000440000D04409E
:4043C0000C0D0440000104400419180008010440000204408E611B000802044000030440B16D0300080304401803044000040440B6130300080404400005044008050440E7
:404400001805044000060440884102000806044000070440080704401807044010B5064C2378002B07D1054B002B02D0044800E000BF0123237010BD902200200000000070
:404440001C610100084B10B5002B03D00749084800E000BF07480368002B00D110BD064B002BFBD09847F9E700000000942200201C610100C800002000000000F8B50400F3
:404480000F00160032220021382008F0A5FAC5B2002D04D13221200008F02CFBC5B2002D05D132220121382008F0A6FBC5B2002408E0002D04D139193222002008F03EFB0B
:4044C0000134E4B2731E9C42F3DB002D05D1611E79183222012008F031FB322008F0DEFA08F06AFB64200AF07BFB2800F8BDC04610B5002008F036F90A200AF0D7FA012090
:4045000008F030F9FA2040000AF0D0FA10BDC04630B503785AB2002A1BDA82780F24A2430C01A24215D11B02F0221201134044781B19084D4C002C19638083781B021A4035
:40454000C378D2180431490069188A800122024B1A7030BD58330020AC22002010B584B0092201A90020FFF789FF002821D101AB1B78002B1DD101AB9B780F4A5370013B98
:40458000DBB2042B10D914E06300E31858000330C0B2062201A9FFF771FF210001A8FFF7B7FF0134E4B200E00024034B5B789C42EAD304B010BDC046AC22002010B50BF099
:4045C00035FB10BD10B50BF083FB0C4C20780BF08FFBA0780BF092FB03F094FA03F092FA4388632B03D903F08DFA3223438003F089FA4088FFF7E2FF10BDC046B2220020C8
:4046000010B5174A137959424B41DBB213715279002A0AD0002B04D0114B18780BF068FB07E000200BF064FB03E00D4B18780BF05FFB0B4B9B79002B0CD0094B1B79002B73
:4046400004D0074B98780BF059FB07E000200BF055FB03E0024B98780BF050FB10BDC046B222002010B504F00FFB002309E09A000649525A002A03D09900013A03480A523A
:404680000133034A12789342F1DB10BD78330020B9220020024B80001A185288C25270477833002010B58200044BD35A002B03D1FFF7F0FF012000E0002010BD78330020EC
:4046C00010B5094B1B78082B08D8084A99005418608088525A1C04490A7003E004480FF0BDFBFF23180010BDB9220020783300202861010010B50BF047FA03480BF078FAB7
:4047000007F072FE10BDC04665460000F0B585B00190029103921F000AAB1E880BAB1D880A2138000BF0F6FF04050A2138000CF077F809040C4327000A2130000BF0EAFF40
:40474000000307430A2130000CF06AF809023E000E430A2128000BF0DDFF000106430A2128000CF05DF80E43FA218900019C20000BF0D0FF0503FA21890020000CF050F8F5
:404780000F00642138000BF0C5FF00022C000443642138000CF044F80F000A2138000BF0B9FF000104430A2138000CF039F80C43134B1C400A21029D28000BF0ABFF000760
:4047C00004430A2128000CF02BF809060C430D4B1C4025000A21039F38000BF09BFF04052C430A2138000CF01BF809042143300007F07CFD0122044B5A7005B0F0BDC04690
:40480000FFFFFFE0FFFFC0FFB9220020F0B54F464646C0B483B004000EF034FD85B2601D0EF030FD86B2200008300EF02BFD87B220000B300EF026FD83B2984620000E3088
:404840000EF020FD83B29946200011300EF01AFD80B201904B46009343463A0031002800FFF754FF03B00CBC90469946F0BDC04601E0C0461800431E0028FAD17047C04654
:4048800010B50400002008F01FFB200008F05AFB01200AF0A5F910BD10B50400012008F013FB200008F04EFB0520FFF7E1FF10BDF8B507000D0016001C002A20FFF7E0FFDF
:4048C000380AFFF7E9FFF8B2FFF7E6FF300AFFF7E3FFF0B2FFF7E0FF2B20FFF7D1FF280AFFF7DAFFE8B2FFF7D7FFA008C0B2FFF7D3FFE0B2FFF7D0FF2C20FFF7C1FFF8BD22
:4049000010B5012008F06EFB14200AF0CFF8002008F068FB14200AF0C9F8012008F062FB14200AF0C3F810BD10B50400000AFFF7B3FFE0B2FFF7B0FF10BDC046F8B516005D
:404940001F0006AB1D884023FF33984228D8EF2926D88318013B4022FF32934203DDA0267600361AB6B2CB19013BEF2B02DDF0277F1ABFB27B18013B9BB23218013A92B20B
:40498000FFF796FF0AE02800FFF7CEFF013CA4B200E03400002CF6D1013FBFB2002FF8D1F8BDC04600B583B0FFF7AAFF78200AF07DF81120FFF764FF78200AF077F836202A
:4049C000FFF75EFF0020FFF75BFF3A20FFF758FF5520FFF761FFB220FFF752FF0C20FFF75BFF0C20FFF758FF0020FFF755FF3320FFF752FF3320FFF74FFFB720FFF740FFCD
:404A00003520FFF749FFBB20FFF73AFF3920FFF743FFC020FFF734FF2C20FFF73DFFC220FFF72EFF0120FFF737FFC320FFF728FF1020FFF731FFC420FFF722FF2020FFF7E8
:404A40002BFFC620FFF71CFF0F20FFF725FFD020FFF716FFA420FFF71FFFA120FFF71CFFD620FFF70DFFA120FFF716FFE020FFF707FF0D20FFF710FF0F20FFF70DFF1120D3
:404A8000FFF70AFF0720FFF707FF0520FFF704FF0220FFF701FF2820FFF7FEFE3320FFF7FBFE3F20FFF7F8FE2620FFF7F5FE1420FFF7F2FE1520FFF7EFFE2420FFF7ECFE52
:404AC0002820FFF7E9FEE120FFF7DAFE0D20FFF7E3FE0E20FFF7E0FE1120FFF7DDFE0720FFF7DAFE0520FFF7D7FE0220FFF7D4FE2820FFF7D1FE2220FFF7CEFE3F20FFF785
:404B0000CBFE2A20FFF7C8FE1820FFF7C5FE1920FFF7C2FE2620FFF7BFFE2820FFF7BCFE0A4B1B880093F023A022520000210020FFF704FF0A2009F0B9FF2920FFF7A0FE31
:404B40000A2009F0B3FF03B000BDC046A233002070B51600002405E04D1C087808F0DCF801342900B442F7DB300070BD10B504F077F800230FE09A000949525A002A05D1A7
:404B80000A00990050184088885203E09900013A03480A520133034A12789342EBDB10BDA4330020BB2200208000044BC35A002B01D1012000E000207047C046A4330020C5
:404BC000024B80001A185288C2527047A4330020034B80000022C252181841807047C046A433002010B5094B1B78082B08D8084A99005418608088525A1C04490A7003E081
:404C000004480FF02BF9FF23180010BDBB220020A43300207061010010B50AF04DF900240AE020000AF060F9002804D1044920000AF052F902E00134042CF2D910BDC0461E
:404C40006D4B000030B583B00422164901A80EF055FB00200BF076F8042101A809F006FD09F0D0FCC307FBD50A2009F0B9FF01200BF068F8002506E06C1CE4B209F0DAFCE7
:404C800001AB5855250009F0DBFC0028F4D101AA5078000493781B021843D378184303B030BDC046D461010030B583B00822002168460EF02CFB4B236A4613705A33537016
:404CC0009370D370137100200BF03CF80521684609F0CCFC09F096FCC307FBD509F0BAFC0821684609F0C2FC09F08CFCC307FBD50A2009F075FF01200BF024F8002407E0AF
:404D0000651CEDB209F096FC044B1C1960702C0009F096FC0028F3D103B030BDCC33002010B5012009F0C2FE00200BF00BF8062009F074FC09F066FCC307FBD50A2009F0AE
:404D40004FFF01200AF0FEFF09F084FC012009F0ADFE10BD10B5012009F0A8FE00200AF0F1FF042009F05AFC09F04CFCC307FBD50A2009F035FF01200AF0E4FF09F06AFC31
:404D8000012009F093FE10BD30B583B00400002201AB1A8000200AF0D5FF012C1FD1052009F03CFCA52009F039FC09F02BFCC307FBD50A2009F014FF002506E06C1CE4B28A
:404DC00009F038FC01AB5855250009F039FC0028F4D101AB59782423264AD15440E0022C1FD1352009F01AFCA52009F017FC09F009FCC307FBD50A2009F0F2FE002506E06B
:404E00006C1CE4B209F016FC01AB5855250009F017FC0028F4D101AB59782523154AD1541EE0152009F0FAFBA52009F0F7FB09F0E9FBC307FBD50A2009F0D2FE002506E043
:404E40006C1CE4B209F0F6FB01AB5855250009F0F7FB0028F4D101AB59782623054AD15401200AF06FFF0A2009F0BAFE01AB587803B030BDCC33002010B500200AF062FFBB
:404E8000052009F0CBFB09F0BDFBC307FBD50A2009F0A6FE09F0DEFBA52009F0BFFB09F0B1FBC307FBD509F0C5FB2423064AD054C307F1D40A2009F093FE01200AF042FF60
:404EC000012009F0F3FD10BDCC33002010B5012127233B4AD154642009F0E8FDFFF7B2FEFF23184011380F2841D88000354B1B589F46334B0A221A708022D200DA613CE06F
:404F00002F4B09221A70F832FF32DA6135E02C4B08221A70F832DA612FE0294B07221A707932DA6129E0264B06221A703A32DA6123E0234B05221A701B32DA611DE0204B06
:404F400004221A700C32DA6117E01D4B03221A700532DA6111E01A4B02221A700232DA610BE0174B01221A700132DA6105E000212723134AD154002020E0114C80235B0060
:404F8000638180235B012361E3691A0162611B041A0AE26080225202A2619B0A2362FFF783FE0120FFF7F0FE0220FFF7EDFE0320FFF7EAFE00222723E254012010BDC046A2
:404FC000CC3300209461010010B5040002E0012009F06CFD27231A4AD35C012BF7D0130001212722995418694443FFF799FE00200AF0A8FE202009F011FB200CC0B209F002
:405000000DFB200AC0B209F009FBE0B209F006FB09F0F8FAC307FBD50A2009F0E1FD01200AF090FEC82009F041FDFFF725FF012009F03CFD00212723014AD15410BDC046DA
:40504000CC33002070B504000D0002E0012009F02DFD27231B4AD35C012BF7D0160001222723F254FFF708FFFFF75AFE00200AF069FE022009F0D2FA3378082B02D9280E79
:4050800009F0CCFA280CC0B209F0C8FA280AC0B209F0C4FAE8B209F0C1FA200009F0BEFA09F0B0FAC307FBD50A2009F099FD01200AF048FEFFF7E0FE00212723014AD15450
:4050C00070BDC046CC330020F8B505000C00160002E0012009F0EAFC2723234AD35C012BF7D0170001222723FA5400200AF02AFE0B2009F093FA3B78082B02D9200E09F022
:405100008DFA200CC0B209F089FA200AC0B209F085FAE0B209F082FA002009F07FFA09F071FAC307FBD50A2009F05AFD09F092FA00240CE0A52009F071FA09F063FAC307CB
:40514000FBD56F1C09F076FA287001343D00B442F0D30A2009F044FD01200AF0F3FD00212723014AD154F8BDCC33002010B505F0D9FD024B1860024B186010BDC836002085
:40518000C43600204268002A02D1416004E01A009368002BFBD1916008607047F8B506009446134B1B88132B05D9190011480EF0D9FD00201BE0581C0D4A1080DF00F81838
:4051C000840020000C4D641946516246E26000226260A260103040190EF096FE002E05D021003000FFF7CEFF200000E02000F8BDBC220020D8610100F4330020436800206D
:4052000001E001309B68002BFBD170474068002303E08B4203D0013380680028F9D1704710B5044B1868002802D0C3680121984710BDC046C836002010B5174B1868C3681B
:40524000164C2178984701002378002B02D00022124B1A70124B994203D101220F4B1A701049104B994216D001220C4B1A7080231B06994207D1084B1B681B68002B0AD051
:40528000054A136007E0044B1868FFF7BFFF002801D0014B186010BDC8360020CC000020020000800100008070B50D00446807E02000103029000EF01DFE002804D0A468BC
:4052C000002CF5D1002000E0200070BD044B1B68044A1068181A43425841C0B27047C046C8360020C436002010B50121002007F057FF10BD0048704714370020F8B50600E2
:405300000C000C4B1D886A18FA235B009A4203DD09480EF0A3FD0BE0084F78190A0031000DF0ECFF2C19A4B2024B1C8000233B55F8BDC046BE220020F0610100143700201B
:4053400010B507F06FFF002805D007F065FF002801D008F09DF807F05FFF00280ED008F035F900280AD0064808F04CF9054B1880002803D001000248FFF7C0FF10BDC04661
:40538000D0360020CC36002070B5002828D009F02BFD060009F030FD040009F08DFD002512E0134B1B78002B14D009F025FD201A01D501356DB233006B43C01873009842EF
:4053C0000ADC09F019FD040008F00EF90028E8D0012002E0002000E00020054B187006E008F002F9002801D0012000E0002070BDCD0000200FB400B593B014AA02CA1192E5
:4054000068460EF073FE68460EF086FD80B2402802D907480EF022FD0120FFF7B5FF0028FAD0684608F07EF813B008BC04B0184718620100436893420BD25A1C42601B01C0
:40544000C91801235B428B604B600023CB60080000E000207047C0460170426083600023C360704770B5050006681DE0202821D006D809280ED30A281CD90D280AD119E000
:405480003A2817D002D82C2804D113E05D2811D07D280FD02038C0B25E2803D92E600220404220E001342C602C68944202D2085D0028DBD1002B03D1013C2C60002012E053
:4054C000049A19002800FFF7B5FF002802D12E60013808E02B6832000421FFF7BDFF2B68013B2B60002070BDF0B583B0050001930668701C286050E0222C13D1019B002B1A
:4055000055D0089A19002800FFF794FF002802D12E6001384CE02B68721C0321FFF79CFF002045E05C2C35D10130824232D928600C5C223CE7B2532F28D8BC001D4F3C591D
:40554000A74601302860002314E02700303FFFB2092F0CD92700413FFFB2052F07D9613CE4B2052C03D92E600220404220E0013028600133032B05DC2868824202D90C5C99
:40558000002CE2D12B68581E286003E02E60022040420DE02B68581C28602868904202D20C5C002CA8D12E600320404200E0002003B0F0BD38620100F0B54F464646C0B43F
:4055C00083B00600884617001C0043689946CBE02C2D00D18DE010D80D2D00D1C1E006D82B00093BDBB2012B00D8BAE0A2E0202D00D1B6E0222D60D09CE05D2D2CD004D806
:405600003A2D72D05B2D05D094E07B2D02D07D2D22D08FE001239C46E144002C00D1A0E00A9A21003000FFF705FF002800D1B5E0B3685A1C04D01B01E318DA680132DA601B
:405640007B2D01D1012300E002230370336843607368013BB36084E0002C00D181E07D2D01D1012000E002207368013B12E01A01A218556801350CD09568013509D1157804
:40568000A84200D08DE001204042B0600131916002E0013B002BEADA5A1C0BD184E01A01A2185168013104D09268013201D1B36057E0013B002BF2DA53E00A9B009323008C
:4056C0003A0041463000FFF70FFF002873DB01239C46E144B3685A1C43D0002C41D01B01E318DA680132DA603BE07368013BB36037E0002C35D0B3685A1C32D01B01E35CF2
:40570000022B2ED0012B2CD07368591E0FE00A01A2181378013BDBB2012B07D85368013304D09368013301D1B1601AE001390029EDDA16E00A9B009323003A004146300076
:40574000FFF790FE002836DB01239C46E144B3685A1C06D0002C04D01B01E318DA680132DA603368013333603168B94204D243465D5C002D00D02BE7002C18D07268013ACE
:4057800008E01301E3185968013102D09B6801330FD0013A002AF4DA48460CE00120404209E00220404206E00220404203E0484601E00320404203B00CBC90469946F0BDDC
:4057C000002303604360013B8360704770B506000D0014000B78032B10D110000EF09CFBAA686B68D21A90420BD1F01821000EF09AFB002807D00120404204E001204042C3
:4058000001E00120404270BD10B5040002F07AF90480002C08D10A4BF0221A8050325A80133AFF3A9A8007E0054BA02252001A80503A5A80C83A9A8000F0A4FB10BDC0463C
:40584000CE00002030B583B004000D0002F05AF90388002B03D1094B1C805D8004E0074BEF21491B19805C80044B1B68180C00041B041B0C184303B030BDC046C022002013
:4058800030B583B004000D0002F03CF90388002B03D1094B9C80DD8004E0074B9D80EF20001BD880044B5B68180C00041B041B0C184303B030BDC046C0220020F0B583B011
:4058C000050008001C0008AB1E881100FFF7BAFF019031002000FFF7B5FF009083B201AA1288191C934200D9111C88B2124C2181191C934200D2111C8AB20F4B59816B465C
:405900005B8801A94C881E1CA34200D9261CB1B2094FBE811E1CA34200D2261CB3B2064CE681FEF7C5FF21000831082228000DF0E5FC280003B0F0BDC0220020F0B54F467A
:4059400080B486B00400039191461D000CAB1E88009513000A00010004A8FFF7AFFF270008E0039C03E03000FEF7DEFF0134AC42F9DD01374F45F4DD06B004BC9146F0BDAE
:4059800000B583B0064A5388013B9BB21288013A92B2009000210020FFF7D0FF03B000BDCE00002010B582B00C00C3884288818800880094FFF7C2FF02B010BD70B584B072
:4059C0001D000C1C814200D9041CA4B20E1C814200D2061CB6B200920B00010002A8FFF76DFF04E02800FEF79FFF0134A4B2B442F8D904B070BDC04670B584B01D00141CDF
:405A00008A4200D90C1CA4B2161C8A4200D20E1CB6B2009603002200010002A8FFF74EFF04E02800FEF780FF0134A4B2B442F8D904B070BDF0B583B004000091170001936D
:405A400008AB1E883300019AFFF7D6FF0134A4B27D1EADB23300009A29002000FFF7AEFF3300019A00993800FFF7C6FF3300019A29002000FFF7A2FF03B0F0BD10B584B095
:405A80000B0C040C89B280B200922200FFF7D2FF04B010BDF0B55F4656464D464446F0B489B005908A4617009B4612AB04CB90461B880393C319013B9BB204930A000091E7
:405AC000010006A8FFF7FAFE0024002399461BE0661C64004346185B002800D10398FEF723FF0135340000E00025BD42F0D352464A44013292B20092049B059906A8FFF71A
:405B0000DDFE01239C46E144D945EDD309B03CBC90469946A246AB46F0BDC046F0B55F4656464D464446F0B48BB0069007910392049314AB04CB93461A785B46187883B2F4
:405B400099465B465B7899B28A46594689784343DC1707252C40E318DB10521A1B041B0C53431E1D0DF0BEF80022FF239B050CF0B5FA0DF085F9041C0AF0C8FF83B29846EC
:405B800018000BF02BFC011C201C0AF045FF002803D14046013083B29846002342460592984628E0079B43449AB206990B004B44013B9BB2009208A8FFF780FE002713E01F
:405BC0005B469D5D00240BE0802323412B4203D10498FEF7A9FE02E00398FEF7A5FE0134072CF1DD01360137059B9F42E8DB434601339BB29846D045D4D30BB03CBC904650
:405C00009946A246AB46F0BDF0B55F4680B4A8B083460391049205932E9F30AA27922F9907A80EF063FA3E7807A80EF075F985B200240EE030006043584480B207AB1B5D87
:405C400001930097059B049A0399FFF767FF0134A4B2AC42EED328B004BC9346F0BDC04670B584B0009001911D0008AB188809AB1E880AAB19880BAB1B780CAC2478012B01
:405C800004D0002B10D0022B06D01DE06B461988091802AB198017E06B465B885143591A091A02AB19800FE06B4658881B88C0185143401A0DF016F80022184B0CF00EFAD4
:405CC0000AF03CFF02AB1880052C10D0062C07D0042C1BD16B469D88AE1902AB5E8015E06B46D888451BAE1B02AB5E800EE06B46D8889B88C018401B0CF0F4FF0022074B5A
:405D00000CF0ECF90AF01AFF02AB5880029B180C00041B041B0C184304B070BD0000E03F10B50400002303804380838006F026FD0123584001231840194B18745B7C002B0C
:405D40001FD101281DD1174B1878FEF739FF164B9B79002B1ED0FEF701FC144B1B78002B18D0134B58889989FFF78AFD6080000CA0800123238000230B4A93710B4A137074
:405D800008E0084B1878FEF70FFF002802D00122054B9A71024B1A7C5A74200010BDC046C022002009390020CE000020AC2200205833002082B0019189B2038899420CD3CA
:405DC000438899420BD801AB5B888288934208D3C288934207D9002006E0002004E0002002E0002000E0012002B0704710B580B2194B588306282DD88000184B1B589F4698
:405E0000154B00229A82DA821A83002007F0F6F820E03222104B9A821CE00F4B0022DA82198317E00C4B0022DA82013A1A8303325A830FE0084B0022DA8219830AE0064B3E
:405E40000022DA82013A1A8305325A8302E0012007F0D4F810BDC046C02200208863010010B5314B5B8B022B08D002D8002B5AD04AE0042B20D0062B55D045E02A4B1B8BF7
:405E8000002B03D10022284B5A833DE02649CA8A501CC882002A04D0FA2189008A4205D032E0FA225200204B9A822DE01E4A0021D182013B138327E01B4B1A8B002A01D1C8
:405EC0005A8321E01849CB8A581CC882642B0ED002D8002B07D017E0C82B0CD0FA2189008B420CD010E032220F4B9A820CE032220D4B9A8208E032220B4B9A8204E00A4B9F
:405F00000021D982013A1A83074B9B8A002B07D0012007F073F8044A938A013B938202E0002007F06BF810BDC02200202923838000230380044A13884380538892889B1ADF
:405F4000013BC3807047C046CE00002030B503AC0025645F05886918018041888A1842808288D3188380C3881B19C38030BDC04610B53220FEF736FE014B187010BDC0462B
:405F80000939002070B51A4C0025258126266681184B1B88013B9BB2E3801E3BA380200001F0C6F90421200001F05AFBA388013B9BB2114A5380114989885B1A9BB213808B
:405FC000218991806189D1800D4CE380A580258166810521200001F043FB0A4B1A686E320949200001F0DEFB04F0F0F870BDC04654390020CE00002094390020D800002086
:406000009C390020F44F0020609B0100F0B587B003900491150005931F4C200001F088F92900200001F01CFB1C4D2A88002601961427009702230021200001F0E1F94034BE
:40604000200001F075F90599200001F009FB2A880196009703230021200001F0D1F9039B002B04D019000C4801F09CFB02E00A4801F088F9049B002B04D01900084801F0BC
:4060800091FB02E0064801F07DF90221024801F019FC07B0F0BDC046DC390020D20000201C3A002070B592B005000E0000281ED002AC200001F03CF90E4B1A88013A92B245
:4060C00001960D2300930C3B0021200001F098F90E21200001F0C4FA2900200001F062FB200001F0C1FB6089013080B200E0002012B070BDD200002010B501F003FD03886C
:40610000002B01D1052000E0042010BDA0239B00C25A044BC35A9A4201D2012000E000207047C04682020000F8B54F464646C0B405000F00C1239B00CC5A002C02D1012357
:40614000984601E000239846244BF85A0138023BF95A0AF069FB844202D10123994601E000239946002613E0C1239B00F85A444334191A4BFB5A9C420FDA711D8901791810
:40618000280001F0ADFB012801D1A0B222E00136A0239B00FC5AA642E6DB4346002B07D1A1239B00F918280001F09AFB01280CD04B46002B0BD1B1239B00F918280001F05B
:4061C0008FFB012805D1063004E0062002E0FF2000E0FF200CBC90469946F8BD8202000010B50A0080300400034901F0DBFA200001F03AFB10BDC04610A0010070B5040098
:406200001500002901D1154A00E0154AB8235B00E252012901D1114A00E0114AD8235B00E252022901D10D4A00E00D4AF8235B00E25220004130FF3001F016FB2000813062
:40624000FF3001F011FB2000C130FF3001F00CFB29002000FFF7C4FF70BDC04620FD0000EF7B0000F0B587B0040004A8FFF75EFE294D2B8819002839A2229200A152013BF8
:40628000264AA35204AB9888A3239B00E05204ABDE8880190CF026FD0022214B0BF01EFF029003910AF04AFC1E4BE0520A3B9C46A44463460193604601F03AF81A4F3A00EB
:4062C0000832A1239B00E2502B8819002839B2229200A152013B154AA3520022144B029803990BF0B9F80AF029FCB3239B00E052731F104AA3520A3AA618300001F018F884
:406300001037B1229200A750019801F0ADFA300001F0AAFA07B0F0BDCE0000208A0200000000E03F8E020000D8000020CA0200000000F03FCE02000010B584B00E4B1B887F
:40634000012901D1283B9BB2002269460A80013B4B80888002AC2000FFF7E8FDE3886A46D38092889B1A012B03DD00216846FFF719FB04B010BDC046CE000020F0B5574685
:406380004E464546E0B486B004000D0091461F000EAB1B789A4604AE3000FFF7C7FDB688FFF7AAFEA0239B00E052002D01D00138E052384BE752290020000DF0A5FD20008C
:4063C000FFF7A4FE010080462800FFF76BFE071E00D137004B46002B45D14BE0751DAD016519280000F0A4FF5346152B06D053466A46D381D189280001F032F9264B1A8817
:40640000434601930B2300930A3B3900280000F0F7FFB301E3187B33FF3301221A70A0239B00E25A8433E35A53439B199BB2194AA25A934222D29D00EB18980010302018B9
:4064400004304D4429680DF05FFDB0014930FF302018043029680DF057FD0F4B1888381887B2013600E00026A0239B00E35A9E42B4DB03E000213800FFF75EFF4346002BB9
:4064800002D02000FFF7EEFE06B01CBC90469946A246F0BD82020000D2000020F0B5474680B486B0050002900C0004AE3000FFF73DFDB688FFF720FE0138A0239B00E0524E
:4064C0002800FEF79BFE3E4BE0522900103120000DF01AFD2000FFF719FE010080462000FFF7E0FD071E00D13700029B5B680393002B11D156E0AB005B1998001030201811
:40650000061D29000298FEF781FE0100103130000DF0FAFC013500E00025294BE35A9D42E9DB002638E0751DAD016519280000F0FFFE0021280001F093F8224B1A8843469F
:4065400001930B2300930A3B3900280000F058FFB301E3187B33FF3301221A70A0239B00E25A8433E35A53439B199BB2144AA25A93421BD2B0014930FF30201804309A00FD
:40658000D31899001031611804310DF0BDFC0D4B18883F18BFB20136A0239B00E35A9E42C1DB03E000213800FFF7C6FE4346002B02D02000FFF756FE06B004BC9046F0BDC5
:4065C00082020000D2000020F0B58BB004000F0008AD2800FFF7AAFCAE8800253EE0C1229200A25A5343EB18234AA25A93423ADA6E1DB601A619214A974218D0BB4201D1E8
:406600003E2200E020229900CB1899000B001033E1180B1D1A4968460DF03CFCA8014930FF302018043069460DF06EFC0CE0A8014930FF30201804309A00D3189A00103231
:40664000A218111D0DF060FC300001F00DF96B1D9B01E3185889013086B20135A0239B00E35A9D42BBDB2000FFF750FD01003000FFF762FE0BB0F0BD82020000FFFF00002F
:40668000D063010030B583B00400150000291AD0012954D1FEF7B2FD2A4B58802A882A4DC1239B00EA5229002000FFF7F7FE27492800FFF789FF1223112200212448FFF709
:4066C000A5FC24483CE06846FFF72AFB6B461B88002B32D01C496846FFF726FD07280DD0FF2815D0062822D11748C1229200835A013B83521549FFF767FF1CE01248C1220D
:406700009200835A013383521049FFF75DFF12E002221149684601F0FDF800280BD1C1239B00094AD35A2B808020000608E0054A5288904204D3074802E0064800E0054878
:4067400003B030BDDC2200205C3A0020FFFF0000D863010001000080DC390020F0B585B0040015001E00002909D0012935D10B9B1988C1239B00274AD15201232EE002AF35
:406780003800FFF7CDFA3B88002B24D0214902A8FFF7CAFCFF2819D102221F4902A801F0B9F8002802D0012808D012E0C1239B00184AD35A0B9A1380184829E0C1239B002E
:4067C000144AD35A0B9A1380154821E00A9B18801EE0002302E0002300E00023002B16D0210010310B4C0023009333002A002000FFF7C4FD0A9B19882000FFF7E5FE1223EA
:40680000112208490848FFF701FC084800E0074805B0F0BD5C3A0020DC3900200300008004000080E0630100D8630100010000800EB4F0B557464E464546E0B489B00400C9
:4068400011AA02CA079202A80DF050FC0721200000F08AFD4D4E3288033A92B2002501950D2300930C3B0021200000F0C9FD0721200000F0F5FE02A9200000F093FF20001C
:4068800000F0F2FF6089013080B20021FFF754FD27004037328801951123994600930F3B0021380000F0ACFD0521380000F0D8FE23007A33012290461A7040373288019535
:4068C0004B4600930E3B0021380000F099FD0821380000F0C5FE2300BA33022291461A7040373288019512239A460093103B0021380000F085FD0521380000F0B1FE2300FE
:40690000FA3342461A70671CFF3732880195534600930F3B0021380000F072FD0821380000F09EFE23003B33FF334A461A7040373288019513239A460093113B0021380002
:4069400000F05EFD0521380000F08AFE23007B33FF3342461A7040373288019553460093103B0021380000F04BFD0821380000F077FEBB34FF344B46237009B01CBC90469F
:406980009946A246F0BC08BC03B01847D200002008B4F0B588B004000E0015000DAA02CA079202A80DF0A2FB0721200000F0DCFC9A4B1A88002301930D3300930C3B0021F3
:4069C000200000F01DFD0721200000F049FE02A9200000F0E7FE200000F046FF6089013080B20021FFF7A8FC2700403701F08AF80388002B0DD1894B1A880C3292B2002332
:406A00000193113300930F3B0021380000F0F8FC0CE0824B1A880C3292B2002301930F3300930B3B0021380000F0EAFC0521380000F016FE3100380000F0B4FE260080363D
:406A400001F060F80388002B0DD1744B1A880C3292B200230193113300930E3B0021300000F0CEFC0CE06D4B1A880C3292B2002301930F3300930A3B0021300000F0C0FCDE
:406A80000C21300000F0ECFD2900300000F08AFE2500C03501F036F80388002B0BD15F4B1A880023019312330093103B0021280000F0A6FC0AE0594B1A88002301931033D9
:406AC00000930C3B0021280000F09AFC0821280000F0C6FD5249280000F064FE651CFF3501F010F80388002B0BD14C4B1A8800230193123300930F3B0021280000F080FCCD
:406B00000AE0464B1A8800230193103300930B3B0021280000F074FC0C21280000F0A0FD4049280000F03EFE25004135FF3500F0E9FF0388002B0BD1384B1A8800230193E8
:406B400013330093113B0021280000F059FC0AE0324B1A88002301930F330093093B0021280000F04DFC20004530FF3002230093043B0A2252420A21FFF7E8F9122128002F
:406B800000F06EFD2849280000F00CFE274B0833A0225200A350280000F066FE25008135FF3500F0AFFF0388002B0BD11B4B1A880023019313330093103B0021280000F05C
:406BC0001FFC0AE0154B1A8800230193103300930A3B0021280000F013FC20008530FF3002230093043B0A2252420A21FFF7AEF90E21280000F034FD0C4B1033C0225200AB
:406C0000A3500949280000F0CDFD280000F02CFE08B0F0BC08BC01B01847C046D2000020E8630100EC63010084960100D80000200CB470B588B004000D000CAA02CA0792C3
:406C400002A80DF053FA0821200000F08DFBC64B1A88002301930D3300930C3B0021200000F0CEFB0721200000F0FAFC02A9200000F098FD200000F0F7FD6089013080B213
:406C80000021FFF759FB2600403600F03BFF0388002B0BD1B44B1A8800230193113300930F3B0021300000F0ABFB0AE0AE4B1A88002301930F3300930B3B0021300000F019
:406CC0009FFB0521300000F0CBFC2900300000F069FD012223007A331A70300000F0C4FD2500803500F00EFF0388002B0BD19E4B1A8800230193113300930E3B00212800CC
:406D000000F07EFB0AE0984B1A88002301930F3300930A3B0021280000F072FB0821280000F09EFC02222300BA331A702500C03500F0E8FE0388002B0BD18B4B1A8800234E
:406D4000019312330093103B0021280000F058FB0AE0854B1A88002301930F330093053B0021280000F04CFB2000C43002230093043B0A2252420A21FFF7E8F81221280001
:406D800000F06EFC7949280000F00CFD784B0833C022A350280000F067FD651CFF3500F0B1FE0388002B0BD16F4B1A8800230193123300930F3B0021280000F021FB0AE0ED
:406DC000694B1A880023019310330093063B0021280000F015FB601DFF3002230093043B0A2252420A21FFF7B1F80E21280000F037FC5F4B103380225200A3505B492800DF
:406E000000F0D0FC280000F02FFD25004135FF3500F078FE0388002B0BD1534B1A8800230193133300930F3B0021280000F0E8FA0AE04D4B1A880023019310330093093B61
:406E40000021280000F0DCFA20004530FF30002300930A2252420A21FFF778F80521280000F0FEFB80239B00E2584249280000F099FC23004133FF333F4A9A862500813504
:406E8000FF3500F03FFE0388002B0BD1364B1A8800230193133300930E3B0021280000F0AFFA0AE0304B1A880023019310330093083B0021280000F0A3FA20008530FF3050
:406EC000002300930A2252420A21FFF73FF80521280000F0C5FB81239B00E2582549280000F060FC23008133FF33234A9A862500C135FF3500F006FE0388002B0BD11A4B9B
:406F00001A8800230193133300930D3B0021280000F076FA0AE0144B1A880023019310330093073B0021280000F06AFA2000C530FF30002300930A2252420A21FFF706F8FE
:406F40000521280000F08CFB82239B00E2580949280000F027FCC134FF34074BA38608B070BC08BC02B01847D200002084960100D800002010A00100EF7B000070B5002480
:406F80000BE0A5006E5825008035AD002E50A50145193B3501262E700134022CF1DD1900FFF746FE1223112202490348FFF72EF870BDC046E0630100D863010030B585B0D2
:406FC0001C00002812D0012800D087E0454D13000A0021002800FFF7D1FF089B1A880B9B19782800FFF70AF93F4878E002A8FEF797FE02AB1B88002B6AD00822394902A892
:4070000000F088FC033883B2042B56D89800374B1B589F46089B1B6801930B9B1B8880339B00304A9B58019A944663440A9A934202DA089A136002E0089B0A9A1A60089B13
:4070400019882848FFF7CCF840E0089B1B6801930B9B1B8880339B00224A9B58019AD31A099A934202DD089A136002E0089B099A1A60089B19881B48FFF7B2F826E000236F
:407080000B9A1380089B1A8800211648FFF7B6F81CE001230B9A1380089B1A8801211148FFF7ACF812E002230B9A1380089B1A8802210C48FFF7A2F808E002220C4902A8D8
:4070C00000F028FC002805D0012805D0064806E0054804E0074802E0074800E0024805B030BDC046643D002001000080A4630100DC39002003000080040000800EB430B59D
:4071000098B005001BAA10CA1792210012A80CF0EDFF00212800FEF7C5FF0021FFF70CF90D4B1A880023019312330093113B002102A800F065F9042102A800F091FA210080
:4071400002A800F02FFB02A800F08EFB18B030BC08BC03B01847C046D20000200FB430B599B01CAA02CA179212A80CF0BFFF02AC200000F0DDF8144B1A88520092B20025B7
:4071800001950F2300930E3B0021200000F038F9009500230A2252420A2103A8FEF7D6FE0521200000F05CFA12A9200000F0FAFA01235B42A386200000F056FB19B030BC67
:4071C00008BC04B01847C046D200002010B50248FFF7C4FF10BDC046F063010010B5374B02229B5E002B0FD01A001E320EDA1A0043320DDA1A0046320CDA1A0050320BDAA2
:407200005A330BDA00240AE0002408E0052406E0042404E0032402E0022400E00124002C0FD1274C2749200000F0BCFA01235B422386200000F018FB234B1A0018321A60E5
:4072400035E0220021491E4800F0ACFA052C27D8A4001F4B1B599F461E4A194B1A8601221D4B1A801CE01D4A154B1A8605221A4B1A8015E020225242114B1A862332164B43
:407280001A800DE0FC22D2000D4B1A860222124B1A8005E01F220A4B1A861B3A0E4B1A80074800F0E1FA0E4B1833074A1360002205490C4800F08AFA10BDC04610460020DE
:4072C0005439002084960100D800002010A00100B863010000F8FFFFB222002020FDFFFFD80800209439002010B50100014800F059FA10BD9C39002010B5024800F0B4FA4E
:4073000010BDC0469C39002010B5FFF767FFFFF7F3FF054B1988013989B2044B27220020FEF74CFB10BDC046CE000020FFFF0000002202600A4BC3620023428601214942CD
:407340000186084981863A2143542A39C18602870F393C328154013A8354023283547047A0640100EF7B000070B506000D00002404E0A0013018FFF7DBFF0134AC42F8DB4C
:4073800070BDC046002303604386038683863C330022C2540122013BC2547047F0B5474680B488B0040005000C3528000CF0B4FD80B200281FD03A23E15C03291BD01228F5
:4073C00019D8E36A1A785B78E68EB046278F05260496039102900197414600916068A168FEF73EFC638E228E010C80B20195E46A0094FEF709FC08B004BC9046F0BDC046DC
:40740000F0B5474680B484B00600009190461D000AAB1C780BAB1F7802A8FEF787FD874B1A88012F03D11700283FBFB200E017000A2D57D8AB008249CB589F460023B380D7
:40744000203AF2804EE00023B380013FF78049E00023B3807F08013FF78043E07B08B380013FF7803EE00023B3800321380009F051F90138F08035E00321380009F04AF94F
:40748000B0807800032109F0CFF90138F08029E07800032109F0C8F9B080013FF78021E00023B380BF08013FF7801BE0BB08B3807F08013FF78015E07B08B3807800C71949
:4074C000FB1703201840C719BF10013FF78009E07B00DB19DA1703210A40D3189B10B380013FF78023000C3BDAB2082A00D999E09300544AD3589F460023338195E002ABAE
:407500009B88338191E002AB9C88D888001B0BF0E9FB00224C4B0AF0E1FD0090019120000BF0E0FB009A019B09F096FF09F006FB30817AE002AB9C88D888001B0BF0D2FB52
:40754000424A434B0AF0CAFD0090019120000BF0C9FB009A019B09F07FFF09F0EFFA308163E002AB9C88D888001B0BF0BBFB374A384B0AF0B3FD0090019120000BF0B2FB17
:40758000009A019B09F068FF09F0D8FA30814CE002AB9C88D888001B0BF0A4FB00222E4B0AF09CFD0090019120000BF09BFB009A019B09F051FF09F0C1FA308135E002AB00
:4075C0009C88D888001B0BF08DFB00221E4B0AF085FD0090019120000BF084FB009A019B09F03AFF09F0AAFA30811EE002AB9C88D888001B0BF076FB0022184B0AF06EFD50
:407600000090019120000BF06DFB009A019B09F023FF09F093FA308107E002ABDB880133338102E06B461B883381338943441D00013D758104B004BC9046F0BDCE000020DB
:40764000FC630100286401000000E03F1D5A643BDF4FD53FDF4FE53F0000D03F0000E83F70B505000C00FFF763FE142C00D986E0A400474B1B599F4601235B422B862033BE
:407680006B8684E001235B422B86424B6B867EE001235B422B8620336B8678E001235B422B86FC23DB006B8671E001235B422B8600236B86AB866AE001235B422B860023D5
:4076C0006B86AB8663E0334B2B8600236B86AB865DE0314B2B8600236B86AB8657E020235B422B8600236B86AB8650E0FC23DB002B8600236B86AB8649E01F232B86002396
:407700006B86AB8643E0254B2B8600236B86AB863DE0234B2B8600236B86AB8637E000232B86013B6B8632E001235B422B86194B6B862CE001235B422B86174B6B8626E055
:4077400001235B422B861F3B6B8620E001235B422B86FC23DB006B8619E001235B422B8620336B8613E001235B422B860B4B6B860DE001235B422B86094B6B8607E00123E5
:407780005B422B86FC23DB006B86054BAB8670BD4C64010000F8FFFF20FDFFFF18C6FFFFEF7B00000EB410B58BB004000DAA02CA099201A80CF09AFC20000C3001A90CF0B9
:4077C000A3FB0BB010BC08BC03B01847F0B5574680B484B004000F00924600886388C0180BF080FA00221F4B0AF078FC02900391BD8828000BF076FA00221A4B0AF06EFC56
:4078000002000B00029803990AF0E2FE09F096F986B2A088E388C0180BF064FA0022114B0AF05CFC02900391FC8820000BF05AFA00220C4B0AF052FC02000B0002980399BA
:407840000AF0C6FE09F07AF981B2534601933B68009323002A003000FEF71CF904B004BC9246F0BD0000E03F30B583B0041E26D03D23C35C012B22D0828E4068A168FEF726
:40788000FDF8A0882189E2886389013B9BB2013A92B2013189B2013080B2658E0095FEF74DF83C23E35C012B09D12168002903D0628E201DFFF78AFF2000FFF76FFD03B007
:4078C00030BDC04670B506000D00002404E0A0013018FFF7C9FF0134AC42F8DB70BDC04610B53B23CB5C012B0FD00B1D42888188090411431800FEF75DFA002807D0002150
:407900000120FEF773FA012002E0FF2000E0FF2010BDC046F8B505000F001600002409E0A10179182800FFF7DBFF012801D1A0B203E00134B442F3DBFF20F8BD01207047EC
:4079400010B50D4C8022002120000BF0E0FC0B4B80222100002007F07FFD094B1870002806D08022002104480BF0D1FC002001E0FFF7E4FF10BDC046703F0020A05D002039
:40798000F03F002010B5FD20800208F0BDF9002803D003480CF062FA01E0FFF7D1FF10BD647C010010B50C4C0C4B2380A01C7E2100F026F87E23E052094B802221000020E9
:4079C00007F062FE002804D006480CF047FA002000E0012010BDC046703F002039300000A05D00207C7C010010B58022002103480BF08DFCFFF7D6FF10BDC046703F0020A3
:407A000010B50122002303E0845C1B199BB201328A42F9DB584280B210BDC04610B502490248FFF7EDFF10BD06020000F83F002010B5114B1968114C114A2000FDF744FB70
:407A400082239B00E45AFFF7E9FF844204D00D480CF004FA00200EE00B4908480CF04AFA002804D009480CF0F9F9002003E008480CF0F4F9012010BDF43F0020F83F0020C0
:407A80000A020000987C0100C07C0100CC7C0100FC7C010010B5134C0C22134920000BF02DFCFFF7BBFF82239B00E0520F4B1868FDF78AFA002407E00D4B19686118094B8F
:407AC000185DFDF7BFFA01340A4B9C42F4D9FDF741F9FFF7ADFF002802D007480CF0BEF910BDC046F83F0020C07C010004420020F43F002009020000247D01000048704797
:407B00000C40002010B5FFF7F9FF963010BDC04610B500F089FFFFF7F5FF002303803233438010BD10B500F093FF03F061F9FFF7E9FF0388002B03D0012B01D0002303802D
:407B40004388002B01D0632B01D93223438010BD10B5FDF7BBF90028FBD0104A5369013B0F490B60126953430E4A1360FFF760FF002810D10C480CF071F90C4A00210C48BD
:407B80000BF0C5FBFFF7C4FF03F028F9FFF7CAFFFFF780FF01E0FFF7C5FF10BDCC33002004420020F43F00204C7D01000A020000F83F002000487047D440002030B583B051
:407BC00005000C1E08D0FFF79DFF03885A4253419BB21F4A138053801D4B1A1D0192009302231C4A21002800FEF7B8FD1A4B984224D003DC194B984215D026E0012824D872
:407C0000134C20880138431E9841C0B2FDF7FCFD231D0193009402230E4A01212800FEF79DFD0F4812E00A4B58880138431E9841C0B2FDF7E9FD8020000607E0FFF7C6FA2D
:407C4000FFF728FF8020000600E0054803B030BDE0220020F020002004000080030000800100008030B585B004000D00012904D1FFF748FF4288194B9A6021001031174B47
:407C80001A000C320392642202920022019208330093134B0833134A2800FFF78FF9124B984203D0114B984203D013E08020000611E0FFF727FF094B9B684380FFF722FFB4
:407CC0004088FCF77BFCFFF781FAFFF7E3FE8020000600E0064805B030BDC046E0220020F0200020B493010003000080040000800100008010B5024A0E32FEF7C3FC10BD9A
:407D0000E022002010B5024A1032FEF7BBFC10BDE0220020F0B55F4656464D464446F0B495B04A4B9B461A8804AC00239A46019311330093103B00212000FFF761FB200013
:407D4000FFF7F6FA04212000FFF78AFC40492000FFF728FD3F4B9946E36220235B42984623863A260127A7552000FFF77DFDA088143080B261890A3989B2374B0193374DCF
:407D8000543500950023364AFDF73EFF5B461A885346019312330093113B00212000FFF72FFB2000FFF7C4FA04212000FFF758FC2C492000FFF7F6FC4B46E36243462386F4
:407DC000A7552000FFF750FDA088143080B261890A3989B2244B019300950023204AFDF713FF5B461A885346019313330093123B00212000FFF704FB2000FFF799FA042159
