:400000000080002011000000EB010000EB01000010B500F0A5F900F0F1F8000010B572B68024240122000021274801F088FA22000021264801F083FA99220024244B06219C
:400040001A6099223020234B12041C60224B1C60224B1A60224A13780B431370214B224A186002231360214A2B311160204A13601222204B1A6000F0E9FD1F4A1F4B20493B
:400080001A60C0221F4B52021A601F4A1F4B08201A6080221E4B12061A6080221D4BD2021A6040221C4B1A6000F0F0FC082000F00FFD1A4B1A4A1C6003231360194A13604B
:4000C000194B1C6010BDC04600300F4000400F4000070240000302400803044040500F4000700F4008000440000704400807044018070440300010400600008004010B4021
:40010000690F00000003014040FF00800000014008010B4000010B40140101400C020B403000304030003140000E3F4010B5064C2378002B07D1054B002B02D0044800E0B8
:4001400000BF0123237010BD580100200000000058150000084B10B5002B03D00749084800E000BF07480368002B00D110BD064B002BFBD09847F9E7000000005C010020FB
:4001800058150000C800002000000000084B10B51A686421501C186001F096F9002905D100F03EFFC043C0B200F02EFF10BDC0467401002010B500F049FE0024200000F011
:4001C00075FE002804D10449200000F067FE02E00134052CF2D110BD8D01000010B562B6FFF7E8FF00F0F6FAFEE710B501F072F903680C2B00D1FEE7FEE70000F8B50025B8
:400200000F49104B01394A1C14D000221F685C689E68A018B24203D0B858A0500432F8E70200DE68141AA64201D020C2FAE710330139E8E701F054F9FFF7D0FFFEE7C04654
:4002400001000000D415000001210F4A70B5136814008B43136000230C4D0D4E0D489A002900032B00D8B15801338150302BF6D1FFF7D4FE084B1A68002A00D11A600122CA
:4002800023681343236070BD00001040EB0100000000000000000020C00000200047002310B5002A05D0013A4418A45C1B19DBB2F7E7180010BD0000013810B50B2830D8EF
:4002C0000902494201F066F806080A0C0E10141216191B20164B13E0164B16E0164B0AE0164B12E0164B0BE0164B09E0164B02E0164B00E0164BC91814E0164B05E0164B07
:40030000C9180878C0B211E0144BC9180A7848788C780002230418430300C8781343000603E000210B7848780002184310BDC046C0FF0300C1FF0300C5FF0300C9FF0300C2
:40034000D0FF0300D1FF0300D6FF0300D2FF0300D4FF0300D8FF0300DCFF0300E0FF03000C4B10B51A68102313400B4A00D113601368802B0DD10024022021001460FFF72A
:400380009BFFA04205D021000220FFF795FFFFF785FF10BD00030B40C0000020F8B5010006000320FFF788FF040031000420FFF783FF013424022718002431000320FFF77D
:4003C0007BFF250001300002B84209D203785A1ED2B2FD2A00D80125E418E4B20130F3E731000120FFF768FF6442E4B20623844203D16A4255416D422B401800F8BD000046
:40040000F0B5C34CA544019000F018FA62B6019B002B02D06B461B7901E0BE4B1B78DBB2039300250A23009502939621039B04AA49000AA800F00AFA019B002B03D0029B51
:40044000013BDBB20293029B002B02D00028ECD102E0002800D090E004AB1988062900D852E11A7E0423012A57D104AA568BF21D8A4200D94AE1962149008A4200D945E180
:400480000AAA92199279172A47D10022F3189BB2002B09D0A0A9A048C91809180978013B521892B29BB2F3E70AAFBB19597952421B79090292B21943082391422DD167E0C1
:4004C000342B00D0D1E0009B012B00D01CE1032E00D019E180220021520055A8802501F02EF86D001F2155AB581904ABC918F21E01F01CF804237519FF33ADB29D4200D007
:40050000FCE004AB9D7F587F844B2D0205439D4200D813E1012300930933002404AA548001210AAA5370230AD370002311709470221D92B2002A09D0A0A9774889180918B2
:400540000978013A5B189BB292B2F3E7A0AA744912195B4251189BB20B7072491B0A51180B70714B0734D2181723137004AAA1B27F3302320AA800F09DF9019B002B00D1C8
:4005800053E7009B012B00D01CE1012300934CE77B783C79180031380A282ED9634A1468002C26D0009A012A25D104AAD68007AE13710BAF0C2200213000069700F0BFFF5A
:4005C000B760310005A8A0472623B488FF339C4202D9B368BB4207D0B268002A01D1002C04D13368DBB299E70E2396E70E23140094E7052392E705238FE700F0D5FE0B0086
:400600001900CFFF61FF3C00CFFF4000520061FF62007200009B012B76D1002E74D13000FFF7BCFE43424341009C3B71330075E7009B012B68D1012E66D1002C64D13C4B14
:400640001B681B689A0CD2B2002A02D19B039B0D01E08023DB003B711B0A7B71FF23BB71FC3BFB710424002358E7009B012B4BD1022E49D936E7009B012B45D19CE0009B2A
:40068000012B41D12C337419FF339C423EDC55AB581932000BA900F049FF0023A5B21C003CE7002E30D107AB1900224A350011CA11C10BAA03CB03C20123082400933300F8
:4006C0002CE7009B012B1FD1032E1DD104AA04AB977F5B7F3F021F43104B9F424CD90A231BE70020FFF75AFE002802D18022124B1A6000F0A7F800F00BFA05E001230025FD
:40070000009302332C0009E7042306E7032304E77CFDFFFF5C150000A7FDFFFFFF030000ACFDFFFFADFDFFFFAEFDFFFF78010020CC00002060150000C0000020234B1B6861
:400740001A68130AD2B29BB2002A01D001339BB2A0022D18A8B2834204D90123002500930933CFE755A900F0B3F80028F5D10123050000930300C5E78022A102C9190902B8
:4007800052000020FFF78BFD0600002C0ED1104B9F420BD121000520FFF78EFD2100361A0620FFF789FDF6B2361AF6B20AAB76421E7101240023B1E60025019BAB4200D04D
:4007C000E3E632E6A1239B009D44F0BDCC000020FF03000070B50020FFF7E0FD154E431E9841336806251C68404222000540C03AC0210020FFF753FD73681B78181AC0B202
:40080000834201D1002C02D1002000F07FF90A4C2368402B01D0002D03D000202060FFF7EFFD1420FFF7ECFD8023236000F070F970BDC046CC000020C000002010B500F0B5
:4008400017FC10BD10B500F021FC10BDF8B504000F0016000120002C28D0002926D00A255D4300F041FC002810D000F03DFC05000F4800F0E1F900F037FC8542F5D1390083
:40088000AF4200D929003180651807E00120013D00F04AF9002DE4D1102007E0AC4204D000F00AFC20700134F8E70020F8BDC0462608000070B501230C001500002805D0D9
:4008C000002903D000F054FC00232C80180070BD0023F0B5C7B0029303932C4B050098424FD800294DD0802206A8520000F01EFE274B9D4201D8274B00E0274BFF22049327
:40090000264C2749274B04AE726026600B60C046236801911B0F0F2B04D021680023090F0A2901D0236813400293029F002F2AD100F087FB0397029B002B16D11A4A2D043D
:400940000492049A194915430495019D2660134A2960C0462168090F0F2903D01168090F0A2901D01368DBB20293039B002B05D10393039B002B01D0039B029300F065FBB0
:4009800001E004230293029847B0F0BDFF030000FF010000B6D70000B6D70001080010400400104004000080B6D800000500008010B5040000F045FB102C04D803210C4A71
:4009C00013688B430FE0202C05D80321084A13688B43023906E0302C06D80321044A13688B4301390B43136000F02FFB10BDC04630001040024A034B11680B4013607047D1
:400A000000002240FFFFFFBF024B18684000C00F7047C0460000224001210A4A0A4813688B431360094A1E3113688B43036013688B4317390B431360054A063913680B431A
:400A40001360704750000C407C01002034FF0B4024002C400221064A13688B4313601F2204490B689343044A126813430B60704724002C4034FF0B407C010020024B186847
:400A80008007C00F7047C04624002C40024B8000C31818681960704740000020F8B5032605003540B5400F0004000635AE40AF4000F0C7FAA408054BA400E4182368B3439D
:400AC0001F43276000F0C1FAF8BDC04600E400E01F2318401E3B8340014A13607047C04600E100E01F2318401E3B8340014A13607047C04680E100E01F2318401E3B8340C9
:400B0000014A13607047C04680E200E001BE7047034A044913689BB20B4313607047C0460CED00E00400FA0570B5802504002D02064BAC4205D9586800F07AFA044BE4183D
:400B4000F6E79868604300F073FA70BDD40000200080FFFFF7B500F0B1F9002854D000F070FA0121294A3F27136804000B4313600022274E27483168135C3940050099426B
:400B800001D1033203E001322E2AF4D12B3A1F2021490B68034204D10B688343133803430B6080261D491E4B0868F60118401D4B53439B19DB0B013B0343192A01D81A485F
:400BC0000CE01A481018AA180678107DA022801952031343FF2800D9FF2080050343144D0B602B6830200193FFF7E2FE8021114AC905136814200B431360FFF795FF019B49
:400C000020002B6000F021FAF7BDC04650000C402CFF0B406815000034FF0B400800224000F800C040420F000000D43F4DF3FF0F300010400000224010B5034B1B7B5843FD
:400C400000F0F6F910BDC046D4000020F0B587B0050000F0F6F90590FFF7D6FE00230393984203D0FFF7C6FE01230393FFF706FF00230293984207D0182D01D0302D03D12A
:400C8000FFF7E8FE01230293EB1E04932D2B66D83A4B1B789D4204D8394B1C78394BE4B21EE0394B1B789D4204D8384B1C78384BE4B215E0374B1B789D4204D8364B1C788A
:400CC000364BE4B20CE0364B1B789D4204D8354B1C78354BE4B203E0344B1C78344BE4B21B78EA1EDBB20093324B334E9B5C01932F2B04D92A2D02D91927376008E03F231F
:400D000037681F40019BBB4205D22B4B019A1A60052000F08DF9029B012B08D1302D01D1264B02E0182D02D1254B1B7802E0204BED182B78234ADBB21360234B009A1C60FA
:400D4000224B05201A60FFF777FF019BBB4206D9049A184B05209B5C336000F069F9039B012B01D1FFF7F6FE029B012B01D1FFF753FE059800F069F907B0F0BD40F3FF0F85
:400D800041F3FF0F42F3FF0F43F3FF0F44F3FF0F45F3FF0F46F3FF0F47F3FF0F48F3FF0F49F3FF0F4AF3FF0F4BF3FF0F4CF3FF0F4DF3FF0F681500002CFF0B403FF3FF0F58
:400DC0003EF3FF0F28FF0B401CFF0B4020FF0B4010B5002404210C4B0C4A1C615C609C60DC605C610A4B1A600A4A13680B43FA211360094B8900186900F0E0FA074B18601D
:400E0000074B1C6010BDC0467C010020790E00003C00002010E000E0D400002014E000E018E000E00221024A13680B431360704710E000E010B5FFF7F5FF0121024A136857
:400E40000B43136010BDC04610E000E010B5054CA369002B03D1FFF7BBFF0123A361FFF7E9FF10BD7C010020024B1868C003C00F7047C04610E000E010B5FFF7F5FF012809
:400E800009D10024044B0433E358002B00D098470434142CF6D110BD7C010020024B80001B185868596070477C010020024B8000181840687047C0467C010020014B186858
:400EC000C00F70470000224010B500F0BAF8C021034A090213680B43136000F0B6F810BD00010B4010B5802400F0ABF80749084B0A68E4011A4022430A600A6813408022F1
:400F0000120213430B6000F0A0F810BD00010B40FF3FFFFF70B5050000F093F80E4B04001A68C0231B02134011D10C480C49054028000E680B4A3240104308600A68012B9A
:400F400001D1FFF7C1FF200000F07FF870BDFFF7C9FF0123E9E7C04600010B400404040010020B40FBFBFBFF042270B5224C2368134213D021494B6813420CD0204B5D6ADC
:400F800048681540A8434860596A914359629B69002B00D098470420FFF7BCFF80232268DB001A4215D015494A681A420DD0144A556A48682B4098434860516A114B0B40E5
:400FC0005362D369002B00D098478020C000FFF7A1FF80232268DB021A420CD0074A52681A4204D0064B1B6A002B00D098478020C002FFF78FFF70BD10020B40E80000208B
:4010000098010020FFFBFFFF0223044940000A689A43D2B2034013430B60704700000440024B18688007C00F7047C046040004400230800803D00138FDD1C046C046C046AD
:401040007047EFF3108072B6704780F3108870478021064A10B5136809060B4313600C20FFF736FD00F002F910BDC0460000274010B5054C2378002B03D100F085F80123EA
:401080002370FFF7E5FF10BDC001002010B50C20FFF728FD00F0FCF8054A0C2013685B005B0813600022034B1A60FFF725FD10BD00002740880F2740084B094A1968136828
:4010C0000020994208D013680133412B00D103000449C85C1360C0B27047C0465C020020D401002018020020044B1868044B1A681B68904200D24130C01A70475C02002027
:40110000D4010020134B144A30B515681C681900A54208D1114B1C681F232340082B02D00F4B186015E013680133402B00D100230C68A342FCD002210A4CC0B221600A4CF9
:40114000E0541360094B1A680A4202D11A680A431A6030BDCC010020D00100200802274040022740800F2740D8010020880F274070B504004518AC4204D02078FFF7C2FF21
:401180000134F8E770BD000070B51F4A00241F4B07201A60012204251D4B1E491C601E4B1A601E4B0B601E4908601E4905300C601D490A601D4A13601D4B1C601D4B1D6099
:4011C000FFF790FC03210C20FFF768FC1A490C20FFF75CFC194B1C60194B1C60194B1C60194B1C60194B1D60194B1C601A68194B1A80194B1C60194B1C60194B1C70194B11
:401200001C60194B1C6070BD0C0000020000274040002740000327404800274007000080040327401003274044002740000227400402274050002740B9120000880E274081
:40124000C80E2740480F2740080F2740C80F2740880F2740C80100205C020020D401002059020020D0010020CC010020F021054A13688B4360390B431360034B1A88034BC3
:401280001A60704700070240C8010020880F2740F021064A13688B431360054B1A68E423DB001340034A13807047C04600070240880F2740C8010020254B70B51B68002B99
:4012C00000D09847234B1B685B071CD520241F2021490B680133412B00D100231F4A15681F4AAB4203D113681E4B1C7004E012681D4DD2B2EA540B601C4B1B680342E8D1AA
:4013000004221B4B1A601B4B1B689B071FD51F20194C1A4A21681368994210D013680133402B00D100231649164DC95CC9B229601360154B1B680340082BEBD104E00221D9
:40134000124A13688B4313600222114B1A6070BDC4010020CC0F27405C020020D401002040032740590200201802002008032740C00F27408C0F2740D0010020CC010020AD
:40138000D80100204002274008022740880F2740800F274002B4714649084900095C49008E4402BC7047C04603B47146490840004900095E49008E4403BC70470022430877
:4013C0008B4274D303098B425FD3030A8B4244D3030B8B4228D3030C8B420DD3FF22090212BA030C8B4202D31212090265D0030B8B4219D300E0090AC30B8B4201D3CB0347
:40140000C01A5241830B8B4201D38B03C01A5241430B8B4201D34B03C01A5241030B8B4201D30B03C01A5241C30A8B4201D3CB02C01A5241830A8B4201D38B02C01A524171
:40144000430A8B4201D34B02C01A5241030A8B4201D30B02C01A5241CDD2C3098B4201D3CB01C01A524183098B4201D38B01C01A524143098B4201D34B01C01A524103097F
:401480008B4201D30B01C01A5241C3088B4201D3CB00C01A524183088B4201D38B00C01A524143088B4201D34B00C01A5241411A00D20146524110467047FFE701B50020D6
:4014C00000F006F802BDC0460029F7D076E770477047C046014B18687047C046500100200E4B70B500251E000D4CE41AA410A54204D0AB00F35898470135F8E700F058F8CD
:40150000084B00251E00084CE41AA410A54204D0AB00F35898470135F8E770BDBC150000BC150000BC150000C4150000002310B59A4203D0CC5CC4540133F9E710BD030036
:401540008218934202D019700133FAE770470000001700009500000000000000FF000000A011111000320101030405060708090A0B0C0E0F101112131415161718191B1CB8
:401580001D1E1F2021222325262728292A2B2E2F303132333435EEDBC9B9AA9B8E82766B60564D443B332C241D17100A04430000F8B5C046F8BC08BC9E4670475501000070
:4015C00049020000F8B5C046F8BC08BC9E4670472D010000E8150000C8000020900000000801000000000000000000005015000054150000010000000000C05D80BB000007
:4016000030000000006CDC02F0000000040404000000000000000000000000000000000000000000000000000000000000000000AD15000000000000000000000000000072
:40164000000000000000000000000000000000000000000000000000000000000000000000000000000000000000000000000000F00000200000000000000000000000005A
:40168000000000000000000000000000000000000000000000000000000000000000000000000000000000000000000000000000000000000000000000000000000000002A
:4016C00000000000000000000000000000000000000000000000000000000000000000000000000000000000000000000000000000000000000000000000000000000000EA
:4017000000000000000000000000000000000000000000000000000000000000000000000000000000000000000000000000000000000000000000000000000000000000A9
:401740000000000000000000000000000000000000000000000000000000000000000000000000000000000000000000000000000000000000000000000000000000000069
:020000040003F7
:40FFC0000000000000000000000000000000000000000000010000000000000000000000000000000000000000000000000000000000000000000000000000000000000000
:0200000490303A
:020000002E5F71
:0200000490402A
:4000000000000000000000000000000000000000000000000000000000000000000000000000000000000000000000000000000000000000000000000000000000000000C0
:400040000000000000000000000000000000000000000000000000000000000000000000000000000000000000000000000000000000000000000000000000000000000080
:0200000490501A
:0C0000000002101111A0000010183FFFBA
:0200000490600A
:0100000001FE
:00000001FF